{
    "contractName": "Store",
    "abi": [
        {
            "anonymous": false,
            "inputs": [
                {
                    "indexed": true,
                    "internalType": "address",
                    "name": "_owner",
                    "type": "address"
                },
                {
                    "indexed": true,
                    "internalType": "address",
                    "name": "_approved",
                    "type": "address"
                },
                {
                    "indexed": true,
                    "internalType": "uint256",
                    "name": "_tokenId",
                    "type": "uint256"
                }
            ],
            "name": "Approval",
            "type": "event"
        },
        {
            "anonymous": false,
            "inputs": [
                {
                    "indexed": true,
                    "internalType": "address",
                    "name": "_owner",
                    "type": "address"
                },
                {
                    "indexed": true,
                    "internalType": "address",
                    "name": "_operator",
                    "type": "address"
                },
                {
                    "indexed": false,
                    "internalType": "bool",
                    "name": "_approved",
                    "type": "bool"
                }
            ],
            "name": "ApprovalForAll",
            "type": "event"
        },
        {
            "anonymous": false,
            "inputs": [
                {
                    "indexed": false,
                    "internalType": "address",
                    "name": "owner",
                    "type": "address"
                },
                {
                    "indexed": false,
                    "internalType": "uint256",
                    "name": "token",
                    "type": "uint256"
                },
                {
                    "indexed": false,
                    "internalType": "uint256",
                    "name": "price",
                    "type": "uint256"
                }
            ],
            "name": "LogPutItemOnSale",
            "type": "event"
        },
        {
            "anonymous": false,
            "inputs": [
                {
                    "indexed": true,
                    "internalType": "address",
                    "name": "_from",
                    "type": "address"
                },
                {
                    "indexed": true,
                    "internalType": "address",
                    "name": "_to",
                    "type": "address"
                },
                {
                    "indexed": true,
                    "internalType": "uint256",
                    "name": "_tokenId",
                    "type": "uint256"
                }
            ],
            "name": "Transfer",
            "type": "event"
        },
        {
            "inputs": [
                {
                    "internalType": "address",
                    "name": "_approved",
                    "type": "address"
                },
                {
                    "internalType": "uint256",
                    "name": "_tokenId",
                    "type": "uint256"
                }
            ],
            "name": "approve",
            "outputs": [],
            "stateMutability": "nonpayable",
            "type": "function"
        },
        {
            "inputs": [
                {
                    "internalType": "address",
                    "name": "_owner",
                    "type": "address"
                }
            ],
            "name": "balanceOf",
            "outputs": [
                {
                    "internalType": "uint256",
                    "name": "",
                    "type": "uint256"
                }
            ],
            "stateMutability": "view",
            "type": "function"
        },
        {
            "inputs": [
                {
                    "internalType": "uint256",
                    "name": "_tokenId",
                    "type": "uint256"
                }
            ],
            "name": "getApproved",
            "outputs": [
                {
                    "internalType": "address",
                    "name": "",
                    "type": "address"
                }
            ],
            "stateMutability": "view",
            "type": "function"
        },
        {
            "inputs": [
                {
                    "internalType": "address",
                    "name": "_owner",
                    "type": "address"
                },
                {
                    "internalType": "address",
                    "name": "_operator",
                    "type": "address"
                }
            ],
            "name": "isApprovedForAll",
            "outputs": [
                {
                    "internalType": "bool",
                    "name": "",
                    "type": "bool"
                }
            ],
            "stateMutability": "view",
            "type": "function"
        },
        {
            "inputs": [
                {
                    "internalType": "uint256",
                    "name": "_tokenId",
                    "type": "uint256"
                }
            ],
            "name": "ownerOf",
            "outputs": [
                {
                    "internalType": "address",
                    "name": "_owner",
                    "type": "address"
                }
            ],
            "stateMutability": "view",
            "type": "function"
        },
        {
            "inputs": [
                {
                    "internalType": "address",
                    "name": "owner",
                    "type": "address"
                },
                {
                    "internalType": "uint256",
                    "name": "token",
                    "type": "uint256"
                },
                {
                    "internalType": "uint256",
                    "name": "price",
                    "type": "uint256"
                }
            ],
            "name": "putItenOnSale",
            "outputs": [
                {
                    "internalType": "bool",
                    "name": "success",
                    "type": "bool"
                }
            ],
            "stateMutability": "nonpayable",
            "type": "function"
        },
        {
            "inputs": [
                {
                    "internalType": "address",
                    "name": "_from",
                    "type": "address"
                },
                {
                    "internalType": "address",
                    "name": "_to",
                    "type": "address"
                },
                {
                    "internalType": "uint256",
                    "name": "_tokenId",
                    "type": "uint256"
                }
            ],
            "name": "safeTransferFrom",
            "outputs": [],
            "stateMutability": "nonpayable",
            "type": "function"
        },
        {
            "inputs": [
                {
                    "internalType": "address",
                    "name": "_from",
                    "type": "address"
                },
                {
                    "internalType": "address",
                    "name": "_to",
                    "type": "address"
                },
                {
                    "internalType": "uint256",
                    "name": "_tokenId",
                    "type": "uint256"
                },
                {
                    "internalType": "bytes",
                    "name": "_data",
                    "type": "bytes"
                }
            ],
            "name": "safeTransferFrom",
            "outputs": [],
            "stateMutability": "nonpayable",
            "type": "function"
        },
        {
            "inputs": [
                {
                    "internalType": "address",
                    "name": "_operator",
                    "type": "address"
                },
                {
                    "internalType": "bool",
                    "name": "_approved",
                    "type": "bool"
                }
            ],
            "name": "setApprovalForAll",
            "outputs": [],
            "stateMutability": "nonpayable",
            "type": "function"
        },
        {
            "inputs": [
                {
                    "internalType": "bytes4",
                    "name": "_interfaceID",
                    "type": "bytes4"
                }
            ],
            "name": "supportsInterface",
            "outputs": [
                {
                    "internalType": "bool",
                    "name": "",
                    "type": "bool"
                }
            ],
            "stateMutability": "view",
            "type": "function"
        },
        {
            "inputs": [
                {
                    "internalType": "address",
                    "name": "_from",
                    "type": "address"
                },
                {
                    "internalType": "address",
                    "name": "_to",
                    "type": "address"
                },
                {
                    "internalType": "uint256",
                    "name": "_tokenId",
                    "type": "uint256"
                }
            ],
            "name": "transferFrom",
            "outputs": [],
            "stateMutability": "nonpayable",
            "type": "function"
        }
    ],
    "bytecode": "608060405234801561001057600080fd5b50600060208190527f67be87c3ff9960ca1e9cfac5cab2ff4747269cf9ed20c9b7306235ac35a491c5805460ff1990811660019081179092556380ac58cd60e01b9092527ff7815fccbf112960a73756e185887fedcb9fc64ca0a16cc5923b7960ed78080080549092161790556111938061008c6000396000f3fe608060405234801561001057600080fd5b50600436106100a95760003560e01c80636352211e116100715780636352211e1461013257806370a0823114610145578063a22cb46514610165578063b88d4fde14610178578063bfdde0981461018b578063e985e9c51461019e576100a9565b806301ffc9a7146100ae578063081812fc146100d7578063095ea7b3146100f757806323b872dd1461010c57806342842e0e1461011f575b600080fd5b6100c16100bc366004610fef565b6101b1565b6040516100ce91906110db565b60405180910390f35b6100ea6100e5366004611027565b6101d4565b6040516100ce919061108a565b61010a610105366004610f94565b610256565b005b61010a61011a366004610e89565b6103f8565b61010a61012d366004610e89565b6105b3565b6100ea610140366004611027565b6105d3565b610158610153366004610e36565b61062b565b6040516100ce91906110f9565b61010a610173366004610f5a565b610682565b61010a610186366004610ec4565b6106f1565b6100c1610199366004610fbd565b61073a565b6100c16101ac366004610e57565b6108c1565b6001600160e01b0319811660009081526020819052604090205460ff165b919050565b6000818152600160209081526040808320548151808301909252600682526518181998181960d11b9282019290925283916001600160a01b03166102345760405162461bcd60e51b815260040161022b91906110e6565b60405180910390fd5b506000838152600260205260409020546001600160a01b031691505b50919050565b60008181526001602052604090205481906001600160a01b0316338114806102a157506001600160a01b038116600090815260046020908152604080832033845290915290205460ff165b6040518060400160405280600681526020016530303330303360d01b815250906102de5760405162461bcd60e51b815260040161022b91906110e6565b50600083815260016020908152604091829020548251808401909352600683526518181998181960d11b918301919091528491906001600160a01b03166103385760405162461bcd60e51b815260040161022b91906110e6565b50600084815260016020908152604091829020548251808401909352600683526506060666060760d31b918301919091526001600160a01b03908116919087168214156103985760405162461bcd60e51b815260040161022b91906110e6565b5060008581526002602052604080822080546001600160a01b0319166001600160a01b038a811691821790925591518893918516917f8c5be1e5ebec7d5bd14f71427d1e84f3dd0314c0f7b2291e5b200ac8c7c3b92591a4505050505050565b60008181526001602052604090205481906001600160a01b03163381148061043657506000828152600260205260409020546001600160a01b031633145b8061046457506001600160a01b038116600090815260046020908152604080832033845290915290205460ff165b604051806040016040528060068152602001650c0c0ccc0c0d60d21b815250906104a15760405162461bcd60e51b815260040161022b91906110e6565b50600083815260016020908152604091829020548251808401909352600683526518181998181960d11b918301919091528491906001600160a01b03166104fb5760405162461bcd60e51b815260040161022b91906110e6565b50600084815260016020908152604091829020548251808401909352600683526530303330303760d01b918301919091526001600160a01b0390811691908816821461055a5760405162461bcd60e51b815260040161022b91906110e6565b5060408051808201909152600681526530303330303160d01b60208201526001600160a01b03871661059f5760405162461bcd60e51b815260040161022b91906110e6565b506105aa86866108ef565b50505050505050565b6105ce8383836040518060200160405280600081525061096a565b505050565b600081815260016020908152604091829020548251808401909352600683526518181998181960d11b918301919091526001600160a01b031690816102505760405162461bcd60e51b815260040161022b91906110e6565b60408051808201909152600681526530303330303160d01b60208201526000906001600160a01b0383166106725760405162461bcd60e51b815260040161022b91906110e6565b5061067c82610c18565b92915050565b3360008181526004602090815260408083206001600160a01b038716808552925291829020805460ff191685151517905590519091907f17307eab39ab6107e8899845ad3d59bd9653f200f220920489ca2b5937696c31906106e59085906110db565b60405180910390a35050565b61073385858585858080601f01602080910402602001604051908101604052809392919081815260200183838082843760009201919091525061096a92505050565b5050505050565b60008281526001602052604081205483906001600160a01b03163381148061078557506001600160a01b038116600090815260046020908152604080832033845290915290205460ff165b6040518060400160405280600681526020016530303330303360d01b815250906107c25760405162461bcd60e51b815260040161022b91906110e6565b50600085815260016020908152604091829020548251808401909352600683526518181998181960d11b918301919091528691906001600160a01b031661081c5760405162461bcd60e51b815260040161022b91906110e6565b5060408051808201909152600681526530303330303160d01b60208201526001600160a01b0388166108615760405162461bcd60e51b815260040161022b91906110e6565b5060408051808201909152600681526503030333031360d41b60208201528561089d5760405162461bcd60e51b815260040161022b91906110e6565b50505060009384525060056020526040909220805460ff1916600117905550919050565b6001600160a01b03918216600090815260046020908152604080832093909416825291909152205460ff1690565b6000818152600160205260409020546001600160a01b031661091082610c33565b61091a8183610c70565b6109248383610d2a565b81836001600160a01b0316826001600160a01b03167fddf252ad1be2c89b69c2b068fc378daa952ba7f163c4a11628f55a4df523b3ef60405160405180910390a4505050565b60008281526001602052604090205482906001600160a01b0316338114806109a857506000828152600260205260409020546001600160a01b031633145b806109d657506001600160a01b038116600090815260046020908152604080832033845290915290205460ff165b604051806040016040528060068152602001650c0c0ccc0c0d60d21b81525090610a135760405162461bcd60e51b815260040161022b91906110e6565b50600084815260016020908152604091829020548251808401909352600683526518181998181960d11b918301919091528591906001600160a01b0316610a6d5760405162461bcd60e51b815260040161022b91906110e6565b50600085815260016020908152604091829020548251808401909352600683526530303330303760d01b918301919091526001600160a01b03908116919089168214610acc5760405162461bcd60e51b815260040161022b91906110e6565b5060408051808201909152600681526530303330303160d01b60208201526001600160a01b038816610b115760405162461bcd60e51b815260040161022b91906110e6565b50610b1c87876108ef565b610b2e876001600160a01b0316610de3565b15610c0e57604051630a85bd0160e11b81526000906001600160a01b0389169063150b7a0290610b689033908d908c908c9060040161109e565b602060405180830381600087803b158015610b8257600080fd5b505af1158015610b96573d6000803e3d6000fd5b505050506040513d601f19601f82011682018060405250810190610bba919061100b565b60408051808201909152600681526530303330303560d01b60208201529091506001600160e01b03198216630a85bd0160e11b14610c0b5760405162461bcd60e51b815260040161022b91906110e6565b50505b5050505050505050565b6001600160a01b031660009081526003602052604090205490565b6000818152600260205260409020546001600160a01b031615610c6d57600081815260026020526040902080546001600160a01b03191690555b50565b600081815260016020908152604091829020548251808401909352600683526530303330303760d01b918301919091526001600160a01b03848116911614610ccb5760405162461bcd60e51b815260040161022b91906110e6565b506001600160a01b038216600090815260036020526040902054610cf19060019061111a565b6001600160a01b0390921660009081526003602090815260408083209490945591815260019091522080546001600160a01b0319169055565b600081815260016020908152604091829020548251808401909352600683526518181998181b60d11b918301919091526001600160a01b031615610d815760405162461bcd60e51b815260040161022b91906110e6565b50600081815260016020818152604080842080546001600160a01b0319166001600160a01b0388169081179091558452600390915290912054610dc391611102565b6001600160a01b0390921660009081526003602052604090209190915550565b6000813f7fc5d2460186f7233c927e7db2dcc703c0e500b653ca82273b7bfad8045d85a4708115801590610e175750808214155b949350505050565b80356001600160a01b03811681146101cf57600080fd5b600060208284031215610e47578081fd5b610e5082610e1f565b9392505050565b60008060408385031215610e69578081fd5b610e7283610e1f565b9150610e8060208401610e1f565b90509250929050565b600080600060608486031215610e9d578081fd5b610ea684610e1f565b9250610eb460208501610e1f565b9150604084013590509250925092565b600080600080600060808688031215610edb578081fd5b610ee486610e1f565b9450610ef260208701610e1f565b935060408601359250606086013567ffffffffffffffff80821115610f15578283fd5b818801915088601f830112610f28578283fd5b813581811115610f36578384fd5b896020828501011115610f47578384fd5b9699959850939650602001949392505050565b60008060408385031215610f6c578182fd5b610f7583610e1f565b915060208301358015158114610f89578182fd5b809150509250929050565b60008060408385031215610fa6578182fd5b610faf83610e1f565b946020939093013593505050565b600080600060608486031215610fd1578283fd5b610fda84610e1f565b95602085013595506040909401359392505050565b600060208284031215611000578081fd5b8135610e5081611147565b60006020828403121561101c578081fd5b8151610e5081611147565b600060208284031215611038578081fd5b5035919050565b60008151808452815b8181101561106457602081850181015186830182015201611048565b818111156110755782602083870101525b50601f01601f19169290920160200192915050565b6001600160a01b0391909116815260200190565b6001600160a01b03858116825284166020820152604081018390526080606082018190526000906110d19083018461103f565b9695505050505050565b901515815260200190565b600060208252610e50602083018461103f565b90815260200190565b6000821982111561111557611115611131565b500190565b60008282101561112c5761112c611131565b500390565b634e487b7160e01b600052601160045260246000fd5b6001600160e01b031981168114610c6d57600080fdfea264697066735822122092d5c001cc4a70ca278a2869e9de240ac3d988fe18b102f98de6c0425fd5e02064736f6c63430008000033",
    "sourcePath": "/Users/fahmi/Downloads/Fahmi Learn/Blockchain/ScratchNFT/Belajar-NFT-Part-1/contracts/store/store.sol",
    "compiler": {
        "name": "solc",
        "version": "0.8.0+commit.c7dfd78e"
    },
    "functionHashes": {
        "approve(address,uint256)": "095ea7b3",
        "balanceOf(address)": "70a08231",
        "getApproved(uint256)": "081812fc",
        "isApprovedForAll(address,address)": "e985e9c5",
        "ownerOf(uint256)": "6352211e",
        "putItenOnSale(address,uint256,uint256)": "bfdde098",
        "safeTransferFrom(address,address,uint256)": "42842e0e",
        "safeTransferFrom(address,address,uint256,bytes)": "b88d4fde",
        "setApprovalForAll(address,bool)": "a22cb465",
        "supportsInterface(bytes4)": "01ffc9a7",
        "transferFrom(address,address,uint256)": "23b872dd"
    },
    "gasEstimates": {
        "creation": {
            "codeDepositCost": "899800",
            "executionCost": "42628",
            "totalCost": "942428"
        },
        "external": {
            "approve(address,uint256)": "infinite",
            "balanceOf(address)": "infinite",
            "getApproved(uint256)": "infinite",
            "isApprovedForAll(address,address)": "infinite",
            "ownerOf(uint256)": "infinite",
            "putItenOnSale(address,uint256,uint256)": "infinite",
            "safeTransferFrom(address,address,uint256)": "infinite",
            "safeTransferFrom(address,address,uint256,bytes)": "infinite",
            "setApprovalForAll(address,bool)": "23262",
            "supportsInterface(bytes4)": "1295",
            "transferFrom(address,address,uint256)": "infinite"
        }
    }
}