{
  "contractName": "Escrow",
  "abi": [
    {
      "anonymous": false,
      "inputs": [
        {
          "indexed": false,
          "internalType": "address",
          "name": "sender",
          "type": "address"
        },
        {
          "indexed": false,
          "internalType": "uint256",
          "name": "amount",
          "type": "uint256"
        }
      ],
      "name": "LogDeposit",
      "type": "event"
    },
    {
      "anonymous": false,
      "inputs": [
        {
          "indexed": false,
          "internalType": "address",
          "name": "sender",
          "type": "address"
        },
        {
          "indexed": false,
          "internalType": "address",
          "name": "to",
          "type": "address"
        },
        {
          "indexed": false,
          "internalType": "uint256",
          "name": "amount",
          "type": "uint256"
        }
      ],
      "name": "LogTransfer",
      "type": "event"
    },
    {
      "anonymous": false,
      "inputs": [
        {
          "indexed": false,
          "internalType": "address",
          "name": "to",
          "type": "address"
        },
        {
          "indexed": false,
          "internalType": "uint256",
          "name": "amount",
          "type": "uint256"
        }
      ],
      "name": "LogWithdraw",
      "type": "event"
    },
    {
      "inputs": [
        {
          "internalType": "address payable",
          "name": "to",
          "type": "address"
        }
      ],
      "name": "withdrawAll",
      "outputs": [
        {
          "internalType": "bool",
          "name": "success",
          "type": "bool"
        }
      ],
      "stateMutability": "nonpayable",
      "type": "function"
    },
    {
      "inputs": [
        {
          "internalType": "address",
          "name": "_owner",
          "type": "address"
        }
      ],
      "name": "getBalance",
      "outputs": [
        {
          "internalType": "uint256",
          "name": "",
          "type": "uint256"
        }
      ],
      "stateMutability": "view",
      "type": "function"
    }
  ],
  "bytecode": "0x608060405234801561001057600080fd5b5061059f806100206000396000f3fe608060405234801561001057600080fd5b50600436106100365760003560e01c8063f8b2cb4f1461003b578063fa09e6301461006b575b600080fd5b61005560048036038101906100509190610312565b61009b565b6040516100629190610430565b60405180910390f35b6100856004803603810190610080919061033b565b6100e3565b60405161009291906103f3565b60405180910390f35b60008060008373ffffffffffffffffffffffffffffffffffffffff1673ffffffffffffffffffffffffffffffffffffffff168152602001908152602001600020549050919050565b6000806000808473ffffffffffffffffffffffffffffffffffffffff1673ffffffffffffffffffffffffffffffffffffffff1681526020019081526020016000205414156040518060400160405280600681526020017f30303330303900000000000000000000000000000000000000000000000000008152509061019e576040517f08c379a0000000000000000000000000000000000000000000000000000000008152600401610195919061040e565b60405180910390fd5b508173ffffffffffffffffffffffffffffffffffffffff166108fc6000808573ffffffffffffffffffffffffffffffffffffffff1673ffffffffffffffffffffffffffffffffffffffff168152602001908152602001600020549081150290604051600060405180830381858888f19350505050158015610223573d6000803e3d6000fd5b507f4ce7033d118120e254016dccf195288400b28fc8936425acd5f17ce2df3ab708826000808573ffffffffffffffffffffffffffffffffffffffff1673ffffffffffffffffffffffffffffffffffffffff168152602001908152602001600020546040516102939291906103ca565b60405180910390a160008060008473ffffffffffffffffffffffffffffffffffffffff1673ffffffffffffffffffffffffffffffffffffffff1681526020019081526020016000208190555060019050919050565b6000813590506102f78161053b565b92915050565b60008135905061030c81610552565b92915050565b60006020828403121561032457600080fd5b6000610332848285016102e8565b91505092915050565b60006020828403121561034d57600080fd5b600061035b848285016102fd565b91505092915050565b61036d816104c1565b82525050565b61037c8161048b565b82525050565b600061038d8261044b565b6103978185610456565b93506103a78185602086016104f7565b6103b08161052a565b840191505092915050565b6103c4816104b7565b82525050565b60006040820190506103df6000830185610364565b6103ec60208301846103bb565b9392505050565b60006020820190506104086000830184610373565b92915050565b600060208201905081810360008301526104288184610382565b905092915050565b600060208201905061044560008301846103bb565b92915050565b600081519050919050565b600082825260208201905092915050565b600061047282610497565b9050919050565b600061048482610497565b9050919050565b60008115159050919050565b600073ffffffffffffffffffffffffffffffffffffffff82169050919050565b6000819050919050565b60006104cc826104d3565b9050919050565b60006104de826104e5565b9050919050565b60006104f082610497565b9050919050565b60005b838110156105155780820151818401526020810190506104fa565b83811115610524576000848401525b50505050565b6000601f19601f8301169050919050565b61054481610467565b811461054f57600080fd5b50565b61055b81610479565b811461056657600080fd5b5056fea2646970667358221220e572c9243d2721a207793205899fa4ff6fd5d8695425bc79f84cc9311306a3d264736f6c63430008000033",
  "immutableReferences": {},
  "source": "// SPDX-License-Identifier: MIT\npragma solidity ^0.8.0;\n\ncontract Escrow {\n    string constant NO_BALANCE = \"003009\";\n\n    // User balances\n    mapping(address => uint256) internal balances;\n\n    // Log Deposit event\n    event LogDeposit(address sender, uint256 amount);\n\n    // Log Transfer event\n    event LogTransfer(address sender, address to, uint256 amount);\n\n    // Log Withdraw\n    event LogWithdraw(address to, uint256 amount);\n\n    // Deposit Function\n    function _deposit(uint256 value) internal returns (bool success) {\n        uint256 valueInWei = value * (1 wei);\n        balances[msg.sender] += valueInWei;\n        emit LogDeposit(msg.sender, valueInWei);\n        return true;\n    }\n\n    // Transfer some ethers to someone, used to buy function\n    function _transferEthersToContract(\n        address _from,\n        address _to,\n        uint256 _value\n    ) internal {\n        balances[_to] += _value;\n        emit LogTransfer(_from, _to, _value);\n    }\n\n    // Withdraw all ethers\n    function withdrawAll(address payable to) external returns (bool success) {\n        require(balances[to] != 0, NO_BALANCE);\n        to.transfer(balances[to]);\n        emit LogWithdraw(to, balances[to]);\n        balances[to] = 0;\n        return true;\n    }\n\n    // Get balance\n    function getBalance(address _owner) external view returns (uint256) {\n        return balances[_owner];\n    }\n}\n",
  "sourcePath": "/Users/fahmi/Downloads/Fahmi Learn/Blockchain/ScratchNFT/Belajar-NFT-Part-1/contracts/escrow/escrow.sol",
  "compiler": {
    "name": "solc",
    "version": "0.8.0+commit.c7dfd78e.Emscripten.clang"
  },
  "schemaVersion": "3.3.4",
  "updatedAt": "2021-04-15T08:22:50.097Z",
  "devdoc": {
    "kind": "dev",
    "methods": {},
    "version": 1
  },
  "userdoc": {
    "kind": "user",
    "methods": {},
    "version": 1
  }
}