{
  "contractName": "NFTokenEnumerable",
  "abi": [
    {
      "inputs": [],
      "stateMutability": "nonpayable",
      "type": "constructor"
    },
    {
      "anonymous": false,
      "inputs": [
        {
          "indexed": true,
          "internalType": "address",
          "name": "_owner",
          "type": "address"
        },
        {
          "indexed": true,
          "internalType": "address",
          "name": "_approved",
          "type": "address"
        },
        {
          "indexed": true,
          "internalType": "uint256",
          "name": "_tokenId",
          "type": "uint256"
        }
      ],
      "name": "Approval",
      "type": "event"
    },
    {
      "anonymous": false,
      "inputs": [
        {
          "indexed": true,
          "internalType": "address",
          "name": "_owner",
          "type": "address"
        },
        {
          "indexed": true,
          "internalType": "address",
          "name": "_operator",
          "type": "address"
        },
        {
          "indexed": false,
          "internalType": "bool",
          "name": "_approved",
          "type": "bool"
        }
      ],
      "name": "ApprovalForAll",
      "type": "event"
    },
    {
      "anonymous": false,
      "inputs": [
        {
          "indexed": true,
          "internalType": "address",
          "name": "_from",
          "type": "address"
        },
        {
          "indexed": true,
          "internalType": "address",
          "name": "_to",
          "type": "address"
        },
        {
          "indexed": true,
          "internalType": "uint256",
          "name": "_tokenId",
          "type": "uint256"
        }
      ],
      "name": "Transfer",
      "type": "event"
    },
    {
      "inputs": [
        {
          "internalType": "address",
          "name": "_approved",
          "type": "address"
        },
        {
          "internalType": "uint256",
          "name": "_tokenId",
          "type": "uint256"
        }
      ],
      "name": "approve",
      "outputs": [],
      "stateMutability": "nonpayable",
      "type": "function"
    },
    {
      "inputs": [
        {
          "internalType": "address",
          "name": "_owner",
          "type": "address"
        }
      ],
      "name": "balanceOf",
      "outputs": [
        {
          "internalType": "uint256",
          "name": "",
          "type": "uint256"
        }
      ],
      "stateMutability": "view",
      "type": "function"
    },
    {
      "inputs": [
        {
          "internalType": "uint256",
          "name": "_tokenId",
          "type": "uint256"
        }
      ],
      "name": "getApproved",
      "outputs": [
        {
          "internalType": "address",
          "name": "",
          "type": "address"
        }
      ],
      "stateMutability": "view",
      "type": "function"
    },
    {
      "inputs": [
        {
          "internalType": "address",
          "name": "_owner",
          "type": "address"
        },
        {
          "internalType": "address",
          "name": "_operator",
          "type": "address"
        }
      ],
      "name": "isApprovedForAll",
      "outputs": [
        {
          "internalType": "bool",
          "name": "",
          "type": "bool"
        }
      ],
      "stateMutability": "view",
      "type": "function"
    },
    {
      "inputs": [
        {
          "internalType": "uint256",
          "name": "_tokenId",
          "type": "uint256"
        }
      ],
      "name": "ownerOf",
      "outputs": [
        {
          "internalType": "address",
          "name": "_owner",
          "type": "address"
        }
      ],
      "stateMutability": "view",
      "type": "function"
    },
    {
      "inputs": [
        {
          "internalType": "address",
          "name": "_from",
          "type": "address"
        },
        {
          "internalType": "address",
          "name": "_to",
          "type": "address"
        },
        {
          "internalType": "uint256",
          "name": "_tokenId",
          "type": "uint256"
        }
      ],
      "name": "safeTransferFrom",
      "outputs": [],
      "stateMutability": "nonpayable",
      "type": "function"
    },
    {
      "inputs": [
        {
          "internalType": "address",
          "name": "_from",
          "type": "address"
        },
        {
          "internalType": "address",
          "name": "_to",
          "type": "address"
        },
        {
          "internalType": "uint256",
          "name": "_tokenId",
          "type": "uint256"
        },
        {
          "internalType": "bytes",
          "name": "_data",
          "type": "bytes"
        }
      ],
      "name": "safeTransferFrom",
      "outputs": [],
      "stateMutability": "nonpayable",
      "type": "function"
    },
    {
      "inputs": [
        {
          "internalType": "address",
          "name": "_operator",
          "type": "address"
        },
        {
          "internalType": "bool",
          "name": "_approved",
          "type": "bool"
        }
      ],
      "name": "setApprovalForAll",
      "outputs": [],
      "stateMutability": "nonpayable",
      "type": "function"
    },
    {
      "inputs": [
        {
          "internalType": "bytes4",
          "name": "_interfaceID",
          "type": "bytes4"
        }
      ],
      "name": "supportsInterface",
      "outputs": [
        {
          "internalType": "bool",
          "name": "",
          "type": "bool"
        }
      ],
      "stateMutability": "view",
      "type": "function"
    },
    {
      "inputs": [
        {
          "internalType": "address",
          "name": "_from",
          "type": "address"
        },
        {
          "internalType": "address",
          "name": "_to",
          "type": "address"
        },
        {
          "internalType": "uint256",
          "name": "_tokenId",
          "type": "uint256"
        }
      ],
      "name": "transferFrom",
      "outputs": [],
      "stateMutability": "nonpayable",
      "type": "function"
    },
    {
      "inputs": [],
      "name": "totalSupply",
      "outputs": [
        {
          "internalType": "uint256",
          "name": "",
          "type": "uint256"
        }
      ],
      "stateMutability": "view",
      "type": "function"
    },
    {
      "inputs": [
        {
          "internalType": "uint256",
          "name": "_index",
          "type": "uint256"
        }
      ],
      "name": "tokenByIndex",
      "outputs": [
        {
          "internalType": "uint256",
          "name": "",
          "type": "uint256"
        }
      ],
      "stateMutability": "view",
      "type": "function"
    },
    {
      "inputs": [
        {
          "internalType": "address",
          "name": "_owner",
          "type": "address"
        },
        {
          "internalType": "uint256",
          "name": "_index",
          "type": "uint256"
        }
      ],
      "name": "tokenOfOwnerByIndex",
      "outputs": [
        {
          "internalType": "uint256",
          "name": "",
          "type": "uint256"
        }
      ],
      "stateMutability": "view",
      "type": "function"
    }
  ],
  "bytecode": "0x608060405234801561001057600080fd5b5060016000806301ffc9a760e01b7bffffffffffffffffffffffffffffffffffffffffffffffffffffffff1916815260200190815260200160002060006101000a81548160ff02191690831515021790555060016000806380ac58cd60e01b7bffffffffffffffffffffffffffffffffffffffffffffffffffffffff1916815260200190815260200160002060006101000a81548160ff021916908315150217905550600160008063780e9d6360e01b7bffffffffffffffffffffffffffffffffffffffffffffffffffffffff1916815260200190815260200160002060006101000a81548160ff02191690831515021790555061255f806101136000396000f3fe608060405234801561001057600080fd5b50600436106100cf5760003560e01c806342842e0e1161008c57806370a082311161006657806370a0823114610236578063a22cb46514610266578063b88d4fde14610282578063e985e9c51461029e576100cf565b806342842e0e146101ba5780634f6ccce7146101d65780636352211e14610206576100cf565b806301ffc9a7146100d4578063081812fc14610104578063095ea7b31461013457806318160ddd1461015057806323b872dd1461016e5780632f745c591461018a575b600080fd5b6100ee60048036038101906100e991906121a1565b6102ce565b6040516100fb9190612322565b60405180910390f35b61011e600480360381019061011991906121f3565b610335565b60405161012b91906122bb565b60405180910390f35b61014e60048036038101906101499190612165565b610450565b005b610158610833565b604051610165919061235f565b60405180910390f35b6101886004803603810190610183919061205a565b610840565b005b6101a4600480360381019061019f9190612165565b610c92565b6040516101b1919061235f565b60405180910390f35b6101d460048036038101906101cf919061205a565b610ddb565b005b6101f060048036038101906101eb91906121f3565b610dfb565b6040516101fd919061235f565b60405180910390f35b610220600480360381019061021b91906121f3565b610ec9565b60405161022d91906122bb565b60405180910390f35b610250600480360381019061024b9190611ff5565b610faf565b60405161025d919061235f565b60405180910390f35b610280600480360381019061027b9190612129565b611069565b005b61029c600480360381019061029791906120a9565b611166565b005b6102b860048036038101906102b3919061201e565b6111bd565b6040516102c59190612322565b60405180910390f35b6000806000837bffffffffffffffffffffffffffffffffffffffffffffffffffffffff19167bffffffffffffffffffffffffffffffffffffffffffffffffffffffff1916815260200190815260200160002060009054906101000a900460ff169050919050565b600081600073ffffffffffffffffffffffffffffffffffffffff166001600083815260200190815260200160002060009054906101000a900473ffffffffffffffffffffffffffffffffffffffff1673ffffffffffffffffffffffffffffffffffffffff1614156040518060400160405280600681526020017f303033303032000000000000000000000000000000000000000000000000000081525090610413576040517f08c379a000000000000000000000000000000000000000000000000000000000815260040161040a919061233d565b60405180910390fd5b506002600084815260200190815260200160002060009054906101000a900473ffffffffffffffffffffffffffffffffffffffff16915050919050565b8060006001600083815260200190815260200160002060009054906101000a900473ffffffffffffffffffffffffffffffffffffffff1690503373ffffffffffffffffffffffffffffffffffffffff168173ffffffffffffffffffffffffffffffffffffffff1614806105495750600460008273ffffffffffffffffffffffffffffffffffffffff1673ffffffffffffffffffffffffffffffffffffffff16815260200190815260200160002060003373ffffffffffffffffffffffffffffffffffffffff1673ffffffffffffffffffffffffffffffffffffffff16815260200190815260200160002060009054906101000a900460ff165b6040518060400160405280600681526020017f3030333030330000000000000000000000000000000000000000000000000000815250906105c0576040517f08c379a00000000000000000000000000000000000000000000000000000000081526004016105b7919061233d565b60405180910390fd5b5082600073ffffffffffffffffffffffffffffffffffffffff166001600083815260200190815260200160002060009054906101000a900473ffffffffffffffffffffffffffffffffffffffff1673ffffffffffffffffffffffffffffffffffffffff1614156040518060400160405280600681526020017f30303330303200000000000000000000000000000000000000000000000000008152509061069d576040517f08c379a0000000000000000000000000000000000000000000000000000000008152600401610694919061233d565b60405180910390fd5b5060006001600086815260200190815260200160002060009054906101000a900473ffffffffffffffffffffffffffffffffffffffff1690508073ffffffffffffffffffffffffffffffffffffffff168673ffffffffffffffffffffffffffffffffffffffff1614156040518060400160405280600681526020017f30303330303800000000000000000000000000000000000000000000000000008152509061077d576040517f08c379a0000000000000000000000000000000000000000000000000000000008152600401610774919061233d565b60405180910390fd5b50856002600087815260200190815260200160002060006101000a81548173ffffffffffffffffffffffffffffffffffffffff021916908373ffffffffffffffffffffffffffffffffffffffff160217905550848673ffffffffffffffffffffffffffffffffffffffff168273ffffffffffffffffffffffffffffffffffffffff167f8c5be1e5ebec7d5bd14f71427d1e84f3dd0314c0f7b2291e5b200ac8c7c3b92560405160405180910390a4505050505050565b6000600580549050905090565b8060006001600083815260200190815260200160002060009054906101000a900473ffffffffffffffffffffffffffffffffffffffff1690503373ffffffffffffffffffffffffffffffffffffffff168173ffffffffffffffffffffffffffffffffffffffff16148061091157503373ffffffffffffffffffffffffffffffffffffffff166002600084815260200190815260200160002060009054906101000a900473ffffffffffffffffffffffffffffffffffffffff1673ffffffffffffffffffffffffffffffffffffffff16145b806109a25750600460008273ffffffffffffffffffffffffffffffffffffffff1673ffffffffffffffffffffffffffffffffffffffff16815260200190815260200160002060003373ffffffffffffffffffffffffffffffffffffffff1673ffffffffffffffffffffffffffffffffffffffff16815260200190815260200160002060009054906101000a900460ff165b6040518060400160405280600681526020017f303033303034000000000000000000000000000000000000000000000000000081525090610a19576040517f08c379a0000000000000000000000000000000000000000000000000000000008152600401610a10919061233d565b60405180910390fd5b5082600073ffffffffffffffffffffffffffffffffffffffff166001600083815260200190815260200160002060009054906101000a900473ffffffffffffffffffffffffffffffffffffffff1673ffffffffffffffffffffffffffffffffffffffff1614156040518060400160405280600681526020017f303033303032000000000000000000000000000000000000000000000000000081525090610af6576040517f08c379a0000000000000000000000000000000000000000000000000000000008152600401610aed919061233d565b60405180910390fd5b5060006001600086815260200190815260200160002060009054906101000a900473ffffffffffffffffffffffffffffffffffffffff1690508673ffffffffffffffffffffffffffffffffffffffff168173ffffffffffffffffffffffffffffffffffffffff16146040518060400160405280600681526020017f303033303037000000000000000000000000000000000000000000000000000081525090610bd5576040517f08c379a0000000000000000000000000000000000000000000000000000000008152600401610bcc919061233d565b60405180910390fd5b50600073ffffffffffffffffffffffffffffffffffffffff168673ffffffffffffffffffffffffffffffffffffffff1614156040518060400160405280600681526020017f303033303031000000000000000000000000000000000000000000000000000081525090610c7e576040517f08c379a0000000000000000000000000000000000000000000000000000000008152600401610c75919061233d565b60405180910390fd5b50610c898686611251565b50505050505050565b6000600760008473ffffffffffffffffffffffffffffffffffffffff1673ffffffffffffffffffffffffffffffffffffffff1681526020019081526020016000208054905082106040518060400160405280600681526020017f303035303037000000000000000000000000000000000000000000000000000081525090610d50576040517f08c379a0000000000000000000000000000000000000000000000000000000008152600401610d47919061233d565b60405180910390fd5b50600760008473ffffffffffffffffffffffffffffffffffffffff1673ffffffffffffffffffffffffffffffffffffffff1681526020019081526020016000208281548110610dc8577f4e487b7100000000000000000000000000000000000000000000000000000000600052603260045260246000fd5b9060005260206000200154905092915050565b610df683838360405180602001604052806000815250611306565b505050565b600060058054905082106040518060400160405280600681526020017f303035303037000000000000000000000000000000000000000000000000000081525090610e7c576040517f08c379a0000000000000000000000000000000000000000000000000000000008152600401610e73919061233d565b60405180910390fd5b5060058281548110610eb7577f4e487b7100000000000000000000000000000000000000000000000000000000600052603260045260246000fd5b90600052602060002001549050919050565b60006001600083815260200190815260200160002060009054906101000a900473ffffffffffffffffffffffffffffffffffffffff169050600073ffffffffffffffffffffffffffffffffffffffff168173ffffffffffffffffffffffffffffffffffffffff1614156040518060400160405280600681526020017f303033303032000000000000000000000000000000000000000000000000000081525090610fa9576040517f08c379a0000000000000000000000000000000000000000000000000000000008152600401610fa0919061233d565b60405180910390fd5b50919050565b60008073ffffffffffffffffffffffffffffffffffffffff168273ffffffffffffffffffffffffffffffffffffffff1614156040518060400160405280600681526020017f303033303031000000000000000000000000000000000000000000000000000081525090611058576040517f08c379a000000000000000000000000000000000000000000000000000000000815260040161104f919061233d565b60405180910390fd5b50611062826118d4565b9050919050565b80600460003373ffffffffffffffffffffffffffffffffffffffff1673ffffffffffffffffffffffffffffffffffffffff16815260200190815260200160002060008473ffffffffffffffffffffffffffffffffffffffff1673ffffffffffffffffffffffffffffffffffffffff16815260200190815260200160002060006101000a81548160ff0219169083151502179055508173ffffffffffffffffffffffffffffffffffffffff163373ffffffffffffffffffffffffffffffffffffffff167f17307eab39ab6107e8899845ad3d59bd9653f200f220920489ca2b5937696c318360405161115a9190612322565b60405180910390a35050565b6111b685858585858080601f016020809104026020016040519081016040528093929190818152602001838380828437600081840152601f19601f82011690508083019250505050505050611306565b5050505050565b6000600460008473ffffffffffffffffffffffffffffffffffffffff1673ffffffffffffffffffffffffffffffffffffffff16815260200190815260200160002060008373ffffffffffffffffffffffffffffffffffffffff1673ffffffffffffffffffffffffffffffffffffffff16815260200190815260200160002060009054906101000a900460ff16905092915050565b60006001600083815260200190815260200160002060009054906101000a900473ffffffffffffffffffffffffffffffffffffffff16905061129282611920565b61129c81836119c1565b6112a68383611cfa565b818373ffffffffffffffffffffffffffffffffffffffff168273ffffffffffffffffffffffffffffffffffffffff167fddf252ad1be2c89b69c2b068fc378daa952ba7f163c4a11628f55a4df523b3ef60405160405180910390a4505050565b8160006001600083815260200190815260200160002060009054906101000a900473ffffffffffffffffffffffffffffffffffffffff1690503373ffffffffffffffffffffffffffffffffffffffff168173ffffffffffffffffffffffffffffffffffffffff1614806113d757503373ffffffffffffffffffffffffffffffffffffffff166002600084815260200190815260200160002060009054906101000a900473ffffffffffffffffffffffffffffffffffffffff1673ffffffffffffffffffffffffffffffffffffffff16145b806114685750600460008273ffffffffffffffffffffffffffffffffffffffff1673ffffffffffffffffffffffffffffffffffffffff16815260200190815260200160002060003373ffffffffffffffffffffffffffffffffffffffff1673ffffffffffffffffffffffffffffffffffffffff16815260200190815260200160002060009054906101000a900460ff165b6040518060400160405280600681526020017f3030333030340000000000000000000000000000000000000000000000000000815250906114df576040517f08c379a00000000000000000000000000000000000000000000000000000000081526004016114d6919061233d565b60405180910390fd5b5083600073ffffffffffffffffffffffffffffffffffffffff166001600083815260200190815260200160002060009054906101000a900473ffffffffffffffffffffffffffffffffffffffff1673ffffffffffffffffffffffffffffffffffffffff1614156040518060400160405280600681526020017f3030333030320000000000000000000000000000000000000000000000000000815250906115bc576040517f08c379a00000000000000000000000000000000000000000000000000000000081526004016115b3919061233d565b60405180910390fd5b5060006001600087815260200190815260200160002060009054906101000a900473ffffffffffffffffffffffffffffffffffffffff1690508773ffffffffffffffffffffffffffffffffffffffff168173ffffffffffffffffffffffffffffffffffffffff16146040518060400160405280600681526020017f30303330303700000000000000000000000000000000000000000000000000008152509061169b576040517f08c379a0000000000000000000000000000000000000000000000000000000008152600401611692919061233d565b60405180910390fd5b50600073ffffffffffffffffffffffffffffffffffffffff168773ffffffffffffffffffffffffffffffffffffffff1614156040518060400160405280600681526020017f303033303031000000000000000000000000000000000000000000000000000081525090611744576040517f08c379a000000000000000000000000000000000000000000000000000000000815260040161173b919061233d565b60405180910390fd5b5061174f8787611251565b61176e8773ffffffffffffffffffffffffffffffffffffffff16611ef7565b156118ca5760008773ffffffffffffffffffffffffffffffffffffffff1663150b7a02338b8a8a6040518563ffffffff1660e01b81526004016117b494939291906122d6565b602060405180830381600087803b1580156117ce57600080fd5b505af11580156117e2573d6000803e3d6000fd5b505050506040513d601f19601f8201168201806040525081019061180691906121ca565b905063150b7a0260e01b7bffffffffffffffffffffffffffffffffffffffffffffffffffffffff1916817bffffffffffffffffffffffffffffffffffffffffffffffffffffffff1916146040518060400160405280600681526020017f3030333030350000000000000000000000000000000000000000000000000000815250906118c7576040517f08c379a00000000000000000000000000000000000000000000000000000000081526004016118be919061233d565b60405180910390fd5b50505b5050505050505050565b6000600760008373ffffffffffffffffffffffffffffffffffffffff1673ffffffffffffffffffffffffffffffffffffffff168152602001908152602001600020805490509050919050565b600073ffffffffffffffffffffffffffffffffffffffff166002600083815260200190815260200160002060009054906101000a900473ffffffffffffffffffffffffffffffffffffffff1673ffffffffffffffffffffffffffffffffffffffff16146119be576002600082815260200190815260200160002060006101000a81549073ffffffffffffffffffffffffffffffffffffffff02191690555b50565b8173ffffffffffffffffffffffffffffffffffffffff166001600083815260200190815260200160002060009054906101000a900473ffffffffffffffffffffffffffffffffffffffff1673ffffffffffffffffffffffffffffffffffffffff16146040518060400160405280600681526020017f303033303037000000000000000000000000000000000000000000000000000081525090611a9a576040517f08c379a0000000000000000000000000000000000000000000000000000000008152600401611a91919061233d565b60405180910390fd5b506001600082815260200190815260200160002060006101000a81549073ffffffffffffffffffffffffffffffffffffffff021916905560006008600083815260200190815260200160002054905060006001600760008673ffffffffffffffffffffffffffffffffffffffff1673ffffffffffffffffffffffffffffffffffffffff16815260200190815260200160002080549050611b3a91906123b2565b9050818114611c69576000600760008673ffffffffffffffffffffffffffffffffffffffff1673ffffffffffffffffffffffffffffffffffffffff1681526020019081526020016000208281548110611bbc577f4e487b7100000000000000000000000000000000000000000000000000000000600052603260045260246000fd5b9060005260206000200154905080600760008773ffffffffffffffffffffffffffffffffffffffff1673ffffffffffffffffffffffffffffffffffffffff1681526020019081526020016000208481548110611c41577f4e487b7100000000000000000000000000000000000000000000000000000000600052603260045260246000fd5b9060005260206000200181905550826008600083815260200190815260200160002081905550505b600760008573ffffffffffffffffffffffffffffffffffffffff1673ffffffffffffffffffffffffffffffffffffffff168152602001908152602001600020805480611cde577f4e487b7100000000000000000000000000000000000000000000000000000000600052603160045260246000fd5b6001900381819060005260206000200160009055905550505050565b600073ffffffffffffffffffffffffffffffffffffffff166001600083815260200190815260200160002060009054906101000a900473ffffffffffffffffffffffffffffffffffffffff1673ffffffffffffffffffffffffffffffffffffffff16146040518060400160405280600681526020017f303033303036000000000000000000000000000000000000000000000000000081525090611dd4576040517f08c379a0000000000000000000000000000000000000000000000000000000008152600401611dcb919061233d565b60405180910390fd5b50816001600083815260200190815260200160002060006101000a81548173ffffffffffffffffffffffffffffffffffffffff021916908373ffffffffffffffffffffffffffffffffffffffff160217905550600760008373ffffffffffffffffffffffffffffffffffffffff1673ffffffffffffffffffffffffffffffffffffffff1681526020019081526020016000208190806001815401808255809150506001900390600052602060002001600090919091909150556001600760008473ffffffffffffffffffffffffffffffffffffffff1673ffffffffffffffffffffffffffffffffffffffff16815260200190815260200160002080549050611edc91906123b2565b60086000838152602001908152602001600020819055505050565b60008060007fc5d2460186f7233c927e7db2dcc703c0e500b653ca82273b7bfad8045d85a47060001b9050833f91506000801b8214158015611f395750808214155b92505050919050565b600081359050611f51816124cd565b92915050565b600081359050611f66816124e4565b92915050565b600081359050611f7b816124fb565b92915050565b600081519050611f90816124fb565b92915050565b60008083601f840112611fa857600080fd5b8235905067ffffffffffffffff811115611fc157600080fd5b602083019150836001820283011115611fd957600080fd5b9250929050565b600081359050611fef81612512565b92915050565b60006020828403121561200757600080fd5b600061201584828501611f42565b91505092915050565b6000806040838503121561203157600080fd5b600061203f85828601611f42565b925050602061205085828601611f42565b9150509250929050565b60008060006060848603121561206f57600080fd5b600061207d86828701611f42565b935050602061208e86828701611f42565b925050604061209f86828701611fe0565b9150509250925092565b6000806000806000608086880312156120c157600080fd5b60006120cf88828901611f42565b95505060206120e088828901611f42565b94505060406120f188828901611fe0565b935050606086013567ffffffffffffffff81111561210e57600080fd5b61211a88828901611f96565b92509250509295509295909350565b6000806040838503121561213c57600080fd5b600061214a85828601611f42565b925050602061215b85828601611f57565b9150509250929050565b6000806040838503121561217857600080fd5b600061218685828601611f42565b925050602061219785828601611fe0565b9150509250929050565b6000602082840312156121b357600080fd5b60006121c184828501611f6c565b91505092915050565b6000602082840312156121dc57600080fd5b60006121ea84828501611f81565b91505092915050565b60006020828403121561220557600080fd5b600061221384828501611fe0565b91505092915050565b612225816123e6565b82525050565b612234816123f8565b82525050565b60006122458261237a565b61224f8185612390565b935061225f81856020860161245a565b612268816124bc565b840191505092915050565b600061227e82612385565b61228881856123a1565b935061229881856020860161245a565b6122a1816124bc565b840191505092915050565b6122b581612450565b82525050565b60006020820190506122d0600083018461221c565b92915050565b60006080820190506122eb600083018761221c565b6122f8602083018661221c565b61230560408301856122ac565b8181036060830152612317818461223a565b905095945050505050565b6000602082019050612337600083018461222b565b92915050565b600060208201905081810360008301526123578184612273565b905092915050565b600060208201905061237460008301846122ac565b92915050565b600081519050919050565b600081519050919050565b600082825260208201905092915050565b600082825260208201905092915050565b60006123bd82612450565b91506123c883612450565b9250828210156123db576123da61248d565b5b828203905092915050565b60006123f182612430565b9050919050565b60008115159050919050565b60007fffffffff0000000000000000000000000000000000000000000000000000000082169050919050565b600073ffffffffffffffffffffffffffffffffffffffff82169050919050565b6000819050919050565b60005b8381101561247857808201518184015260208101905061245d565b83811115612487576000848401525b50505050565b7f4e487b7100000000000000000000000000000000000000000000000000000000600052601160045260246000fd5b6000601f19601f8301169050919050565b6124d6816123e6565b81146124e157600080fd5b50565b6124ed816123f8565b81146124f857600080fd5b50565b61250481612404565b811461250f57600080fd5b50565b61251b81612450565b811461252657600080fd5b5056fea2646970667358221220e938e4b7ac9c04e4009e05910b74939620be7457b205f9fcbe48a8dfaef9680164736f6c63430008000033",
  "immutableReferences": {},
  "source": "// SPDX-License-Identifier: MIT\npragma solidity >=0.4.22 <0.9.0;\n\nimport \"./nf-token.sol\";\nimport \"./erc721-enumerable.sol\";\n\n/**\n * @dev Optional enumeration implementation for ERC-721 non-fungible token standard.\n */\ncontract NFTokenEnumerable is NFToken, ERC721Enumerable {\n    /**\n     * @dev List of revert message codes. Implementing dApp should handle showing the correct message.\n     * Based on 0xcert framework error codes.\n     */\n    string constant INVALID_INDEX = \"005007\";\n\n    /**\n     * @dev Array of all NFT IDs.\n     */\n    uint256[] internal tokens;\n\n    /**\n     * @dev Mapping from token ID to its index in global tokens array.\n     */\n    mapping(uint256 => uint256) internal idToIndex;\n\n    /**\n     * @dev Mapping from owner to list of owned NFT IDs.\n     */\n    mapping(address => uint256[]) internal ownerToIds;\n\n    /**\n     * @dev Mapping from NFT ID to its index in the owner tokens list.\n     */\n    mapping(uint256 => uint256) internal idToOwnerIndex;\n\n    /**\n     * @dev Contract constructor.\n     */\n    constructor() {\n        supportedInterfaces[0x780e9d63] = true; // ERC721Enumerable\n    }\n\n    /**\n     * @dev Returns the count of all existing NFTokens.\n     * @return Total supply of NFTs.\n     */\n    function totalSupply() external view override returns (uint256) {\n        return tokens.length;\n    }\n\n    /**\n     * @dev Returns NFT ID by its index.\n     * @param _index A counter less than `totalSupply()`.\n     * @return Token id.\n     */\n    function tokenByIndex(uint256 _index)\n        external\n        view\n        override\n        returns (uint256)\n    {\n        require(_index < tokens.length, INVALID_INDEX);\n        return tokens[_index];\n    }\n\n    /**\n     * @dev returns the n-th NFT ID from a list of owner's tokens.\n     * @param _owner Token owner's address.\n     * @param _index Index number representing n-th token in owner's list of tokens.\n     * @return Token id.\n     */\n    function tokenOfOwnerByIndex(address _owner, uint256 _index)\n        external\n        view\n        override\n        returns (uint256)\n    {\n        require(_index < ownerToIds[_owner].length, INVALID_INDEX);\n        return ownerToIds[_owner][_index];\n    }\n\n    /**\n     * @dev Mints a new NFT.\n     * @notice This is an internal function which should be called from user-implemented external\n     * mint function. Its purpose is to show and properly initialize data structures when using this\n     * implementation.\n     * @param _to The address that will own the minted NFT.\n     * @param _tokenId of the NFT to be minted by the msg.sender.\n     */\n    function _mint(address _to, uint256 _tokenId) internal virtual override {\n        super._mint(_to, _tokenId);\n        tokens.push(_tokenId);\n        idToIndex[_tokenId] = tokens.length - 1;\n    }\n\n    /**\n     * @dev Burns a NFT.\n     * @notice This is an internal function which should be called from user-implemented external\n     * burn function. Its purpose is to show and properly initialize data structures when using this\n     * implementation. Also, note that this burn implementation allows the minter to re-mint a burned\n     * NFT.\n     * @param _tokenId ID of the NFT to be burned.\n     */\n    function _burn(uint256 _tokenId) internal virtual override {\n        super._burn(_tokenId);\n\n        uint256 tokenIndex = idToIndex[_tokenId];\n        uint256 lastTokenIndex = tokens.length - 1;\n        uint256 lastToken = tokens[lastTokenIndex];\n\n        tokens[tokenIndex] = lastToken;\n\n        tokens.pop();\n        // This wastes gas if you are burning the last token but saves a little gas if you are not.\n        idToIndex[lastToken] = tokenIndex;\n        idToIndex[_tokenId] = 0;\n    }\n\n    /**\n     * @dev Removes a NFT from an address.\n     * @notice Use and override this function with caution. Wrong usage can have serious consequences.\n     * @param _from Address from wich we want to remove the NFT.\n     * @param _tokenId Which NFT we want to remove.\n     */\n    function _removeNFToken(address _from, uint256 _tokenId)\n        internal\n        virtual\n        override\n    {\n        require(idToOwner[_tokenId] == _from, NOT_OWNER);\n        delete idToOwner[_tokenId];\n\n        uint256 tokenToRemoveIndex = idToOwnerIndex[_tokenId];\n        uint256 lastTokenIndex = ownerToIds[_from].length - 1;\n\n        if (lastTokenIndex != tokenToRemoveIndex) {\n            uint256 lastToken = ownerToIds[_from][lastTokenIndex];\n            ownerToIds[_from][tokenToRemoveIndex] = lastToken;\n            idToOwnerIndex[lastToken] = tokenToRemoveIndex;\n        }\n\n        ownerToIds[_from].pop();\n    }\n\n    /**\n     * @dev Assignes a new NFT to an address.\n     * @notice Use and override this function with caution. Wrong usage can have serious consequences.\n     * @param _to Address to wich we want to add the NFT.\n     * @param _tokenId Which NFT we want to add.\n     */\n    function _addNFToken(address _to, uint256 _tokenId)\n        internal\n        virtual\n        override\n    {\n        require(idToOwner[_tokenId] == address(0), NFT_ALREADY_EXISTS);\n        idToOwner[_tokenId] = _to;\n\n        ownerToIds[_to].push(_tokenId);\n        idToOwnerIndex[_tokenId] = ownerToIds[_to].length - 1;\n    }\n\n    /**\n     *@dev Helper function that gets NFT count of owner. This is needed for overriding in enumerable\n     * extension to remove double storage(gas optimization) of owner nft count.\n     * @param _owner Address for whom to query the count.\n     * @return Number of _owner NFTs.\n     */\n    function _getOwnerNFTCount(address _owner)\n        internal\n        view\n        virtual\n        override\n        returns (uint256)\n    {\n        return ownerToIds[_owner].length;\n    }\n}\n",
  "sourcePath": "/Users/fahmi/Downloads/Fahmi Learn/Blockchain/ScratchNFT/Belajar-NFT-Part-1/contracts/tokens/nf-token-enumerable.sol",
  "compiler": {
    "name": "solc",
    "version": "0.8.0+commit.c7dfd78e.Emscripten.clang"
  },
  "schemaVersion": "3.3.4",
  "updatedAt": "2021-03-09T09:34:38.050Z",
  "devdoc": {
    "details": "Optional enumeration implementation for ERC-721 non-fungible token standard.",
    "kind": "dev",
    "methods": {
      "approve(address,uint256)": {
        "details": "Set or reaffirm the approved address for an NFT. This function can be changed to payable.",
        "params": {
          "_approved": "Address to be approved for the given NFT ID.",
          "_tokenId": "ID of the token to be approved."
        }
      },
      "balanceOf(address)": {
        "details": "Returns the number of NFTs owned by `_owner`. NFTs assigned to the zero address are considered invalid, and this function throws for queries about the zero address.",
        "params": {
          "_owner": "Address for whom to query the balance."
        },
        "returns": {
          "_0": "Balance of _owner."
        }
      },
      "constructor": {
        "details": "Contract constructor."
      },
      "getApproved(uint256)": {
        "details": "Get the approved address for a single NFT.",
        "params": {
          "_tokenId": "ID of the NFT to query the approval of."
        },
        "returns": {
          "_0": "Address that _tokenId is approved for."
        }
      },
      "isApprovedForAll(address,address)": {
        "details": "Checks if `_operator` is an approved operator for `_owner`.",
        "params": {
          "_operator": "The address that acts on behalf of the owner.",
          "_owner": "The address that owns the NFTs."
        },
        "returns": {
          "_0": "True if approved for all, false otherwise."
        }
      },
      "ownerOf(uint256)": {
        "details": "Returns the address of the owner of the NFT. NFTs assigned to zero address are considered invalid, and queries about them do throw.",
        "params": {
          "_tokenId": "The identifier for an NFT."
        },
        "returns": {
          "_owner": "Address of _tokenId owner."
        }
      },
      "safeTransferFrom(address,address,uint256)": {
        "details": "Transfers the ownership of an NFT from one address to another address. This function can be changed to payable.",
        "params": {
          "_from": "The current owner of the NFT.",
          "_to": "The new owner.",
          "_tokenId": "The NFT to transfer."
        }
      },
      "safeTransferFrom(address,address,uint256,bytes)": {
        "details": "Transfers the ownership of an NFT from one address to another address. This function can be changed to payable.",
        "params": {
          "_data": "Additional data with no specified format, sent in call to `_to`.",
          "_from": "The current owner of the NFT.",
          "_to": "The new owner.",
          "_tokenId": "The NFT to transfer."
        }
      },
      "setApprovalForAll(address,bool)": {
        "details": "Enables or disables approval for a third party (\"operator\") to manage all of `msg.sender`'s assets. It also emits the ApprovalForAll event.",
        "params": {
          "_approved": "True if the operators is approved, false to revoke approval.",
          "_operator": "Address to add to the set of authorized operators."
        }
      },
      "supportsInterface(bytes4)": {
        "details": "Function to check which interfaces are suported by this contract.",
        "params": {
          "_interfaceID": "Id of the interface."
        },
        "returns": {
          "_0": "True if _interfaceID is supported, false otherwise."
        }
      },
      "tokenByIndex(uint256)": {
        "details": "Returns NFT ID by its index.",
        "params": {
          "_index": "A counter less than `totalSupply()`."
        },
        "returns": {
          "_0": "Token id."
        }
      },
      "tokenOfOwnerByIndex(address,uint256)": {
        "details": "returns the n-th NFT ID from a list of owner's tokens.",
        "params": {
          "_index": "Index number representing n-th token in owner's list of tokens.",
          "_owner": "Token owner's address."
        },
        "returns": {
          "_0": "Token id."
        }
      },
      "totalSupply()": {
        "details": "Returns the count of all existing NFTokens.",
        "returns": {
          "_0": "Total supply of NFTs."
        }
      },
      "transferFrom(address,address,uint256)": {
        "details": "Throws unless `msg.sender` is the current owner, an authorized operator, or the approved address for this NFT. Throws if `_from` is not the current owner. Throws if `_to` is the zero address. Throws if `_tokenId` is not a valid NFT. This function can be changed to payable.",
        "params": {
          "_from": "The current owner of the NFT.",
          "_to": "The new owner.",
          "_tokenId": "The NFT to transfer."
        }
      }
    },
    "stateVariables": {
      "INVALID_INDEX": {
        "details": "List of revert message codes. Implementing dApp should handle showing the correct message. Based on 0xcert framework error codes."
      },
      "idToIndex": {
        "details": "Mapping from token ID to its index in global tokens array."
      },
      "idToOwnerIndex": {
        "details": "Mapping from NFT ID to its index in the owner tokens list."
      },
      "ownerToIds": {
        "details": "Mapping from owner to list of owned NFT IDs."
      },
      "tokens": {
        "details": "Array of all NFT IDs."
      }
    },
    "version": 1
  },
  "userdoc": {
    "kind": "user",
    "methods": {
      "approve(address,uint256)": {
        "notice": "The zero address indicates there is no approved address. Throws unless `msg.sender` is the current NFT owner, or an authorized operator of the current owner."
      },
      "getApproved(uint256)": {
        "notice": "Throws if `_tokenId` is not a valid NFT."
      },
      "safeTransferFrom(address,address,uint256)": {
        "notice": "This works identically to the other function with an extra data parameter, except this function just sets data to \"\""
      },
      "safeTransferFrom(address,address,uint256,bytes)": {
        "notice": "Throws unless `msg.sender` is the current owner, an authorized operator, or the approved address for this NFT. Throws if `_from` is not the current owner. Throws if `_to` is the zero address. Throws if `_tokenId` is not a valid NFT. When transfer is complete, this function checks if `_to` is a smart contract (code size > 0). If so, it calls `onERC721Received` on `_to` and throws if the return value is not `bytes4(keccak256(\"onERC721Received(address,uint256,bytes)\"))`."
      },
      "setApprovalForAll(address,bool)": {
        "notice": "This works even if sender doesn't own any tokens at the time."
      },
      "transferFrom(address,address,uint256)": {
        "notice": "The caller is responsible to confirm that `_to` is capable of receiving NFTs or else they maybe be permanently lost."
      }
    },
    "version": 1
  }
}