{
  "contractName": "SignatureVerifier",
  "abi": [
    {
      "anonymous": false,
      "inputs": [
        {
          "indexed": false,
          "internalType": "bytes32",
          "name": "hash",
          "type": "bytes32"
        },
        {
          "indexed": false,
          "internalType": "string",
          "name": "description",
          "type": "string"
        },
        {
          "indexed": false,
          "internalType": "address",
          "name": "signer",
          "type": "address"
        }
      ],
      "name": "Registerd",
      "type": "event"
    },
    {
      "inputs": [
        {
          "internalType": "bytes32",
          "name": "hash",
          "type": "bytes32"
        },
        {
          "internalType": "string",
          "name": "description",
          "type": "string"
        },
        {
          "internalType": "address",
          "name": "signer",
          "type": "address"
        },
        {
          "internalType": "uint8",
          "name": "v",
          "type": "uint8"
        },
        {
          "internalType": "bytes32",
          "name": "r",
          "type": "bytes32"
        },
        {
          "internalType": "bytes32",
          "name": "s",
          "type": "bytes32"
        }
      ],
      "name": "registerOnBehalfOf",
      "outputs": [],
      "stateMutability": "nonpayable",
      "type": "function"
    },
    {
      "inputs": [
        {
          "internalType": "bytes32",
          "name": "hash",
          "type": "bytes32"
        },
        {
          "internalType": "string",
          "name": "description",
          "type": "string"
        },
        {
          "internalType": "address",
          "name": "signer",
          "type": "address"
        }
      ],
      "name": "_register",
      "outputs": [],
      "stateMutability": "nonpayable",
      "type": "function"
    },
    {
      "inputs": [
        {
          "internalType": "address",
          "name": "_to",
          "type": "address"
        },
        {
          "internalType": "uint256",
          "name": "_amount",
          "type": "uint256"
        },
        {
          "internalType": "string",
          "name": "_message",
          "type": "string"
        },
        {
          "internalType": "uint256",
          "name": "_nonce",
          "type": "uint256"
        }
      ],
      "name": "getMessageHash",
      "outputs": [
        {
          "internalType": "bytes32",
          "name": "",
          "type": "bytes32"
        }
      ],
      "stateMutability": "pure",
      "type": "function",
      "constant": true
    },
    {
      "inputs": [
        {
          "internalType": "bytes32",
          "name": "_messageHash",
          "type": "bytes32"
        }
      ],
      "name": "getEthSignedMessageHash",
      "outputs": [
        {
          "internalType": "bytes32",
          "name": "",
          "type": "bytes32"
        }
      ],
      "stateMutability": "pure",
      "type": "function",
      "constant": true
    },
    {
      "inputs": [
        {
          "internalType": "address",
          "name": "_signer",
          "type": "address"
        },
        {
          "internalType": "address",
          "name": "_to",
          "type": "address"
        },
        {
          "internalType": "uint256",
          "name": "_amount",
          "type": "uint256"
        },
        {
          "internalType": "string",
          "name": "_message",
          "type": "string"
        },
        {
          "internalType": "uint256",
          "name": "_nonce",
          "type": "uint256"
        },
        {
          "internalType": "bytes",
          "name": "signature",
          "type": "bytes"
        }
      ],
      "name": "verify",
      "outputs": [
        {
          "internalType": "bool",
          "name": "",
          "type": "bool"
        }
      ],
      "stateMutability": "pure",
      "type": "function",
      "constant": true
    },
    {
      "inputs": [
        {
          "internalType": "bytes32",
          "name": "_ethSignedMessageHash",
          "type": "bytes32"
        },
        {
          "internalType": "bytes",
          "name": "_signature",
          "type": "bytes"
        }
      ],
      "name": "recoverSigner",
      "outputs": [
        {
          "internalType": "address",
          "name": "",
          "type": "address"
        }
      ],
      "stateMutability": "pure",
      "type": "function",
      "constant": true
    },
    {
      "inputs": [
        {
          "internalType": "bytes",
          "name": "sig",
          "type": "bytes"
        }
      ],
      "name": "splitSignature",
      "outputs": [
        {
          "internalType": "bytes32",
          "name": "r",
          "type": "bytes32"
        },
        {
          "internalType": "bytes32",
          "name": "s",
          "type": "bytes32"
        },
        {
          "internalType": "uint8",
          "name": "v",
          "type": "uint8"
        }
      ],
      "stateMutability": "pure",
      "type": "function",
      "constant": true
    }
  ],
  "bytecode": "0x608060405234801561001057600080fd5b50610e4d806100206000396000f3fe608060405234801561001057600080fd5b506004361061007d5760003560e01c8063a35f8a401161005b578063a35f8a40146100ea578063a7bb58031461011a578063abe5026a1461014c578063fa5408011461017c5761007d565b80630d4e910b146100825780636e87fc341461009e57806397aba7f9146100ba575b600080fd5b61009c600480360381019061009791906107c5565b6101ac565b005b6100b860048036038101906100b3919061075e565b6102a5565b005b6100d460048036038101906100cf919061070a565b6102e5565b6040516100e19190610a82565b60405180910390f35b61010460048036038101906100ff9190610666565b610354565b6040516101119190610ab8565b60405180910390f35b610134600480360381019061012f9190610866565b61038d565b60405161014393929190610ad3565b60405180910390f35b610166600480360381019061016191906105ad565b6103f5565b6040516101739190610a9d565b60405180910390f35b610196600480360381019061019191906106e1565b610459565b6040516101a39190610ab8565b60405180910390f35b600086866040516020016101c1929190610b0a565b6040516020818303038152906040528051906020012090506000816040516020016101ec9190610a5c565b6040516020818303038152906040528051906020012090506000600182878787604051600081526020016040526040516102299493929190610b78565b6020604051602081039080840390855afa15801561024b573d6000803e3d6000fd5b5050506020604051035190508073ffffffffffffffffffffffffffffffffffffffff168773ffffffffffffffffffffffffffffffffffffffff161461028f57600080fd5b61029a8989836102a5565b505050505050505050565b7fd33d0562157a60742332e64b44a9829c8a0bf0d9739cf23d6bb4dbd5057984658383836040516102d893929190610b3a565b60405180910390a1505050565b6000806000806102f48561038d565b9250925092506001868285856040516000815260200160405260405161031d9493929190610b78565b6020604051602081039080840390855afa15801561033f573d6000803e3d6000fd5b50505060206040510351935050505092915050565b60008484848460405160200161036d9493929190610a12565b604051602081830303815290604052805190602001209050949350505050565b600080600060418451146103d6576040517f08c379a00000000000000000000000000000000000000000000000000000000081526004016103cd90610bbd565b60405180910390fd5b6020840151925060408401519150606084015160001a90509193909250565b60008061040487878787610354565b9050600061041182610459565b90508873ffffffffffffffffffffffffffffffffffffffff1661043482866102e5565b73ffffffffffffffffffffffffffffffffffffffff1614925050509695505050505050565b60008160405160200161046c9190610a5c565b604051602081830303815290604052805190602001209050919050565b600061049c61049784610c0e565b610bdd565b9050828152602081018484840111156104b457600080fd5b6104bf848285610cf4565b509392505050565b60006104da6104d584610c3e565b610bdd565b9050828152602081018484840111156104f257600080fd5b6104fd848285610cf4565b509392505050565b60008135905061051481610dbb565b92915050565b60008135905061052981610dd2565b92915050565b600082601f83011261054057600080fd5b8135610550848260208601610489565b91505092915050565b600082601f83011261056a57600080fd5b813561057a8482602086016104c7565b91505092915050565b60008135905061059281610de9565b92915050565b6000813590506105a781610e00565b92915050565b60008060008060008060c087890312156105c657600080fd5b60006105d489828a01610505565b96505060206105e589828a01610505565b95505060406105f689828a01610583565b945050606087013567ffffffffffffffff81111561061357600080fd5b61061f89828a01610559565b935050608061063089828a01610583565b92505060a087013567ffffffffffffffff81111561064d57600080fd5b61065989828a0161052f565b9150509295509295509295565b6000806000806080858703121561067c57600080fd5b600061068a87828801610505565b945050602061069b87828801610583565b935050604085013567ffffffffffffffff8111156106b857600080fd5b6106c487828801610559565b92505060606106d587828801610583565b91505092959194509250565b6000602082840312156106f357600080fd5b60006107018482850161051a565b91505092915050565b6000806040838503121561071d57600080fd5b600061072b8582860161051a565b925050602083013567ffffffffffffffff81111561074857600080fd5b6107548582860161052f565b9150509250929050565b60008060006060848603121561077357600080fd5b60006107818682870161051a565b935050602084013567ffffffffffffffff81111561079e57600080fd5b6107aa86828701610559565b92505060406107bb86828701610505565b9150509250925092565b60008060008060008060c087890312156107de57600080fd5b60006107ec89828a0161051a565b965050602087013567ffffffffffffffff81111561080957600080fd5b61081589828a01610559565b955050604061082689828a01610505565b945050606061083789828a01610598565b935050608061084889828a0161051a565b92505060a061085989828a0161051a565b9150509295509295509295565b60006020828403121561087857600080fd5b600082013567ffffffffffffffff81111561089257600080fd5b61089e8482850161052f565b91505092915050565b6108b081610c95565b82525050565b6108c76108c282610c95565b610d36565b82525050565b6108d681610ca7565b82525050565b6108e581610cb3565b82525050565b6108fc6108f782610cb3565b610d48565b82525050565b600061090d82610c6e565b6109178185610c79565b9350610927818560208601610d03565b61093081610d9d565b840191505092915050565b600061094682610c6e565b6109508185610c8a565b9350610960818560208601610d03565b80840191505092915050565b6000610979601c83610c8a565b91507f19457468657265756d205369676e6564204d6573736167653a0a3332000000006000830152601c82019050919050565b60006109b9601883610c79565b91507f696e76616c6964207369676e6174757265206c656e67746800000000000000006000830152602082019050919050565b6109fd6109f882610cdd565b610d64565b82525050565b610a0c81610ce7565b82525050565b6000610a1e82876108b6565b601482019150610a2e82866109ec565b602082019150610a3e828561093b565b9150610a4a82846109ec565b60208201915081905095945050505050565b6000610a678261096c565b9150610a7382846108eb565b60208201915081905092915050565b6000602082019050610a9760008301846108a7565b92915050565b6000602082019050610ab260008301846108cd565b92915050565b6000602082019050610acd60008301846108dc565b92915050565b6000606082019050610ae860008301866108dc565b610af560208301856108dc565b610b026040830184610a03565b949350505050565b6000604082019050610b1f60008301856108dc565b8181036020830152610b318184610902565b90509392505050565b6000606082019050610b4f60008301866108dc565b8181036020830152610b618185610902565b9050610b7060408301846108a7565b949350505050565b6000608082019050610b8d60008301876108dc565b610b9a6020830186610a03565b610ba760408301856108dc565b610bb460608301846108dc565b95945050505050565b60006020820190508181036000830152610bd6816109ac565b9050919050565b6000604051905081810181811067ffffffffffffffff82111715610c0457610c03610d6e565b5b8060405250919050565b600067ffffffffffffffff821115610c2957610c28610d6e565b5b601f19601f8301169050602081019050919050565b600067ffffffffffffffff821115610c5957610c58610d6e565b5b601f19601f8301169050602081019050919050565b600081519050919050565b600082825260208201905092915050565b600081905092915050565b6000610ca082610cbd565b9050919050565b60008115159050919050565b6000819050919050565b600073ffffffffffffffffffffffffffffffffffffffff82169050919050565b6000819050919050565b600060ff82169050919050565b82818337600083830152505050565b60005b83811015610d21578082015181840152602081019050610d06565b83811115610d30576000848401525b50505050565b6000610d4182610d52565b9050919050565b6000819050919050565b6000610d5d82610dae565b9050919050565b6000819050919050565b7f4e487b7100000000000000000000000000000000000000000000000000000000600052604160045260246000fd5b6000601f19601f8301169050919050565b60008160601b9050919050565b610dc481610c95565b8114610dcf57600080fd5b50565b610ddb81610cb3565b8114610de657600080fd5b50565b610df281610cdd565b8114610dfd57600080fd5b50565b610e0981610ce7565b8114610e1457600080fd5b5056fea2646970667358221220c837c44c0d7e66230846ba3038ee6b10572ff3e4a23dd8467c8d7e761d04f50f64736f6c63430008000033",
  "immutableReferences": {},
  "source": "// SPDX-License-Identifier: MIT\npragma solidity ^0.8.0;\n\n/* Signature Verification\n\nHow to Sign and Verify\n# Signing\n1. Create message to sign\n2. Hash the message\n3. Sign the hash (off chain, keep your private key secret)\n\n# Verify\n1. Recreate hash from the original message\n2. Recover signer from signature and hash\n3. Compare recovered signer to claimed signer\n*/\n\ncontract SignatureVerifier {\n    event Registerd(bytes32 hash, string description, address signer);\n\n    function registerOnBehalfOf(\n        bytes32 hash,\n        string memory description,\n        address signer,\n        uint8 v,\n        bytes32 r,\n        bytes32 s\n    ) public {\n        // Notice; NOT using non-standard encoding as this is more secure\n        bytes32 payloadHash = keccak256(abi.encode(hash, description));\n\n        // If you *REALLY* want to use non-standard encoding, which will\n        // only save 6 gas and add potential security issues in the future\n        // versions of this contract.\n        //bytes32 payloadHash = keccak256(abi.encodePacked(hash, description));\n\n        bytes32 messageHash =\n            keccak256(\n                abi.encodePacked(\n                    \"\\x19Ethereum Signed Message:\\n32\",\n                    payloadHash\n                )\n            );\n\n        address actualSigner = ecrecover(messageHash, v, r, s);\n\n        // Not that this step is acutally redundant; you could remove\n        // signer from the signature and skip this `require` entirely\n        require(signer == actualSigner);\n\n        _register(hash, description, actualSigner);\n    }\n\n    function _register(\n        bytes32 hash,\n        string memory description,\n        address signer\n    ) public {\n        emit Registerd(hash, description, signer);\n    }\n\n    /* 1. Unlock MetaMask account\n    ethereum.enable()\n    */\n\n    /* 2. Get message hash to sign\n    getMessageHash(\n        0x14723A09ACff6D2A60DcdF7aA4AFf308FDDC160C,\n        123,\n        \"coffee and donuts\",\n        1\n    )\n\n    hash = \"0xcf36ac4f97dc10d91fc2cbb20d718e94a8cbfe0f82eaedc6a4aa38946fb797cd\"\n    */\n    function getMessageHash(\n        address _to,\n        uint256 _amount,\n        string memory _message,\n        uint256 _nonce\n    ) public pure returns (bytes32) {\n        return keccak256(abi.encodePacked(_to, _amount, _message, _nonce));\n    }\n\n    /* 3. Sign message hash\n    # using browser\n    account = \"copy paste account of signer here\"\n    ethereum.request({ method: \"personal_sign\", params: [account, hash]}).then(console.log)\n\n    # using web3\n    web3.personal.sign(hash, web3.eth.defaultAccount, console.log)\n\n    Signature will be different for different accounts\n    0x993dab3dd91f5c6dc28e17439be475478f5635c92a56e17e82349d3fb2f166196f466c0b4e0c146f285204f0dcb13e5ae67bc33f4b888ec32dfe0a063e8f3f781b\n    */\n    function getEthSignedMessageHash(bytes32 _messageHash)\n        public\n        pure\n        returns (bytes32)\n    {\n        /*\n        Signature is produced by signing a keccak256 hash with the following format:\n        \"\\x19Ethereum Signed Message\\n\" + len(msg) + msg\n        */\n        return\n            keccak256(\n                abi.encodePacked(\n                    \"\\x19Ethereum Signed Message:\\n32\",\n                    _messageHash\n                )\n            );\n    }\n\n    /* 4. Verify signature\n    signer = 0xB273216C05A8c0D4F0a4Dd0d7Bae1D2EfFE636dd\n    to = 0x14723A09ACff6D2A60DcdF7aA4AFf308FDDC160C\n    amount = 123\n    message = \"coffee and donuts\"\n    nonce = 1\n    signature =\n        0x993dab3dd91f5c6dc28e17439be475478f5635c92a56e17e82349d3fb2f166196f466c0b4e0c146f285204f0dcb13e5ae67bc33f4b888ec32dfe0a063e8f3f781b\n    */\n    function verify(\n        address _signer,\n        address _to,\n        uint256 _amount,\n        string memory _message,\n        uint256 _nonce,\n        bytes memory signature\n    ) public pure returns (bool) {\n        bytes32 messageHash = getMessageHash(_to, _amount, _message, _nonce);\n        bytes32 ethSignedMessageHash = getEthSignedMessageHash(messageHash);\n\n        return recoverSigner(ethSignedMessageHash, signature) == _signer;\n    }\n\n    function recoverSigner(\n        bytes32 _ethSignedMessageHash,\n        bytes memory _signature\n    ) public pure returns (address) {\n        (bytes32 r, bytes32 s, uint8 v) = splitSignature(_signature);\n\n        return ecrecover(_ethSignedMessageHash, v, r, s);\n    }\n\n    function splitSignature(bytes memory sig)\n        public\n        pure\n        returns (\n            bytes32 r,\n            bytes32 s,\n            uint8 v\n        )\n    {\n        require(sig.length == 65, \"invalid signature length\");\n\n        assembly {\n            /*\n            First 32 bytes stores the length of the signature\n\n            add(sig, 32) = pointer of sig + 32\n            effectively, skips first 32 bytes of signature\n\n            mload(p) loads next 32 bytes starting at the memory address p into memory\n            */\n\n            // first 32 bytes, after the length prefix\n            r := mload(add(sig, 32))\n            // second 32 bytes\n            s := mload(add(sig, 64))\n            // final byte (first byte of the next 32 bytes)\n            v := byte(0, mload(add(sig, 96)))\n        }\n\n        // implicitly return (r, s, v)\n    }\n}\n",
  "sourcePath": "/Users/fahmi/Downloads/Fahmi Learn/Blockchain/ScratchNFT/Belajar-NFT-Part-1/contracts/verifier/SignatureVerifier.sol",
  "compiler": {
    "name": "solc",
    "version": "0.8.0+commit.c7dfd78e.Emscripten.clang"
  },
  "schemaVersion": "3.3.4",
  "updatedAt": "2021-03-30T09:32:43.032Z",
  "networkType": "ethereum",
  "devdoc": {
    "kind": "dev",
    "methods": {},
    "version": 1
  },
  "userdoc": {
    "kind": "user",
    "methods": {},
    "version": 1
  }
}