{
  "contractName": "Store",
  "abi": [
    {
      "anonymous": false,
      "inputs": [
        {
          "indexed": true,
          "internalType": "address",
          "name": "_owner",
          "type": "address"
        },
        {
          "indexed": true,
          "internalType": "address",
          "name": "_approved",
          "type": "address"
        },
        {
          "indexed": true,
          "internalType": "uint256",
          "name": "_tokenId",
          "type": "uint256"
        }
      ],
      "name": "Approval",
      "type": "event"
    },
    {
      "anonymous": false,
      "inputs": [
        {
          "indexed": true,
          "internalType": "address",
          "name": "_owner",
          "type": "address"
        },
        {
          "indexed": true,
          "internalType": "address",
          "name": "_operator",
          "type": "address"
        },
        {
          "indexed": false,
          "internalType": "bool",
          "name": "_approved",
          "type": "bool"
        }
      ],
      "name": "ApprovalForAll",
      "type": "event"
    },
    {
      "anonymous": false,
      "inputs": [
        {
          "indexed": false,
          "internalType": "address",
          "name": "sender",
          "type": "address"
        },
        {
          "indexed": false,
          "internalType": "uint256",
          "name": "amount",
          "type": "uint256"
        }
      ],
      "name": "LogDeposit",
      "type": "event"
    },
    {
      "anonymous": false,
      "inputs": [
        {
          "indexed": false,
          "internalType": "address",
          "name": "owner",
          "type": "address"
        },
        {
          "indexed": false,
          "internalType": "uint256",
          "name": "token",
          "type": "uint256"
        },
        {
          "indexed": false,
          "internalType": "uint256",
          "name": "price",
          "type": "uint256"
        }
      ],
      "name": "LogPutItemOnSale",
      "type": "event"
    },
    {
      "anonymous": false,
      "inputs": [
        {
          "indexed": false,
          "internalType": "address",
          "name": "owner",
          "type": "address"
        },
        {
          "indexed": false,
          "internalType": "uint256",
          "name": "token",
          "type": "uint256"
        }
      ],
      "name": "LogTakeOutTokenFromSale",
      "type": "event"
    },
    {
      "anonymous": false,
      "inputs": [
        {
          "indexed": false,
          "internalType": "address",
          "name": "sender",
          "type": "address"
        },
        {
          "indexed": false,
          "internalType": "address",
          "name": "to",
          "type": "address"
        },
        {
          "indexed": false,
          "internalType": "uint256",
          "name": "amount",
          "type": "uint256"
        }
      ],
      "name": "LogTransfer",
      "type": "event"
    },
    {
      "anonymous": false,
      "inputs": [
        {
          "indexed": false,
          "internalType": "address",
          "name": "to",
          "type": "address"
        },
        {
          "indexed": false,
          "internalType": "uint256",
          "name": "amount",
          "type": "uint256"
        }
      ],
      "name": "LogWithdraw",
      "type": "event"
    },
    {
      "anonymous": false,
      "inputs": [
        {
          "indexed": true,
          "internalType": "address",
          "name": "_from",
          "type": "address"
        },
        {
          "indexed": true,
          "internalType": "address",
          "name": "_to",
          "type": "address"
        },
        {
          "indexed": true,
          "internalType": "uint256",
          "name": "_tokenId",
          "type": "uint256"
        }
      ],
      "name": "Transfer",
      "type": "event"
    },
    {
      "inputs": [
        {
          "internalType": "address",
          "name": "_approved",
          "type": "address"
        },
        {
          "internalType": "uint256",
          "name": "_tokenId",
          "type": "uint256"
        }
      ],
      "name": "approve",
      "outputs": [],
      "stateMutability": "nonpayable",
      "type": "function"
    },
    {
      "inputs": [
        {
          "internalType": "address",
          "name": "_owner",
          "type": "address"
        }
      ],
      "name": "balanceOf",
      "outputs": [
        {
          "internalType": "uint256",
          "name": "",
          "type": "uint256"
        }
      ],
      "stateMutability": "view",
      "type": "function"
    },
    {
      "inputs": [
        {
          "internalType": "uint256",
          "name": "_tokenId",
          "type": "uint256"
        }
      ],
      "name": "getApproved",
      "outputs": [
        {
          "internalType": "address",
          "name": "",
          "type": "address"
        }
      ],
      "stateMutability": "view",
      "type": "function"
    },
    {
      "inputs": [
        {
          "internalType": "address",
          "name": "_owner",
          "type": "address"
        }
      ],
      "name": "getBalance",
      "outputs": [
        {
          "internalType": "uint256",
          "name": "",
          "type": "uint256"
        }
      ],
      "stateMutability": "view",
      "type": "function"
    },
    {
      "inputs": [
        {
          "internalType": "address",
          "name": "_owner",
          "type": "address"
        },
        {
          "internalType": "address",
          "name": "_operator",
          "type": "address"
        }
      ],
      "name": "isApprovedForAll",
      "outputs": [
        {
          "internalType": "bool",
          "name": "",
          "type": "bool"
        }
      ],
      "stateMutability": "view",
      "type": "function"
    },
    {
      "inputs": [],
      "name": "name",
      "outputs": [
        {
          "internalType": "string",
          "name": "_name",
          "type": "string"
        }
      ],
      "stateMutability": "view",
      "type": "function"
    },
    {
      "inputs": [
        {
          "internalType": "uint256",
          "name": "_tokenId",
          "type": "uint256"
        }
      ],
      "name": "ownerOf",
      "outputs": [
        {
          "internalType": "address",
          "name": "_owner",
          "type": "address"
        }
      ],
      "stateMutability": "view",
      "type": "function"
    },
    {
      "inputs": [
        {
          "internalType": "address",
          "name": "_from",
          "type": "address"
        },
        {
          "internalType": "address",
          "name": "_to",
          "type": "address"
        },
        {
          "internalType": "uint256",
          "name": "_tokenId",
          "type": "uint256"
        }
      ],
      "name": "safeTransferFrom",
      "outputs": [],
      "stateMutability": "nonpayable",
      "type": "function"
    },
    {
      "inputs": [
        {
          "internalType": "address",
          "name": "_from",
          "type": "address"
        },
        {
          "internalType": "address",
          "name": "_to",
          "type": "address"
        },
        {
          "internalType": "uint256",
          "name": "_tokenId",
          "type": "uint256"
        },
        {
          "internalType": "bytes",
          "name": "_data",
          "type": "bytes"
        }
      ],
      "name": "safeTransferFrom",
      "outputs": [],
      "stateMutability": "nonpayable",
      "type": "function"
    },
    {
      "inputs": [
        {
          "internalType": "address",
          "name": "_operator",
          "type": "address"
        },
        {
          "internalType": "bool",
          "name": "_approved",
          "type": "bool"
        }
      ],
      "name": "setApprovalForAll",
      "outputs": [],
      "stateMutability": "nonpayable",
      "type": "function"
    },
    {
      "inputs": [
        {
          "internalType": "bytes4",
          "name": "_interfaceID",
          "type": "bytes4"
        }
      ],
      "name": "supportsInterface",
      "outputs": [
        {
          "internalType": "bool",
          "name": "",
          "type": "bool"
        }
      ],
      "stateMutability": "view",
      "type": "function"
    },
    {
      "inputs": [],
      "name": "symbol",
      "outputs": [
        {
          "internalType": "string",
          "name": "_symbol",
          "type": "string"
        }
      ],
      "stateMutability": "view",
      "type": "function"
    },
    {
      "inputs": [
        {
          "internalType": "uint256",
          "name": "_tokenId",
          "type": "uint256"
        }
      ],
      "name": "tokenURI",
      "outputs": [
        {
          "internalType": "string",
          "name": "",
          "type": "string"
        }
      ],
      "stateMutability": "view",
      "type": "function"
    },
    {
      "inputs": [],
      "name": "totalToken",
      "outputs": [
        {
          "internalType": "uint256",
          "name": "",
          "type": "uint256"
        }
      ],
      "stateMutability": "view",
      "type": "function"
    },
    {
      "inputs": [
        {
          "internalType": "address",
          "name": "_from",
          "type": "address"
        },
        {
          "internalType": "address",
          "name": "_to",
          "type": "address"
        },
        {
          "internalType": "uint256",
          "name": "_tokenId",
          "type": "uint256"
        }
      ],
      "name": "transferFrom",
      "outputs": [],
      "stateMutability": "nonpayable",
      "type": "function"
    },
    {
      "inputs": [
        {
          "internalType": "address payable",
          "name": "to",
          "type": "address"
        }
      ],
      "name": "withdrawAll",
      "outputs": [
        {
          "internalType": "bool",
          "name": "success",
          "type": "bool"
        }
      ],
      "stateMutability": "nonpayable",
      "type": "function"
    },
    {
      "inputs": [
        {
          "internalType": "address",
          "name": "owner",
          "type": "address"
        },
        {
          "internalType": "uint256",
          "name": "token",
          "type": "uint256"
        },
        {
          "internalType": "uint256",
          "name": "price",
          "type": "uint256"
        }
      ],
      "name": "putItemOnSale",
      "outputs": [
        {
          "internalType": "bool",
          "name": "success",
          "type": "bool"
        }
      ],
      "stateMutability": "nonpayable",
      "type": "function"
    },
    {
      "inputs": [
        {
          "internalType": "uint256",
          "name": "_tokenId",
          "type": "uint256"
        }
      ],
      "name": "isTokenOnSale",
      "outputs": [
        {
          "internalType": "bool",
          "name": "status",
          "type": "bool"
        }
      ],
      "stateMutability": "view",
      "type": "function"
    },
    {
      "inputs": [
        {
          "internalType": "address",
          "name": "owner",
          "type": "address"
        },
        {
          "internalType": "uint256",
          "name": "token",
          "type": "uint256"
        }
      ],
      "name": "takeOutTokenFromSale",
      "outputs": [
        {
          "internalType": "bool",
          "name": "success",
          "type": "bool"
        }
      ],
      "stateMutability": "nonpayable",
      "type": "function"
    },
    {
      "inputs": [
        {
          "internalType": "address",
          "name": "_buyer",
          "type": "address"
        },
        {
          "internalType": "uint256",
          "name": "_token",
          "type": "uint256"
        }
      ],
      "name": "buyToken",
      "outputs": [
        {
          "internalType": "bool",
          "name": "success",
          "type": "bool"
        }
      ],
      "stateMutability": "payable",
      "type": "function"
    }
  ],
  "bytecode": "0x608060405234801561001057600080fd5b5060018060006301ffc9a760e01b7bffffffffffffffffffffffffffffffffffffffffffffffffffffffff1916815260200190815260200160002060006101000a81548160ff02191690831515021790555060018060006380ac58cd60e01b7bffffffffffffffffffffffffffffffffffffffffffffffffffffffff1916815260200190815260200160002060006101000a81548160ff0219169083151502179055506001806000635b5e139f60e01b7bffffffffffffffffffffffffffffffffffffffffffffffffffffffff1916815260200190815260200160002060006101000a81548160ff02191690831515021790555061391b806101136000396000f3fe60806040526004361061011f5760003560e01c806370a08231116100a0578063b88d4fde11610064578063b88d4fde14610424578063c87b56dd1461044d578063e985e9c51461048a578063f8b2cb4f146104c7578063fa09e630146105045761011f565b806370a08231146103195780638ccab7c214610356578063951fbdf01461039357806395d89b41146103d0578063a22cb465146103fb5761011f565b80632926b79e116100e75780632926b79e1461021b57806342842e0e14610258578063626be567146102815780636352211e146102ac57806368f8fc10146102e95761011f565b806301ffc9a71461012457806306fdde0314610161578063081812fc1461018c578063095ea7b3146101c957806323b872dd146101f2575b600080fd5b34801561013057600080fd5b5061014b6004803603810190610146919061331e565b610541565b604051610158919061356e565b60405180910390f35b34801561016d57600080fd5b506101766105a9565b6040516101839190613589565b60405180910390f35b34801561019857600080fd5b506101b360048036038101906101ae9190613370565b61063b565b6040516101c09190613447565b60405180910390f35b3480156101d557600080fd5b506101f060048036038101906101eb9190613293565b610756565b005b3480156101fe57600080fd5b5061021960048036038101906102149190613188565b610b39565b005b34801561022757600080fd5b50610242600480360381019061023d91906132cf565b610f8b565b60405161024f919061356e565b60405180910390f35b34801561026457600080fd5b5061027f600480360381019061027a9190613188565b6113f1565b005b34801561028d57600080fd5b50610296611411565b6040516102a391906135ab565b60405180910390f35b3480156102b857600080fd5b506102d360048036038101906102ce9190613370565b61141e565b6040516102e09190613447565b60405180910390f35b61030360048036038101906102fe9190613293565b611504565b604051610310919061356e565b60405180910390f35b34801561032557600080fd5b50610340600480360381019061033b91906130fa565b61188b565b60405161034d91906135ab565b60405180910390f35b34801561036257600080fd5b5061037d60048036038101906103789190613293565b611945565b60405161038a919061356e565b60405180910390f35b34801561039f57600080fd5b506103ba60048036038101906103b59190613370565b611cbe565b6040516103c7919061356e565b60405180910390f35b3480156103dc57600080fd5b506103e5611dc6565b6040516103f29190613589565b60405180910390f35b34801561040757600080fd5b50610422600480360381019061041d9190613257565b611e58565b005b34801561043057600080fd5b5061044b600480360381019061044691906131d7565b611f55565b005b34801561045957600080fd5b50610474600480360381019061046f9190613370565b611fac565b6040516104819190613589565b60405180910390f35b34801561049657600080fd5b506104b160048036038101906104ac919061314c565b61212f565b6040516104be919061356e565b60405180910390f35b3480156104d357600080fd5b506104ee60048036038101906104e991906130fa565b6121c3565b6040516104fb91906135ab565b60405180910390f35b34801561051057600080fd5b5061052b60048036038101906105269190613123565b61220b565b604051610538919061356e565b60405180910390f35b600060016000837bffffffffffffffffffffffffffffffffffffffffffffffffffffffff19167bffffffffffffffffffffffffffffffffffffffffffffffffffffffff1916815260200190815260200160002060009054906101000a900460ff169050919050565b6060600680546105b8906137d1565b80601f01602080910402602001604051908101604052809291908181526020018280546105e4906137d1565b80156106315780601f1061060657610100808354040283529160200191610631565b820191906000526020600020905b81548152906001019060200180831161061457829003601f168201915b5050505050905090565b600081600073ffffffffffffffffffffffffffffffffffffffff166002600083815260200190815260200160002060009054906101000a900473ffffffffffffffffffffffffffffffffffffffff1673ffffffffffffffffffffffffffffffffffffffff1614156040518060400160405280600681526020017f303033303032000000000000000000000000000000000000000000000000000081525090610719576040517f08c379a00000000000000000000000000000000000000000000000000000000081526004016107109190613589565b60405180910390fd5b506003600084815260200190815260200160002060009054906101000a900473ffffffffffffffffffffffffffffffffffffffff16915050919050565b8060006002600083815260200190815260200160002060009054906101000a900473ffffffffffffffffffffffffffffffffffffffff1690503373ffffffffffffffffffffffffffffffffffffffff168173ffffffffffffffffffffffffffffffffffffffff16148061084f5750600560008273ffffffffffffffffffffffffffffffffffffffff1673ffffffffffffffffffffffffffffffffffffffff16815260200190815260200160002060003373ffffffffffffffffffffffffffffffffffffffff1673ffffffffffffffffffffffffffffffffffffffff16815260200190815260200160002060009054906101000a900460ff165b6040518060400160405280600681526020017f3030333030330000000000000000000000000000000000000000000000000000815250906108c6576040517f08c379a00000000000000000000000000000000000000000000000000000000081526004016108bd9190613589565b60405180910390fd5b5082600073ffffffffffffffffffffffffffffffffffffffff166002600083815260200190815260200160002060009054906101000a900473ffffffffffffffffffffffffffffffffffffffff1673ffffffffffffffffffffffffffffffffffffffff1614156040518060400160405280600681526020017f3030333030320000000000000000000000000000000000000000000000000000815250906109a3576040517f08c379a000000000000000000000000000000000000000000000000000000000815260040161099a9190613589565b60405180910390fd5b5060006002600086815260200190815260200160002060009054906101000a900473ffffffffffffffffffffffffffffffffffffffff1690508073ffffffffffffffffffffffffffffffffffffffff168673ffffffffffffffffffffffffffffffffffffffff1614156040518060400160405280600681526020017f303033303038000000000000000000000000000000000000000000000000000081525090610a83576040517f08c379a0000000000000000000000000000000000000000000000000000000008152600401610a7a9190613589565b60405180910390fd5b50856003600087815260200190815260200160002060006101000a81548173ffffffffffffffffffffffffffffffffffffffff021916908373ffffffffffffffffffffffffffffffffffffffff160217905550848673ffffffffffffffffffffffffffffffffffffffff168273ffffffffffffffffffffffffffffffffffffffff167f8c5be1e5ebec7d5bd14f71427d1e84f3dd0314c0f7b2291e5b200ac8c7c3b92560405160405180910390a4505050505050565b8060006002600083815260200190815260200160002060009054906101000a900473ffffffffffffffffffffffffffffffffffffffff1690503373ffffffffffffffffffffffffffffffffffffffff168173ffffffffffffffffffffffffffffffffffffffff161480610c0a57503373ffffffffffffffffffffffffffffffffffffffff166003600084815260200190815260200160002060009054906101000a900473ffffffffffffffffffffffffffffffffffffffff1673ffffffffffffffffffffffffffffffffffffffff16145b80610c9b5750600560008273ffffffffffffffffffffffffffffffffffffffff1673ffffffffffffffffffffffffffffffffffffffff16815260200190815260200160002060003373ffffffffffffffffffffffffffffffffffffffff1673ffffffffffffffffffffffffffffffffffffffff16815260200190815260200160002060009054906101000a900460ff165b6040518060400160405280600681526020017f303033303034000000000000000000000000000000000000000000000000000081525090610d12576040517f08c379a0000000000000000000000000000000000000000000000000000000008152600401610d099190613589565b60405180910390fd5b5082600073ffffffffffffffffffffffffffffffffffffffff166002600083815260200190815260200160002060009054906101000a900473ffffffffffffffffffffffffffffffffffffffff1673ffffffffffffffffffffffffffffffffffffffff1614156040518060400160405280600681526020017f303033303032000000000000000000000000000000000000000000000000000081525090610def576040517f08c379a0000000000000000000000000000000000000000000000000000000008152600401610de69190613589565b60405180910390fd5b5060006002600086815260200190815260200160002060009054906101000a900473ffffffffffffffffffffffffffffffffffffffff1690508673ffffffffffffffffffffffffffffffffffffffff168173ffffffffffffffffffffffffffffffffffffffff16146040518060400160405280600681526020017f303033303037000000000000000000000000000000000000000000000000000081525090610ece576040517f08c379a0000000000000000000000000000000000000000000000000000000008152600401610ec59190613589565b60405180910390fd5b50600073ffffffffffffffffffffffffffffffffffffffff168673ffffffffffffffffffffffffffffffffffffffff1614156040518060400160405280600681526020017f303033303031000000000000000000000000000000000000000000000000000081525090610f77576040517f08c379a0000000000000000000000000000000000000000000000000000000008152600401610f6e9190613589565b60405180910390fd5b50610f828686612410565b50505050505050565b600082600073ffffffffffffffffffffffffffffffffffffffff166002600083815260200190815260200160002060009054906101000a900473ffffffffffffffffffffffffffffffffffffffff1673ffffffffffffffffffffffffffffffffffffffff1614156040518060400160405280600681526020017f303033303032000000000000000000000000000000000000000000000000000081525090611069576040517f08c379a00000000000000000000000000000000000000000000000000000000081526004016110609190613589565b60405180910390fd5b508360006002600083815260200190815260200160002060009054906101000a900473ffffffffffffffffffffffffffffffffffffffff1690503373ffffffffffffffffffffffffffffffffffffffff168173ffffffffffffffffffffffffffffffffffffffff1614806111635750600560008273ffffffffffffffffffffffffffffffffffffffff1673ffffffffffffffffffffffffffffffffffffffff16815260200190815260200160002060003373ffffffffffffffffffffffffffffffffffffffff1673ffffffffffffffffffffffffffffffffffffffff16815260200190815260200160002060009054906101000a900460ff165b6040518060400160405280600681526020017f3030333030330000000000000000000000000000000000000000000000000000815250906111da576040517f08c379a00000000000000000000000000000000000000000000000000000000081526004016111d19190613589565b60405180910390fd5b50600073ffffffffffffffffffffffffffffffffffffffff168773ffffffffffffffffffffffffffffffffffffffff1614156040518060400160405280600681526020017f303033303031000000000000000000000000000000000000000000000000000081525090611283576040517f08c379a000000000000000000000000000000000000000000000000000000000815260040161127a9190613589565b60405180910390fd5b50600085116040518060400160405280600681526020017f3030333031300000000000000000000000000000000000000000000000000000815250906112ff576040517f08c379a00000000000000000000000000000000000000000000000000000000081526004016112f69190613589565b60405180910390fd5b50600060018661130f9190613654565b90506001600a600089815260200190815260200160002060006101000a81548160ff02191690831515021790555080600b60008981526020019081526020016000208190555087600c600089815260200190815260200160002060006101000a81548173ffffffffffffffffffffffffffffffffffffffff021916908373ffffffffffffffffffffffffffffffffffffffff1602179055507f5b97b9773ca90b6593466c3dbc3d2b923ddee03dc025fbac4c2b1b908cc971458888836040516113da93929190613537565b60405180910390a160019450505050509392505050565b61140c838383604051806020016040528060008152506124c5565b505050565b6000600980549050905090565b60006002600083815260200190815260200160002060009054906101000a900473ffffffffffffffffffffffffffffffffffffffff169050600073ffffffffffffffffffffffffffffffffffffffff168173ffffffffffffffffffffffffffffffffffffffff1614156040518060400160405280600681526020017f3030333030320000000000000000000000000000000000000000000000000000815250906114fe576040517f08c379a00000000000000000000000000000000000000000000000000000000081526004016114f59190613589565b60405180910390fd5b50919050565b600081600073ffffffffffffffffffffffffffffffffffffffff166002600083815260200190815260200160002060009054906101000a900473ffffffffffffffffffffffffffffffffffffffff1673ffffffffffffffffffffffffffffffffffffffff1614156040518060400160405280600681526020017f3030333030320000000000000000000000000000000000000000000000000000815250906115e2576040517f08c379a00000000000000000000000000000000000000000000000000000000081526004016115d99190613589565b60405180910390fd5b50600073ffffffffffffffffffffffffffffffffffffffff168473ffffffffffffffffffffffffffffffffffffffff1614156040518060400160405280600681526020017f30303330303100000000000000000000000000000000000000000000000000008152509061168b576040517f08c379a00000000000000000000000000000000000000000000000000000000081526004016116829190613589565b60405180910390fd5b50600a600084815260200190815260200160002060009054906101000a900460ff166040518060400160405280600681526020017f303033303131000000000000000000000000000000000000000000000000000081525090611724576040517f08c379a000000000000000000000000000000000000000000000000000000000815260040161171b9190613589565b60405180910390fd5b50600b6000848152602001908152602001600020543410156040518060400160405280600681526020017f3030333031320000000000000000000000000000000000000000000000000000815250906117b3576040517f08c379a00000000000000000000000000000000000000000000000000000000081526004016117aa9190613589565b60405180910390fd5b506000600b600085815260200190815260200160002054346117d591906136ae565b905061182885600c600087815260200190815260200160002060009054906101000a900473ffffffffffffffffffffffffffffffffffffffff16600b600088815260200190815260200160002054612a93565b6000811461183b5761183981612b28565b505b600a600085815260200190815260200160002060006101000a81549060ff0219169055600b60008581526020019081526020016000206000905561187f8585612410565b60019250505092915050565b60008073ffffffffffffffffffffffffffffffffffffffff168273ffffffffffffffffffffffffffffffffffffffff1614156040518060400160405280600681526020017f303033303031000000000000000000000000000000000000000000000000000081525090611934576040517f08c379a000000000000000000000000000000000000000000000000000000000815260040161192b9190613589565b60405180910390fd5b5061193e82612bd2565b9050919050565b600081600073ffffffffffffffffffffffffffffffffffffffff166002600083815260200190815260200160002060009054906101000a900473ffffffffffffffffffffffffffffffffffffffff1673ffffffffffffffffffffffffffffffffffffffff1614156040518060400160405280600681526020017f303033303032000000000000000000000000000000000000000000000000000081525090611a23576040517f08c379a0000000000000000000000000000000000000000000000000000000008152600401611a1a9190613589565b60405180910390fd5b508260006002600083815260200190815260200160002060009054906101000a900473ffffffffffffffffffffffffffffffffffffffff1690503373ffffffffffffffffffffffffffffffffffffffff168173ffffffffffffffffffffffffffffffffffffffff161480611b1d5750600560008273ffffffffffffffffffffffffffffffffffffffff1673ffffffffffffffffffffffffffffffffffffffff16815260200190815260200160002060003373ffffffffffffffffffffffffffffffffffffffff1673ffffffffffffffffffffffffffffffffffffffff16815260200190815260200160002060009054906101000a900460ff165b6040518060400160405280600681526020017f303033303033000000000000000000000000000000000000000000000000000081525090611b94576040517f08c379a0000000000000000000000000000000000000000000000000000000008152600401611b8b9190613589565b60405180910390fd5b50600073ffffffffffffffffffffffffffffffffffffffff168673ffffffffffffffffffffffffffffffffffffffff1614156040518060400160405280600681526020017f303033303031000000000000000000000000000000000000000000000000000081525090611c3d576040517f08c379a0000000000000000000000000000000000000000000000000000000008152600401611c349190613589565b60405180910390fd5b50600a600086815260200190815260200160002060006101000a81549060ff0219169055600b6000868152602001908152602001600020600090557ffb9cc4c5a76e83be8e9836c80321c20798485702cc82f35ac6c4721d8c99da208686604051611ca992919061350e565b60405180910390a16001935050505092915050565b600081600073ffffffffffffffffffffffffffffffffffffffff166002600083815260200190815260200160002060009054906101000a900473ffffffffffffffffffffffffffffffffffffffff1673ffffffffffffffffffffffffffffffffffffffff1614156040518060400160405280600681526020017f303033303032000000000000000000000000000000000000000000000000000081525090611d9c576040517f08c379a0000000000000000000000000000000000000000000000000000000008152600401611d939190613589565b60405180910390fd5b50600a600084815260200190815260200160002060009054906101000a900460ff16915050919050565b606060078054611dd5906137d1565b80601f0160208091040260200160405190810160405280929190818152602001828054611e01906137d1565b8015611e4e5780601f10611e2357610100808354040283529160200191611e4e565b820191906000526020600020905b815481529060010190602001808311611e3157829003601f168201915b5050505050905090565b80600560003373ffffffffffffffffffffffffffffffffffffffff1673ffffffffffffffffffffffffffffffffffffffff16815260200190815260200160002060008473ffffffffffffffffffffffffffffffffffffffff1673ffffffffffffffffffffffffffffffffffffffff16815260200190815260200160002060006101000a81548160ff0219169083151502179055508173ffffffffffffffffffffffffffffffffffffffff163373ffffffffffffffffffffffffffffffffffffffff167f17307eab39ab6107e8899845ad3d59bd9653f200f220920489ca2b5937696c3183604051611f49919061356e565b60405180910390a35050565b611fa585858585858080601f016020809104026020016040519081016040528093929190818152602001838380828437600081840152601f19601f820116905080830192505050505050506124c5565b5050505050565b606081600073ffffffffffffffffffffffffffffffffffffffff166002600083815260200190815260200160002060009054906101000a900473ffffffffffffffffffffffffffffffffffffffff1673ffffffffffffffffffffffffffffffffffffffff1614156040518060400160405280600681526020017f30303330303200000000000000000000000000000000000000000000000000008152509061208a576040517f08c379a00000000000000000000000000000000000000000000000000000000081526004016120819190613589565b60405180910390fd5b506008600084815260200190815260200160002080546120a9906137d1565b80601f01602080910402602001604051908101604052809291908181526020018280546120d5906137d1565b80156121225780601f106120f757610100808354040283529160200191612122565b820191906000526020600020905b81548152906001019060200180831161210557829003601f168201915b5050505050915050919050565b6000600560008473ffffffffffffffffffffffffffffffffffffffff1673ffffffffffffffffffffffffffffffffffffffff16815260200190815260200160002060008373ffffffffffffffffffffffffffffffffffffffff1673ffffffffffffffffffffffffffffffffffffffff16815260200190815260200160002060009054906101000a900460ff16905092915050565b60008060008373ffffffffffffffffffffffffffffffffffffffff1673ffffffffffffffffffffffffffffffffffffffff168152602001908152602001600020549050919050565b6000806000808473ffffffffffffffffffffffffffffffffffffffff1673ffffffffffffffffffffffffffffffffffffffff1681526020019081526020016000205414156040518060400160405280600681526020017f3030333030390000000000000000000000000000000000000000000000000000815250906122c6576040517f08c379a00000000000000000000000000000000000000000000000000000000081526004016122bd9190613589565b60405180910390fd5b508173ffffffffffffffffffffffffffffffffffffffff166108fc6000808573ffffffffffffffffffffffffffffffffffffffff1673ffffffffffffffffffffffffffffffffffffffff168152602001908152602001600020549081150290604051600060405180830381858888f1935050505015801561234b573d6000803e3d6000fd5b507f4ce7033d118120e254016dccf195288400b28fc8936425acd5f17ce2df3ab708826000808573ffffffffffffffffffffffffffffffffffffffff1673ffffffffffffffffffffffffffffffffffffffff168152602001908152602001600020546040516123bb929190613462565b60405180910390a160008060008473ffffffffffffffffffffffffffffffffffffffff1673ffffffffffffffffffffffffffffffffffffffff1681526020019081526020016000208190555060019050919050565b60006002600083815260200190815260200160002060009054906101000a900473ffffffffffffffffffffffffffffffffffffffff16905061245182612c1b565b61245b8183612cbc565b6124658383612e5f565b818373ffffffffffffffffffffffffffffffffffffffff168273ffffffffffffffffffffffffffffffffffffffff167fddf252ad1be2c89b69c2b068fc378daa952ba7f163c4a11628f55a4df523b3ef60405160405180910390a4505050565b8160006002600083815260200190815260200160002060009054906101000a900473ffffffffffffffffffffffffffffffffffffffff1690503373ffffffffffffffffffffffffffffffffffffffff168173ffffffffffffffffffffffffffffffffffffffff16148061259657503373ffffffffffffffffffffffffffffffffffffffff166003600084815260200190815260200160002060009054906101000a900473ffffffffffffffffffffffffffffffffffffffff1673ffffffffffffffffffffffffffffffffffffffff16145b806126275750600560008273ffffffffffffffffffffffffffffffffffffffff1673ffffffffffffffffffffffffffffffffffffffff16815260200190815260200160002060003373ffffffffffffffffffffffffffffffffffffffff1673ffffffffffffffffffffffffffffffffffffffff16815260200190815260200160002060009054906101000a900460ff165b6040518060400160405280600681526020017f30303330303400000000000000000000000000000000000000000000000000008152509061269e576040517f08c379a00000000000000000000000000000000000000000000000000000000081526004016126959190613589565b60405180910390fd5b5083600073ffffffffffffffffffffffffffffffffffffffff166002600083815260200190815260200160002060009054906101000a900473ffffffffffffffffffffffffffffffffffffffff1673ffffffffffffffffffffffffffffffffffffffff1614156040518060400160405280600681526020017f30303330303200000000000000000000000000000000000000000000000000008152509061277b576040517f08c379a00000000000000000000000000000000000000000000000000000000081526004016127729190613589565b60405180910390fd5b5060006002600087815260200190815260200160002060009054906101000a900473ffffffffffffffffffffffffffffffffffffffff1690508773ffffffffffffffffffffffffffffffffffffffff168173ffffffffffffffffffffffffffffffffffffffff16146040518060400160405280600681526020017f30303330303700000000000000000000000000000000000000000000000000008152509061285a576040517f08c379a00000000000000000000000000000000000000000000000000000000081526004016128519190613589565b60405180910390fd5b50600073ffffffffffffffffffffffffffffffffffffffff168773ffffffffffffffffffffffffffffffffffffffff1614156040518060400160405280600681526020017f303033303031000000000000000000000000000000000000000000000000000081525090612903576040517f08c379a00000000000000000000000000000000000000000000000000000000081526004016128fa9190613589565b60405180910390fd5b5061290e8787612410565b61292d8773ffffffffffffffffffffffffffffffffffffffff1661301f565b15612a895760008773ffffffffffffffffffffffffffffffffffffffff1663150b7a02338b8a8a6040518563ffffffff1660e01b815260040161297394939291906134c2565b602060405180830381600087803b15801561298d57600080fd5b505af11580156129a1573d6000803e3d6000fd5b505050506040513d601f19601f820116820180604052508101906129c59190613347565b905063150b7a0260e01b7bffffffffffffffffffffffffffffffffffffffffffffffffffffffff1916817bffffffffffffffffffffffffffffffffffffffffffffffffffffffff1916146040518060400160405280600681526020017f303033303035000000000000000000000000000000000000000000000000000081525090612a86576040517f08c379a0000000000000000000000000000000000000000000000000000000008152600401612a7d9190613589565b60405180910390fd5b50505b5050505050505050565b806000808473ffffffffffffffffffffffffffffffffffffffff1673ffffffffffffffffffffffffffffffffffffffff1681526020019081526020016000206000828254612ae191906135fe565b925050819055507f0a85107a334eae0d22d21cdf13af0f8e8125039ec60baaa843d2c4c5b0680174838383604051612b1b9392919061348b565b60405180910390a1505050565b600080600183612b389190613654565b9050806000803373ffffffffffffffffffffffffffffffffffffffff1673ffffffffffffffffffffffffffffffffffffffff1681526020019081526020016000206000828254612b8891906135fe565b925050819055507f1b851e1031ef35a238e6c67d0c7991162390df915f70eaf9098dbf0b175a61983382604051612bc092919061350e565b60405180910390a16001915050919050565b6000600460008373ffffffffffffffffffffffffffffffffffffffff1673ffffffffffffffffffffffffffffffffffffffff168152602001908152602001600020549050919050565b600073ffffffffffffffffffffffffffffffffffffffff166003600083815260200190815260200160002060009054906101000a900473ffffffffffffffffffffffffffffffffffffffff1673ffffffffffffffffffffffffffffffffffffffff1614612cb9576003600082815260200190815260200160002060006101000a81549073ffffffffffffffffffffffffffffffffffffffff02191690555b50565b8173ffffffffffffffffffffffffffffffffffffffff166002600083815260200190815260200160002060009054906101000a900473ffffffffffffffffffffffffffffffffffffffff1673ffffffffffffffffffffffffffffffffffffffff16146040518060400160405280600681526020017f303033303037000000000000000000000000000000000000000000000000000081525090612d95576040517f08c379a0000000000000000000000000000000000000000000000000000000008152600401612d8c9190613589565b60405180910390fd5b506001600460008473ffffffffffffffffffffffffffffffffffffffff1673ffffffffffffffffffffffffffffffffffffffff16815260200190815260200160002054612de291906136ae565b600460008473ffffffffffffffffffffffffffffffffffffffff1673ffffffffffffffffffffffffffffffffffffffff168152602001908152602001600020819055506002600082815260200190815260200160002060006101000a81549073ffffffffffffffffffffffffffffffffffffffff02191690555050565b600073ffffffffffffffffffffffffffffffffffffffff166002600083815260200190815260200160002060009054906101000a900473ffffffffffffffffffffffffffffffffffffffff1673ffffffffffffffffffffffffffffffffffffffff16146040518060400160405280600681526020017f303033303036000000000000000000000000000000000000000000000000000081525090612f39576040517f08c379a0000000000000000000000000000000000000000000000000000000008152600401612f309190613589565b60405180910390fd5b50816002600083815260200190815260200160002060006101000a81548173ffffffffffffffffffffffffffffffffffffffff021916908373ffffffffffffffffffffffffffffffffffffffff1602179055506001600460008473ffffffffffffffffffffffffffffffffffffffff1673ffffffffffffffffffffffffffffffffffffffff16815260200190815260200160002054612fd891906135fe565b600460008473ffffffffffffffffffffffffffffffffffffffff1673ffffffffffffffffffffffffffffffffffffffff168152602001908152602001600020819055505050565b600080823b905060008111915050919050565b60008135905061304181613872565b92915050565b60008135905061305681613889565b92915050565b60008135905061306b816138a0565b92915050565b600081359050613080816138b7565b92915050565b600081519050613095816138b7565b92915050565b60008083601f8401126130ad57600080fd5b8235905067ffffffffffffffff8111156130c657600080fd5b6020830191508360018202830111156130de57600080fd5b9250929050565b6000813590506130f4816138ce565b92915050565b60006020828403121561310c57600080fd5b600061311a84828501613032565b91505092915050565b60006020828403121561313557600080fd5b600061314384828501613047565b91505092915050565b6000806040838503121561315f57600080fd5b600061316d85828601613032565b925050602061317e85828601613032565b9150509250929050565b60008060006060848603121561319d57600080fd5b60006131ab86828701613032565b93505060206131bc86828701613032565b92505060406131cd868287016130e5565b9150509250925092565b6000806000806000608086880312156131ef57600080fd5b60006131fd88828901613032565b955050602061320e88828901613032565b945050604061321f888289016130e5565b935050606086013567ffffffffffffffff81111561323c57600080fd5b6132488882890161309b565b92509250509295509295909350565b6000806040838503121561326a57600080fd5b600061327885828601613032565b92505060206132898582860161305c565b9150509250929050565b600080604083850312156132a657600080fd5b60006132b485828601613032565b92505060206132c5858286016130e5565b9150509250929050565b6000806000606084860312156132e457600080fd5b60006132f286828701613032565b9350506020613303868287016130e5565b9250506040613314868287016130e5565b9150509250925092565b60006020828403121561333057600080fd5b600061333e84828501613071565b91505092915050565b60006020828403121561335957600080fd5b600061336784828501613086565b91505092915050565b60006020828403121561338257600080fd5b6000613390848285016130e5565b91505092915050565b6133a281613768565b82525050565b6133b1816136e2565b82525050565b6133c081613706565b82525050565b60006133d1826135c6565b6133db81856135dc565b93506133eb81856020860161379e565b6133f481613861565b840191505092915050565b600061340a826135d1565b61341481856135ed565b935061342481856020860161379e565b61342d81613861565b840191505092915050565b6134418161375e565b82525050565b600060208201905061345c60008301846133a8565b92915050565b60006040820190506134776000830185613399565b6134846020830184613438565b9392505050565b60006060820190506134a060008301866133a8565b6134ad60208301856133a8565b6134ba6040830184613438565b949350505050565b60006080820190506134d760008301876133a8565b6134e460208301866133a8565b6134f16040830185613438565b818103606083015261350381846133c6565b905095945050505050565b600060408201905061352360008301856133a8565b6135306020830184613438565b9392505050565b600060608201905061354c60008301866133a8565b6135596020830185613438565b6135666040830184613438565b949350505050565b600060208201905061358360008301846133b7565b92915050565b600060208201905081810360008301526135a381846133ff565b905092915050565b60006020820190506135c06000830184613438565b92915050565b600081519050919050565b600081519050919050565b600082825260208201905092915050565b600082825260208201905092915050565b60006136098261375e565b91506136148361375e565b9250827fffffffffffffffffffffffffffffffffffffffffffffffffffffffffffffffff0382111561364957613648613803565b5b828201905092915050565b600061365f8261375e565b915061366a8361375e565b9250817fffffffffffffffffffffffffffffffffffffffffffffffffffffffffffffffff04831182151516156136a3576136a2613803565b5b828202905092915050565b60006136b98261375e565b91506136c48361375e565b9250828210156136d7576136d6613803565b5b828203905092915050565b60006136ed8261373e565b9050919050565b60006136ff8261373e565b9050919050565b60008115159050919050565b60007fffffffff0000000000000000000000000000000000000000000000000000000082169050919050565b600073ffffffffffffffffffffffffffffffffffffffff82169050919050565b6000819050919050565b60006137738261377a565b9050919050565b60006137858261378c565b9050919050565b60006137978261373e565b9050919050565b60005b838110156137bc5780820151818401526020810190506137a1565b838111156137cb576000848401525b50505050565b600060028204905060018216806137e957607f821691505b602082108114156137fd576137fc613832565b5b50919050565b7f4e487b7100000000000000000000000000000000000000000000000000000000600052601160045260246000fd5b7f4e487b7100000000000000000000000000000000000000000000000000000000600052602260045260246000fd5b6000601f19601f8301169050919050565b61387b816136e2565b811461388657600080fd5b50565b613892816136f4565b811461389d57600080fd5b50565b6138a981613706565b81146138b457600080fd5b50565b6138c081613712565b81146138cb57600080fd5b50565b6138d78161375e565b81146138e257600080fd5b5056fea264697066735822122001ee9be83778c0073bc5d850b3de11164110b99b06bde1347e67a2868a7cbf8264736f6c63430008000033",
  "immutableReferences": {},
  "source": "// SPDX-License-Identifier: MIT\npragma solidity ^0.8.0;\n\nimport \"../escrow/escrow.sol\";\nimport \"../tokens/nf-token-metadata.sol\";\n\ncontract Store is Escrow, NFTokenMetadata {\n    // Error Price should not be 0\n    string constant ZERO_PRICE = \"003010\";\n\n    // Error item is not on sale\n    string constant ITEM_IS_NOT_ON_SALE = \"003011\";\n\n    // Error Money is not as same as price\n    string constant INSUFFICIENT_FUNDS = \"003012\";\n\n    // Items on sale. (tokenId: isOnSale)\n    mapping(uint256 => bool) internal itemOnSale;\n\n    // Items Price\n    mapping(uint256 => uint256) internal itemOnSalePrice;\n\n    // Item Seller\n    mapping(uint256 => address) internal itemSeller;\n\n    /** @notice Log for a user that put a token on sale.\n     * @param owner token owner\n     * @param token The token id.\n     * @param price The token price.\n     */\n    event LogPutItemOnSale(address owner, uint256 token, uint256 price);\n\n    /** @notice Log for a user that put a token out from sale.\n     * @param owner token owner\n     * @param token The token id.\n     */\n    event LogTakeOutTokenFromSale(address owner, uint256 token);\n\n    /** @notice Put a token on sale.\n     * @dev Throws error unless sender is the owner of the token or operator, the token is valid,\n     * and price is not 0 ethers\n     * @param owner token owner\n     * @param token The token id.\n     * @param price The token price in wei.\n     */\n    function putItemOnSale(\n        address owner,\n        uint256 token,\n        uint256 price\n    ) external validNFToken(token) canOperate(token) returns (bool success) {\n        require(owner != address(0), ZERO_ADDRESS);\n        require(price > 0, ZERO_PRICE);\n\n        uint256 priceInWei = price * (1 wei);\n\n        // Set token on sale to true\n        itemOnSale[token] = true;\n        // Set token price\n        itemOnSalePrice[token] = priceInWei;\n        // Set token seller address\n        itemSeller[token] = owner;\n        // Emit an event\n        emit LogPutItemOnSale(owner, token, priceInWei);\n        return true;\n    }\n\n    /** @notice Check if token is on sale.\n     * @dev Throws error unless the token is valid.\n     * @param _tokenId token id\n     */\n    function isTokenOnSale(uint256 _tokenId)\n        external\n        view\n        validNFToken(_tokenId)\n        returns (bool status)\n    {\n        return itemOnSale[_tokenId];\n    }\n\n    /** @notice Take out a token from sale.\n     * @dev Throws error unless sender is the owner of the token or operator, the token is valid,\n     * and price is not 0 ethers\n     * @param owner token owner\n     * @param token The token id.\n     */\n    function takeOutTokenFromSale(address owner, uint256 token)\n        external\n        validNFToken(token)\n        canOperate(token)\n        returns (bool success)\n    {\n        require(owner != address(0), ZERO_ADDRESS);\n\n        // Delete token from map\n        delete itemOnSale[token];\n        // Delete token price\n        delete itemOnSalePrice[token];\n        emit LogTakeOutTokenFromSale(owner, token);\n        return true;\n    }\n\n    /** @notice Buy a token from marketplace.\n     * @dev Throws error unless the token is valid, token is on sale, and\n     * ethers sent is more than or equal item sale price.\n     * @param _buyer buyer address.\n     * @param _token The token id.\n     */\n    function buyToken(address _buyer, uint256 _token)\n        external\n        payable\n        validNFToken(_token)\n        returns (bool success)\n    {\n        require(_buyer != address(0), ZERO_ADDRESS);\n        require(itemOnSale[_token], ITEM_IS_NOT_ON_SALE);\n        require(msg.value >= itemOnSalePrice[_token], INSUFFICIENT_FUNDS);\n\n        // Subtract sent value with item price to count change.\n        uint256 change = msg.value - itemOnSalePrice[_token];\n\n        // Transfer ethers to contract\n        super._transferEthersToContract(\n            _buyer,\n            itemSeller[_token],\n            itemOnSalePrice[_token]\n        );\n\n        // If change value is not 0, deposit the change to contract\n        if (change != 0) {\n            super._deposit(change);\n        }\n\n        // Delete token from map\n        delete itemOnSale[_token];\n        // Delete token price\n        delete itemOnSalePrice[_token];\n        // Transfer Token to the buyer\n        super._transfer(_buyer, _token);\n        // Returns true\n        return true;\n    }\n}\n",
  "sourcePath": "/Users/fahmi/Downloads/Fahmi Learn/Blockchain/ScratchNFT/Belajar-NFT-Part-1/contracts/store/store.sol",
  "compiler": {
    "name": "solc",
    "version": "0.8.0+commit.c7dfd78e.Emscripten.clang"
  },
  "schemaVersion": "3.3.4",
  "updatedAt": "2021-04-05T08:02:22.736Z",
  "devdoc": {
    "events": {
      "LogPutItemOnSale(address,uint256,uint256)": {
        "params": {
          "owner": "token owner",
          "price": "The token price.",
          "token": "The token id."
        }
      },
      "LogTakeOutTokenFromSale(address,uint256)": {
        "params": {
          "owner": "token owner",
          "token": "The token id."
        }
      }
    },
    "kind": "dev",
    "methods": {
      "approve(address,uint256)": {
        "details": "Set or reaffirm the approved address for an NFT. This function can be changed to payable.",
        "params": {
          "_approved": "Address to be approved for the given NFT ID.",
          "_tokenId": "ID of the token to be approved."
        }
      },
      "balanceOf(address)": {
        "details": "Returns the number of NFTs owned by `_owner`. NFTs assigned to the zero address are considered invalid, and this function throws for queries about the zero address.",
        "params": {
          "_owner": "Address for whom to query the balance."
        },
        "returns": {
          "_0": "Balance of _owner."
        }
      },
      "buyToken(address,uint256)": {
        "details": "Throws error unless the token is valid, token is on sale, and ethers sent is more than or equal item sale price.",
        "params": {
          "_buyer": "buyer address.",
          "_token": "The token id."
        }
      },
      "getApproved(uint256)": {
        "details": "Get the approved address for a single NFT.",
        "params": {
          "_tokenId": "ID of the NFT to query the approval of."
        },
        "returns": {
          "_0": "Address that _tokenId is approved for."
        }
      },
      "isApprovedForAll(address,address)": {
        "details": "Checks if `_operator` is an approved operator for `_owner`.",
        "params": {
          "_operator": "The address that acts on behalf of the owner.",
          "_owner": "The address that owns the NFTs."
        },
        "returns": {
          "_0": "True if approved for all, false otherwise."
        }
      },
      "isTokenOnSale(uint256)": {
        "details": "Throws error unless the token is valid.",
        "params": {
          "_tokenId": "token id"
        }
      },
      "name()": {
        "details": "Returns a descriptive name for a collection of NFTokens.",
        "returns": {
          "_name": "Representing name."
        }
      },
      "ownerOf(uint256)": {
        "details": "Returns the address of the owner of the NFT. NFTs assigned to zero address are considered invalid, and queries about them do throw.",
        "params": {
          "_tokenId": "The identifier for an NFT."
        },
        "returns": {
          "_owner": "Address of _tokenId owner."
        }
      },
      "putItemOnSale(address,uint256,uint256)": {
        "details": "Throws error unless sender is the owner of the token or operator, the token is valid, and price is not 0 ethers",
        "params": {
          "owner": "token owner",
          "price": "The token price in wei.",
          "token": "The token id."
        }
      },
      "safeTransferFrom(address,address,uint256)": {
        "details": "Transfers the ownership of an NFT from one address to another address. This function can be changed to payable.",
        "params": {
          "_from": "The current owner of the NFT.",
          "_to": "The new owner.",
          "_tokenId": "The NFT to transfer."
        }
      },
      "safeTransferFrom(address,address,uint256,bytes)": {
        "details": "Transfers the ownership of an NFT from one address to another address. This function can be changed to payable.",
        "params": {
          "_data": "Additional data with no specified format, sent in call to `_to`.",
          "_from": "The current owner of the NFT.",
          "_to": "The new owner.",
          "_tokenId": "The NFT to transfer."
        }
      },
      "setApprovalForAll(address,bool)": {
        "details": "Enables or disables approval for a third party (\"operator\") to manage all of `msg.sender`'s assets. It also emits the ApprovalForAll event.",
        "params": {
          "_approved": "True if the operators is approved, false to revoke approval.",
          "_operator": "Address to add to the set of authorized operators."
        }
      },
      "supportsInterface(bytes4)": {
        "details": "Function to check which interfaces are suported by this contract.",
        "params": {
          "_interfaceID": "Id of the interface."
        },
        "returns": {
          "_0": "True if _interfaceID is supported, false otherwise."
        }
      },
      "symbol()": {
        "details": "Returns an abbreviated name for NFTokens.",
        "returns": {
          "_symbol": "Representing symbol."
        }
      },
      "takeOutTokenFromSale(address,uint256)": {
        "details": "Throws error unless sender is the owner of the token or operator, the token is valid, and price is not 0 ethers",
        "params": {
          "owner": "token owner",
          "token": "The token id."
        }
      },
      "tokenURI(uint256)": {
        "details": "A distinct URI (RFC 3986) for a given NFT.",
        "params": {
          "_tokenId": "Id for which we want uri."
        },
        "returns": {
          "_0": "URI of _tokenId."
        }
      },
      "totalToken()": {
        "details": "Returns the count of all existing NFTokens.",
        "returns": {
          "_0": "Total supply of NFTs."
        }
      },
      "transferFrom(address,address,uint256)": {
        "details": "Throws unless `msg.sender` is the current owner, an authorized operator, or the approved address for this NFT. Throws if `_from` is not the current owner. Throws if `_to` is the zero address. Throws if `_tokenId` is not a valid NFT. This function can be changed to payable.",
        "params": {
          "_from": "The current owner of the NFT.",
          "_to": "The new owner.",
          "_tokenId": "The NFT to transfer."
        }
      }
    },
    "version": 1
  },
  "userdoc": {
    "events": {
      "LogPutItemOnSale(address,uint256,uint256)": {
        "notice": "Log for a user that put a token on sale."
      },
      "LogTakeOutTokenFromSale(address,uint256)": {
        "notice": "Log for a user that put a token out from sale."
      }
    },
    "kind": "user",
    "methods": {
      "approve(address,uint256)": {
        "notice": "The zero address indicates there is no approved address. Throws unless `msg.sender` is the current NFT owner, or an authorized operator of the current owner."
      },
      "buyToken(address,uint256)": {
        "notice": "Buy a token from marketplace."
      },
      "getApproved(uint256)": {
        "notice": "Throws if `_tokenId` is not a valid NFT."
      },
      "isTokenOnSale(uint256)": {
        "notice": "Check if token is on sale."
      },
      "putItemOnSale(address,uint256,uint256)": {
        "notice": "Put a token on sale."
      },
      "safeTransferFrom(address,address,uint256)": {
        "notice": "This works identically to the other function with an extra data parameter, except this function just sets data to \"\""
      },
      "safeTransferFrom(address,address,uint256,bytes)": {
        "notice": "Throws unless `msg.sender` is the current owner, an authorized operator, or the approved address for this NFT. Throws if `_from` is not the current owner. Throws if `_to` is the zero address. Throws if `_tokenId` is not a valid NFT. When transfer is complete, this function checks if `_to` is a smart contract (code size > 0). If so, it calls `onERC721Received` on `_to` and throws if the return value is not `bytes4(keccak256(\"onERC721Received(address,uint256,bytes)\"))`."
      },
      "setApprovalForAll(address,bool)": {
        "notice": "This works even if sender doesn't own any tokens at the time."
      },
      "takeOutTokenFromSale(address,uint256)": {
        "notice": "Take out a token from sale."
      },
      "transferFrom(address,address,uint256)": {
        "notice": "The caller is responsible to confirm that `_to` is capable of receiving NFTs or else they maybe be permanently lost."
      }
    },
    "version": 1
  }
}