{
  "contractName": "TradeMarket",
  "abi": [
    {
      "anonymous": false,
      "inputs": [
        {
          "indexed": false,
          "internalType": "address",
          "name": "buyer",
          "type": "address"
        },
        {
          "indexed": false,
          "internalType": "address",
          "name": "owner",
          "type": "address"
        },
        {
          "indexed": false,
          "internalType": "uint256",
          "name": "token",
          "type": "uint256"
        },
        {
          "indexed": false,
          "internalType": "uint256",
          "name": "price",
          "type": "uint256"
        }
      ],
      "name": "LogBuyToken",
      "type": "event"
    },
    {
      "anonymous": false,
      "inputs": [
        {
          "indexed": true,
          "internalType": "address",
          "name": "previousOwner",
          "type": "address"
        },
        {
          "indexed": true,
          "internalType": "address",
          "name": "newOwner",
          "type": "address"
        }
      ],
      "name": "OwnershipTransferred",
      "type": "event"
    },
    {
      "inputs": [],
      "name": "CANNOT_TRANSFER_TO_ZERO_ADDRESS",
      "outputs": [
        {
          "internalType": "string",
          "name": "",
          "type": "string"
        }
      ],
      "stateMutability": "view",
      "type": "function"
    },
    {
      "inputs": [],
      "name": "NOT_CURRENT_OWNER",
      "outputs": [
        {
          "internalType": "string",
          "name": "",
          "type": "string"
        }
      ],
      "stateMutability": "view",
      "type": "function"
    },
    {
      "inputs": [],
      "name": "owner",
      "outputs": [
        {
          "internalType": "address",
          "name": "",
          "type": "address"
        }
      ],
      "stateMutability": "view",
      "type": "function"
    },
    {
      "inputs": [
        {
          "internalType": "address",
          "name": "_newOwner",
          "type": "address"
        }
      ],
      "name": "transferOwnership",
      "outputs": [],
      "stateMutability": "nonpayable",
      "type": "function"
    },
    {
      "inputs": [
        {
          "internalType": "address",
          "name": "_buyer",
          "type": "address"
        },
        {
          "internalType": "address payable",
          "name": "_seller",
          "type": "address"
        },
        {
          "internalType": "uint256",
          "name": "_token",
          "type": "uint256"
        },
        {
          "internalType": "uint256",
          "name": "_price",
          "type": "uint256"
        },
        {
          "internalType": "address",
          "name": "_originalContractAddress",
          "type": "address"
        },
        {
          "internalType": "bytes32",
          "name": "_messageHash",
          "type": "bytes32"
        },
        {
          "internalType": "bytes",
          "name": "_signature",
          "type": "bytes"
        }
      ],
      "name": "buyToken",
      "outputs": [
        {
          "internalType": "bool",
          "name": "success",
          "type": "bool"
        }
      ],
      "stateMutability": "payable",
      "type": "function"
    }
  ],
  "bytecode": "0x608060405234801561001057600080fd5b50336000806101000a81548173ffffffffffffffffffffffffffffffffffffffff021916908373ffffffffffffffffffffffffffffffffffffffff160217905550611719806100606000396000f3fe60806040526004361061004a5760003560e01c8063860d248a1461004f5780638da5cb5b1461007a578063abde2822146100a5578063f2fde38b146100d5578063f3fe3bc3146100fe575b600080fd5b34801561005b57600080fd5b50610064610129565b60405161007191906113f2565b60405180910390f35b34801561008657600080fd5b5061008f610162565b60405161009c91906112d2565b60405180910390f35b6100bf60048036038101906100ba9190610e1a565b610186565b6040516100cc9190611392565b60405180910390f35b3480156100e157600080fd5b506100fc60048036038101906100f79190610dc8565b610467565b005b34801561010a57600080fd5b50610113610694565b60405161012091906113f2565b60405180910390f35b6040518060400160405280600681526020017f303138303032000000000000000000000000000000000000000000000000000081525081565b60008054906101000a900473ffffffffffffffffffffffffffffffffffffffff1681565b60008073ffffffffffffffffffffffffffffffffffffffff168973ffffffffffffffffffffffffffffffffffffffff1614156101f7576040517f08c379a00000000000000000000000000000000000000000000000000000000081526004016101ee90611494565b60405180910390fd5b60006102478585858080601f016020809104026020016040519081016040528093929190818152602001838380828437600081840152601f19601f820116905080830192505050505050506106cd565b90508873ffffffffffffffffffffffffffffffffffffffff168173ffffffffffffffffffffffffffffffffffffffff16146102b7576040517f08c379a00000000000000000000000000000000000000000000000000000000081526004016102ae90611414565b60405180910390fd5b348710156102fa576040517f08c379a00000000000000000000000000000000000000000000000000000000081526004016102f190611434565b60405180910390fd5b6000610306878a61074a565b90508973ffffffffffffffffffffffffffffffffffffffff168173ffffffffffffffffffffffffffffffffffffffff1614610376576040517f08c379a000000000000000000000000000000000000000000000000000000000815260040161036d906114f4565b60405180910390fd5b6000610382888361080f565b9050806103c4576040517f08c379a00000000000000000000000000000000000000000000000000000000081526004016103bb90611474565b60405180910390fd5b8a73ffffffffffffffffffffffffffffffffffffffff166108fc8a9081150290604051600060405180830381858888f1935050505015801561040a573d6000803e3d6000fd5b5061041788838c8f6108d6565b7f2479adf935870c30c7d2439c56d5d7f49d0c164db24963fa66ba1d47b5416cfd8c838c8c60405161044c949392919061134d565b60405180910390a16001935050505098975050505050505050565b60008054906101000a900473ffffffffffffffffffffffffffffffffffffffff1673ffffffffffffffffffffffffffffffffffffffff163373ffffffffffffffffffffffffffffffffffffffff16146040518060400160405280600681526020017f30313830303100000000000000000000000000000000000000000000000000008152509061052d576040517f08c379a000000000000000000000000000000000000000000000000000000000815260040161052491906113f2565b60405180910390fd5b50600073ffffffffffffffffffffffffffffffffffffffff168173ffffffffffffffffffffffffffffffffffffffff1614156040518060400160405280600681526020017f3031383030320000000000000000000000000000000000000000000000000000815250906105d6576040517f08c379a00000000000000000000000000000000000000000000000000000000081526004016105cd91906113f2565b60405180910390fd5b508073ffffffffffffffffffffffffffffffffffffffff1660008054906101000a900473ffffffffffffffffffffffffffffffffffffffff1673ffffffffffffffffffffffffffffffffffffffff167f8be0079c531659141344cd1fd0a4f28419497f9722a3daafe3b4186f6b6457e060405160405180910390a3806000806101000a81548173ffffffffffffffffffffffffffffffffffffffff021916908373ffffffffffffffffffffffffffffffffffffffff16021790555050565b6040518060400160405280600681526020017f303138303031000000000000000000000000000000000000000000000000000081525081565b6000806000806106dc8561097e565b92509250925060006106ed876109e6565b90506001818386866040516000815260200160405260405161071294939291906113ad565b6020604051602081039080840390855afa158015610734573d6000803e3d6000fd5b5050506020604051035194505050505092915050565b6000808260405160240161075e9190611534565b6040516020818303038152906040527f6352211e000000000000000000000000000000000000000000000000000000007bffffffffffffffffffffffffffffffffffffffffffffffffffffffff19166020820180517bffffffffffffffffffffffffffffffffffffffffffffffffffffffff8381831617835250505050905060006107e98583610a16565b90506000818060200190518101906108019190610df1565b905080935050505092915050565b60008082306040516024016108259291906112ed565b6040516020818303038152906040527fe985e9c5000000000000000000000000000000000000000000000000000000007bffffffffffffffffffffffffffffffffffffffffffffffffffffffff19166020820180517bffffffffffffffffffffffffffffffffffffffffffffffffffffffff8381831617835250505050905060006108b08583610a16565b90506000818060200190518101906108c89190610ed4565b905080935050505092915050565b60008382846040516024016108ed93929190611316565b6040516020818303038152906040527f42842e0e000000000000000000000000000000000000000000000000000000007bffffffffffffffffffffffffffffffffffffffffffffffffffffffff19166020820180517bffffffffffffffffffffffffffffffffffffffffffffffffffffffff838183161783525050505090506109768582610a43565b505050505050565b600080600060418451146109c7576040517f08c379a00000000000000000000000000000000000000000000000000000000081526004016109be90611514565b60405180910390fd5b6020840151925060408401519150606084015160001a90509193909250565b6000816040516020016109f991906112ac565b604051602081830303815290604052805190602001209050919050565b6060610a3b83836040518060600160405280602581526020016116bf60259139610a8d565b905092915050565b6060610a8583836040518060400160405280601e81526020017f416464726573733a206c6f772d6c6576656c2063616c6c206661696c65640000815250610b5a565b905092915050565b6060610a9884610b72565b610ad7576040517f08c379a0000000000000000000000000000000000000000000000000000000008152600401610ace906114b4565b60405180910390fd5b6000808573ffffffffffffffffffffffffffffffffffffffff1685604051610aff9190611295565b600060405180830381855afa9150503d8060008114610b3a576040519150601f19603f3d011682016040523d82523d6000602084013e610b3f565b606091505b5091509150610b4f828286610b85565b925050509392505050565b6060610b698484600085610bec565b90509392505050565b600080823b905060008111915050919050565b60608315610b9557829050610be5565b600083511115610ba85782518084602001fd5b816040517f08c379a0000000000000000000000000000000000000000000000000000000008152600401610bdc91906113f2565b60405180910390fd5b9392505050565b606082471015610c31576040517f08c379a0000000000000000000000000000000000000000000000000000000008152600401610c2890611454565b60405180910390fd5b610c3a85610b72565b610c79576040517f08c379a0000000000000000000000000000000000000000000000000000000008152600401610c70906114d4565b60405180910390fd5b6000808673ffffffffffffffffffffffffffffffffffffffff168587604051610ca29190611295565b60006040518083038185875af1925050503d8060008114610cdf576040519150601f19603f3d011682016040523d82523d6000602084013e610ce4565b606091505b5091509150610cf4828286610b85565b92505050949350505050565b600081359050610d0f8161164b565b92915050565b600081359050610d2481611662565b92915050565b600081519050610d3981611662565b92915050565b600081519050610d4e81611679565b92915050565b600081359050610d6381611690565b92915050565b60008083601f840112610d7b57600080fd5b8235905067ffffffffffffffff811115610d9457600080fd5b602083019150836001820283011115610dac57600080fd5b9250929050565b600081359050610dc2816116a7565b92915050565b600060208284031215610dda57600080fd5b6000610de884828501610d00565b91505092915050565b600060208284031215610e0357600080fd5b6000610e1184828501610d2a565b91505092915050565b60008060008060008060008060e0898b031215610e3657600080fd5b6000610e448b828c01610d00565b9850506020610e558b828c01610d15565b9750506040610e668b828c01610db3565b9650506060610e778b828c01610db3565b9550506080610e888b828c01610d00565b94505060a0610e998b828c01610d54565b93505060c089013567ffffffffffffffff811115610eb657600080fd5b610ec28b828c01610d69565b92509250509295985092959890939650565b600060208284031215610ee657600080fd5b6000610ef484828501610d3f565b91505092915050565b610f068161158c565b82525050565b610f15816115b0565b82525050565b610f24816115bc565b82525050565b610f3b610f36826115bc565b611630565b82525050565b6000610f4c8261154f565b610f568185611565565b9350610f668185602086016115fd565b80840191505092915050565b6000610f7d8261155a565b610f878185611570565b9350610f978185602086016115fd565b610fa08161163a565b840191505092915050565b6000610fb8600e83611570565b91507f484153485f4e4f545f4d415443480000000000000000000000000000000000006000830152602082019050919050565b6000610ff8601c83611581565b91507f19457468657265756d205369676e6564204d6573736167653a0a3332000000006000830152601c82019050919050565b6000611038601283611570565b91507f494e53554646494349454e545f46554e445300000000000000000000000000006000830152602082019050919050565b6000611078602683611570565b91507f416464726573733a20696e73756666696369656e742062616c616e636520666f60008301527f722063616c6c00000000000000000000000000000000000000000000000000006020830152604082019050919050565b60006110de600c83611570565b91507f4e4f545f4f50455241544f5200000000000000000000000000000000000000006000830152602082019050919050565b600061111e600c83611570565b91507f5a45524f5f4144445245535300000000000000000000000000000000000000006000830152602082019050919050565b600061115e602483611570565b91507f416464726573733a207374617469632063616c6c20746f206e6f6e2d636f6e7460008301527f72616374000000000000000000000000000000000000000000000000000000006020830152604082019050919050565b60006111c4601d83611570565b91507f416464726573733a2063616c6c20746f206e6f6e2d636f6e74726163740000006000830152602082019050919050565b6000611204601583611570565b91507f4e4f545f4f574e45525f4f525f4f50455241544f5200000000000000000000006000830152602082019050919050565b6000611244601883611570565b91507f696e76616c6964207369676e6174757265206c656e67746800000000000000006000830152602082019050919050565b611280816115e6565b82525050565b61128f816115f0565b82525050565b60006112a18284610f41565b915081905092915050565b60006112b782610feb565b91506112c38284610f2a565b60208201915081905092915050565b60006020820190506112e76000830184610efd565b92915050565b60006040820190506113026000830185610efd565b61130f6020830184610efd565b9392505050565b600060608201905061132b6000830186610efd565b6113386020830185610efd565b6113456040830184611277565b949350505050565b60006080820190506113626000830187610efd565b61136f6020830186610efd565b61137c6040830185611277565b6113896060830184611277565b95945050505050565b60006020820190506113a76000830184610f0c565b92915050565b60006080820190506113c26000830187610f1b565b6113cf6020830186611286565b6113dc6040830185610f1b565b6113e96060830184610f1b565b95945050505050565b6000602082019050818103600083015261140c8184610f72565b905092915050565b6000602082019050818103600083015261142d81610fab565b9050919050565b6000602082019050818103600083015261144d8161102b565b9050919050565b6000602082019050818103600083015261146d8161106b565b9050919050565b6000602082019050818103600083015261148d816110d1565b9050919050565b600060208201905081810360008301526114ad81611111565b9050919050565b600060208201905081810360008301526114cd81611151565b9050919050565b600060208201905081810360008301526114ed816111b7565b9050919050565b6000602082019050818103600083015261150d816111f7565b9050919050565b6000602082019050818103600083015261152d81611237565b9050919050565b60006020820190506115496000830184611277565b92915050565b600081519050919050565b600081519050919050565b600081905092915050565b600082825260208201905092915050565b600081905092915050565b6000611597826115c6565b9050919050565b60006115a9826115c6565b9050919050565b60008115159050919050565b6000819050919050565b600073ffffffffffffffffffffffffffffffffffffffff82169050919050565b6000819050919050565b600060ff82169050919050565b60005b8381101561161b578082015181840152602081019050611600565b8381111561162a576000848401525b50505050565b6000819050919050565b6000601f19601f8301169050919050565b6116548161158c565b811461165f57600080fd5b50565b61166b8161159e565b811461167657600080fd5b50565b611682816115b0565b811461168d57600080fd5b50565b611699816115bc565b81146116a457600080fd5b50565b6116b0816115e6565b81146116bb57600080fd5b5056fe416464726573733a206c6f772d6c6576656c207374617469632063616c6c206661696c6564a26469706673582212203892b7d5dfbae3a4113640c16975923f31e4d6749db6a26a01e3ed83624ccff264736f6c63430008000033",
  "immutableReferences": {},
  "source": "// SPDX-License-Identifier: MIT\npragma solidity ^0.8.0;\n\nimport \"./ownership/ownable.sol\";\nimport \"./utils/address-utils.sol\";\nimport \"./verifier/signature-verifier.sol\";\n\ncontract TradeMarket is Ownable, SignatureVerifier {\n    /** @notice Log for a user that buys a token.\n     * @param buyer token buyer\n     * @param owner token owner\n     * @param token The token id.\n     * @param price The token price.\n     */\n    event LogBuyToken(\n        address buyer,\n        address owner,\n        uint256 token,\n        uint256 price\n    );\n\n    /** @notice Buy a token from marketplace.\n     * @dev Throws error unless the token is valid, token is on sale,\n     * ethers sent is more than or equal item sale price, buyer address is not ZERO,\n     * seller signer is successfully recovered, trade market is already approved.\n     * @param _buyer buyer address.\n     * @param _seller seller address.\n     * @param _token The token id.\n     * @param _price Token price in wei.\n     * @param _originalContractAddress Token's contract address.\n     * @param _messageHash Seller message hash that prompted during sell action.\n     * @param _signature Seller signature hash of the signed message.\n     */\n    function buyToken(\n        address _buyer,\n        address payable _seller,\n        uint256 _token,\n        uint256 _price,\n        address _originalContractAddress,\n        bytes32 _messageHash,\n        bytes calldata _signature\n    ) external payable returns (bool success) {\n        // Revert if the address is 0x000000\n        require(_buyer != address(0), \"ZERO_ADDRESS\");\n        // Check the seller hash and signature\n        address _actualSeller = super.recoverSigner(_messageHash, _signature);\n        // Check if the seller inputted is as the same as token seller\n        require(_actualSeller == _seller, \"HASH_NOT_MATCH\");\n        // Check if the ethers sent is equals or more than price\n        require(_price >= msg.value, \"INSUFFICIENT_FUNDS\");\n        // Get the token owner\n        address tokenOwner = ownerOfToken(_originalContractAddress, _token);\n        require(tokenOwner == _seller, \"NOT_OWNER_OR_OPERATOR\");\n        // Check if the Trade market is operator\n        bool isOperator =\n            isAlreadyApproved(_originalContractAddress, tokenOwner);\n        require(isOperator, \"NOT_OPERATOR\");\n        // Transfer Money or Ethers to Seller\n        _seller.transfer(_price);\n        // Transfer Token to the buyer\n        transferToken(_originalContractAddress, tokenOwner, _token, _buyer);\n        // Emit the transaction to log\n        emit LogBuyToken(_buyer, tokenOwner, _token, _price);\n        // Returns true\n        return true;\n    }\n\n    // Check if trade market is already approved to operate all user tokens.\n    function isAlreadyApproved(\n        address _originalContractAddress,\n        address _ownerAddess\n    ) internal view returns (bool status) {\n        bytes memory data =\n            abi.encodeWithSignature(\n                \"isApprovedForAll(address,address)\",\n                _ownerAddess,\n                address(this)\n            );\n        // Delegate Call and get the result\n        bytes memory result =\n            AddressUtils.functionStaticCall(_originalContractAddress, data);\n        bool decoded = abi.decode(result, (bool));\n        return decoded;\n    }\n\n    // Check the owner of the token\n    function ownerOfToken(address _originalContractAddress, uint256 _tokenId)\n        internal\n        view\n        returns (address owner)\n    {\n        bytes memory data =\n            abi.encodeWithSignature(\"ownerOf(uint256)\", _tokenId);\n        // Delegate Call and get the result\n        bytes memory result =\n            AddressUtils.functionStaticCall(_originalContractAddress, data);\n        address decoded = abi.decode(result, (address));\n        return decoded;\n    }\n\n    // Safe transfer from\n    function transferToken(\n        address _originalContractAddress,\n        address seller,\n        uint256 _tokenId,\n        address receiver\n    ) internal {\n        bytes memory data =\n            abi.encodeWithSignature(\n                \"safeTransferFrom(address,address,uint256)\",\n                seller,\n                receiver,\n                _tokenId\n            );\n        // Delegate Call and get the result\n        AddressUtils.functionCall(_originalContractAddress, data);\n    }\n}\n",
  "sourcePath": "/Users/fahmi/Downloads/Fahmi Learn/Blockchain/ScratchNFT/Belajar-NFT-Part-1/contracts/TradeMarket.sol",
  "compiler": {
    "name": "solc",
    "version": "0.8.0+commit.c7dfd78e.Emscripten.clang"
  },
  "schemaVersion": "3.3.4",
  "updatedAt": "2021-04-05T08:02:22.557Z",
  "devdoc": {
    "events": {
      "LogBuyToken(address,address,uint256,uint256)": {
        "params": {
          "buyer": "token buyer",
          "owner": "token owner",
          "price": "The token price.",
          "token": "The token id."
        }
      }
    },
    "kind": "dev",
    "methods": {
      "buyToken(address,address,uint256,uint256,address,bytes32,bytes)": {
        "details": "Throws error unless the token is valid, token is on sale, ethers sent is more than or equal item sale price, buyer address is not ZERO, seller signer is successfully recovered, trade market is already approved.",
        "params": {
          "_buyer": "buyer address.",
          "_messageHash": "Seller message hash that prompted during sell action.",
          "_originalContractAddress": "Token's contract address.",
          "_price": "Token price in wei.",
          "_seller": "seller address.",
          "_signature": "Seller signature hash of the signed message.",
          "_token": "The token id."
        }
      },
      "transferOwnership(address)": {
        "details": "Allows the current owner to transfer control of the contract to a newOwner.",
        "params": {
          "_newOwner": "The address to transfer ownership to."
        }
      }
    },
    "version": 1
  },
  "userdoc": {
    "events": {
      "LogBuyToken(address,address,uint256,uint256)": {
        "notice": "Log for a user that buys a token."
      }
    },
    "kind": "user",
    "methods": {
      "buyToken(address,address,uint256,uint256,address,bytes32,bytes)": {
        "notice": "Buy a token from marketplace."
      }
    },
    "version": 1
  }
}