{
  "contractName": "TradeMarket",
  "abi": [
    {
      "anonymous": false,
      "inputs": [
        {
          "indexed": false,
          "internalType": "address",
          "name": "buyer",
          "type": "address"
        },
        {
          "indexed": false,
          "internalType": "address",
          "name": "owner",
          "type": "address"
        },
        {
          "indexed": false,
          "internalType": "uint256",
          "name": "token",
          "type": "uint256"
        },
        {
          "indexed": false,
          "internalType": "uint256",
          "name": "price",
          "type": "uint256"
        }
      ],
      "name": "LogBuyToken",
      "type": "event"
    },
    {
      "anonymous": false,
      "inputs": [
        {
          "indexed": true,
          "internalType": "address",
          "name": "previousOwner",
          "type": "address"
        },
        {
          "indexed": true,
          "internalType": "address",
          "name": "newOwner",
          "type": "address"
        }
      ],
      "name": "OwnershipTransferred",
      "type": "event"
    },
    {
      "inputs": [],
      "name": "CANNOT_TRANSFER_TO_ZERO_ADDRESS",
      "outputs": [
        {
          "internalType": "string",
          "name": "",
          "type": "string"
        }
      ],
      "stateMutability": "view",
      "type": "function"
    },
    {
      "inputs": [],
      "name": "NOT_CURRENT_OWNER",
      "outputs": [
        {
          "internalType": "string",
          "name": "",
          "type": "string"
        }
      ],
      "stateMutability": "view",
      "type": "function"
    },
    {
      "inputs": [],
      "name": "owner",
      "outputs": [
        {
          "internalType": "address",
          "name": "",
          "type": "address"
        }
      ],
      "stateMutability": "view",
      "type": "function"
    },
    {
      "inputs": [
        {
          "internalType": "address",
          "name": "_newOwner",
          "type": "address"
        }
      ],
      "name": "transferOwnership",
      "outputs": [],
      "stateMutability": "nonpayable",
      "type": "function"
    },
    {
      "inputs": [
        {
          "internalType": "address",
          "name": "_buyer",
          "type": "address"
        },
        {
          "internalType": "address payable",
          "name": "_seller",
          "type": "address"
        },
        {
          "internalType": "uint256",
          "name": "_token",
          "type": "uint256"
        },
        {
          "internalType": "uint256",
          "name": "_price",
          "type": "uint256"
        },
        {
          "internalType": "address",
          "name": "_originalContractAddress",
          "type": "address"
        }
      ],
      "name": "buyToken",
      "outputs": [
        {
          "internalType": "bool",
          "name": "success",
          "type": "bool"
        }
      ],
      "stateMutability": "payable",
      "type": "function"
    }
  ],
  "bytecode": "0x608060405234801561001057600080fd5b50336000806101000a81548173ffffffffffffffffffffffffffffffffffffffff021916908373ffffffffffffffffffffffffffffffffffffffff1602179055506112e1806100606000396000f3fe60806040526004361061004a5760003560e01c8063860d248a1461004f5780638da5cb5b1461007a57806397209e0d146100a5578063f2fde38b146100d5578063f3fe3bc3146100fe575b600080fd5b34801561005b57600080fd5b50610064610129565b604051610071919061103d565b60405180910390f35b34801561008657600080fd5b5061008f610162565b60405161009c9190610f62565b60405180910390f35b6100bf60048036038101906100ba9190610be2565b610186565b6040516100cc9190611022565b60405180910390f35b3480156100e157600080fd5b506100fc60048036038101906100f79190610b90565b6103a3565b005b34801561010a57600080fd5b506101136105d0565b604051610120919061103d565b60405180910390f35b6040518060400160405280600681526020017f303138303032000000000000000000000000000000000000000000000000000081525081565b60008054906101000a900473ffffffffffffffffffffffffffffffffffffffff1681565b60008073ffffffffffffffffffffffffffffffffffffffff168673ffffffffffffffffffffffffffffffffffffffff1614156101f7576040517f08c379a00000000000000000000000000000000000000000000000000000000081526004016101ee906110bf565b60405180910390fd5b3483101561023a576040517f08c379a00000000000000000000000000000000000000000000000000000000081526004016102319061105f565b60405180910390fd5b60006102468386610609565b90508573ffffffffffffffffffffffffffffffffffffffff168173ffffffffffffffffffffffffffffffffffffffff16146102b6576040517f08c379a00000000000000000000000000000000000000000000000000000000081526004016102ad906110df565b60405180910390fd5b60006102c284836106ce565b905080610304576040517f08c379a00000000000000000000000000000000000000000000000000000000081526004016102fb9061109f565b60405180910390fd5b8673ffffffffffffffffffffffffffffffffffffffff166108fc869081150290604051600060405180830381858888f1935050505015801561034a573d6000803e3d6000fd5b506103578483888b610795565b7f2479adf935870c30c7d2439c56d5d7f49d0c164db24963fa66ba1d47b5416cfd8883888860405161038c9493929190610fdd565b60405180910390a160019250505095945050505050565b60008054906101000a900473ffffffffffffffffffffffffffffffffffffffff1673ffffffffffffffffffffffffffffffffffffffff163373ffffffffffffffffffffffffffffffffffffffff16146040518060400160405280600681526020017f303138303031000000000000000000000000000000000000000000000000000081525090610469576040517f08c379a0000000000000000000000000000000000000000000000000000000008152600401610460919061103d565b60405180910390fd5b50600073ffffffffffffffffffffffffffffffffffffffff168173ffffffffffffffffffffffffffffffffffffffff1614156040518060400160405280600681526020017f303138303032000000000000000000000000000000000000000000000000000081525090610512576040517f08c379a0000000000000000000000000000000000000000000000000000000008152600401610509919061103d565b60405180910390fd5b508073ffffffffffffffffffffffffffffffffffffffff1660008054906101000a900473ffffffffffffffffffffffffffffffffffffffff1673ffffffffffffffffffffffffffffffffffffffff167f8be0079c531659141344cd1fd0a4f28419497f9722a3daafe3b4186f6b6457e060405160405180910390a3806000806101000a81548173ffffffffffffffffffffffffffffffffffffffff021916908373ffffffffffffffffffffffffffffffffffffffff16021790555050565b6040518060400160405280600681526020017f303138303031000000000000000000000000000000000000000000000000000081525081565b6000808260405160240161061d919061113f565b6040516020818303038152906040527f6352211e000000000000000000000000000000000000000000000000000000007bffffffffffffffffffffffffffffffffffffffffffffffffffffffff19166020820180517bffffffffffffffffffffffffffffffffffffffffffffffffffffffff8381831617835250505050905060006106a8858361083d565b90506000818060200190518101906106c09190610bb9565b905080935050505092915050565b60008082306040516024016106e4929190610f7d565b6040516020818303038152906040527fe985e9c5000000000000000000000000000000000000000000000000000000007bffffffffffffffffffffffffffffffffffffffffffffffffffffffff19166020820180517bffffffffffffffffffffffffffffffffffffffffffffffffffffffff83818316178352505050509050600061076f858361083d565b90506000818060200190518101906107879190610c59565b905080935050505092915050565b60008382846040516024016107ac93929190610fa6565b6040516020818303038152906040527f42842e0e000000000000000000000000000000000000000000000000000000007bffffffffffffffffffffffffffffffffffffffffffffffffffffffff19166020820180517bffffffffffffffffffffffffffffffffffffffffffffffffffffffff83818316178352505050509050610835858261086a565b505050505050565b60606108628383604051806060016040528060258152602001611287602591396108b4565b905092915050565b60606108ac83836040518060400160405280601e81526020017f416464726573733a206c6f772d6c6576656c2063616c6c206661696c65640000815250610981565b905092915050565b60606108bf84610999565b6108fe576040517f08c379a00000000000000000000000000000000000000000000000000000000081526004016108f5906110ff565b60405180910390fd5b6000808573ffffffffffffffffffffffffffffffffffffffff16856040516109269190610f4b565b600060405180830381855afa9150503d8060008114610961576040519150601f19603f3d011682016040523d82523d6000602084013e610966565b606091505b50915091506109768282866109ac565b925050509392505050565b60606109908484600085610a13565b90509392505050565b600080823b905060008111915050919050565b606083156109bc57829050610a0c565b6000835111156109cf5782518084602001fd5b816040517f08c379a0000000000000000000000000000000000000000000000000000000008152600401610a03919061103d565b60405180910390fd5b9392505050565b606082471015610a58576040517f08c379a0000000000000000000000000000000000000000000000000000000008152600401610a4f9061107f565b60405180910390fd5b610a6185610999565b610aa0576040517f08c379a0000000000000000000000000000000000000000000000000000000008152600401610a979061111f565b60405180910390fd5b6000808673ffffffffffffffffffffffffffffffffffffffff168587604051610ac99190610f4b565b60006040518083038185875af1925050503d8060008114610b06576040519150601f19603f3d011682016040523d82523d6000602084013e610b0b565b606091505b5091509150610b1b8282866109ac565b92505050949350505050565b600081359050610b368161122a565b92915050565b600081359050610b4b81611241565b92915050565b600081519050610b6081611241565b92915050565b600081519050610b7581611258565b92915050565b600081359050610b8a8161126f565b92915050565b600060208284031215610ba257600080fd5b6000610bb084828501610b27565b91505092915050565b600060208284031215610bcb57600080fd5b6000610bd984828501610b51565b91505092915050565b600080600080600060a08688031215610bfa57600080fd5b6000610c0888828901610b27565b9550506020610c1988828901610b3c565b9450506040610c2a88828901610b7b565b9350506060610c3b88828901610b7b565b9250506080610c4c88828901610b27565b9150509295509295909350565b600060208284031215610c6b57600080fd5b6000610c7984828501610b66565b91505092915050565b610c8b8161118c565b82525050565b610c9a816111b0565b82525050565b6000610cab8261115a565b610cb58185611170565b9350610cc58185602086016111e6565b80840191505092915050565b6000610cdc82611165565b610ce6818561117b565b9350610cf68185602086016111e6565b610cff81611219565b840191505092915050565b6000610d1760128361117b565b91507f496e73756666696369656e742046756e647300000000000000000000000000006000830152602082019050919050565b6000610d5760268361117b565b91507f416464726573733a20696e73756666696369656e742062616c616e636520666f60008301527f722063616c6c00000000000000000000000000000000000000000000000000006020830152604082019050919050565b6000610dbd601c8361117b565b91507f4e6f74204f70657261746f722c2043616e6e6f74204f706572617465000000006000830152602082019050919050565b6000610dfd600c8361117b565b91507f5a45524f204144445245535300000000000000000000000000000000000000006000830152602082019050919050565b6000610e3d60308361117b565b91507f546f6b656e206973206e6f742076616c69642c206f72206e6f74206f6e20736160008301527f6c65206279207468652073656c6c6572000000000000000000000000000000006020830152604082019050919050565b6000610ea360248361117b565b91507f416464726573733a207374617469632063616c6c20746f206e6f6e2d636f6e7460008301527f72616374000000000000000000000000000000000000000000000000000000006020830152604082019050919050565b6000610f09601d8361117b565b91507f416464726573733a2063616c6c20746f206e6f6e2d636f6e74726163740000006000830152602082019050919050565b610f45816111dc565b82525050565b6000610f578284610ca0565b915081905092915050565b6000602082019050610f776000830184610c82565b92915050565b6000604082019050610f926000830185610c82565b610f9f6020830184610c82565b9392505050565b6000606082019050610fbb6000830186610c82565b610fc86020830185610c82565b610fd56040830184610f3c565b949350505050565b6000608082019050610ff26000830187610c82565b610fff6020830186610c82565b61100c6040830185610f3c565b6110196060830184610f3c565b95945050505050565b60006020820190506110376000830184610c91565b92915050565b600060208201905081810360008301526110578184610cd1565b905092915050565b6000602082019050818103600083015261107881610d0a565b9050919050565b6000602082019050818103600083015261109881610d4a565b9050919050565b600060208201905081810360008301526110b881610db0565b9050919050565b600060208201905081810360008301526110d881610df0565b9050919050565b600060208201905081810360008301526110f881610e30565b9050919050565b6000602082019050818103600083015261111881610e96565b9050919050565b6000602082019050818103600083015261113881610efc565b9050919050565b60006020820190506111546000830184610f3c565b92915050565b600081519050919050565b600081519050919050565b600081905092915050565b600082825260208201905092915050565b6000611197826111bc565b9050919050565b60006111a9826111bc565b9050919050565b60008115159050919050565b600073ffffffffffffffffffffffffffffffffffffffff82169050919050565b6000819050919050565b60005b838110156112045780820151818401526020810190506111e9565b83811115611213576000848401525b50505050565b6000601f19601f8301169050919050565b6112338161118c565b811461123e57600080fd5b50565b61124a8161119e565b811461125557600080fd5b50565b611261816111b0565b811461126c57600080fd5b50565b611278816111dc565b811461128357600080fd5b5056fe416464726573733a206c6f772d6c6576656c207374617469632063616c6c206661696c6564a2646970667358221220f661c1e9664461d69dd998677cc3b7f19ead2e79c9d953f1039bda799d9dc92c64736f6c63430008000033",
  "immutableReferences": {},
  "source": "// SPDX-License-Identifier: MIT\npragma solidity ^0.8.0;\n\nimport \"./ownership/ownable.sol\";\nimport \"./utils/address-utils.sol\";\n\ncontract TradeMarket is Ownable {\n    /** @notice Log for a user that buys a token.\n     * @param buyer token buyer\n     * @param owner token owner\n     * @param token The token id.\n     * @param price The token price.\n     */\n    event LogBuyToken(\n        address buyer,\n        address owner,\n        uint256 token,\n        uint256 price\n    );\n\n    /** @notice Buy a token from marketplace.\n     * @dev Throws error unless the token is valid, token is on sale, and\n     * ethers sent is more than or equal item sale price.\n     * @param _buyer buyer address.\n     * @param _token The token id.\n     */\n    function buyToken(\n        address _buyer,\n        address payable _seller,\n        uint256 _token,\n        uint256 _price,\n        address _originalContractAddress\n    ) external payable returns (bool success) {\n        // Revert if the address is 0x000000\n        require(_buyer != address(0), \"ZERO ADDRESS\");\n        // Check if the ethers sent is equals or more than price\n        require(_price >= msg.value, \"Insufficient Funds\");\n        // Get the token owner\n        address tokenOwner = ownerOfToken(_originalContractAddress, _token);\n        require(\n            tokenOwner == _seller,\n            \"Token is not valid, or not on sale by the seller\"\n        );\n        // Check if the Trade market is operator\n        bool isOperator =\n            isAlreadyApproved(_originalContractAddress, tokenOwner);\n        require(isOperator, \"Not Operator, Cannot Operate\");\n        // Transfer Money or Ethers to Seller\n        _seller.transfer(_price);\n        // Transfer Token to the buyer\n        transferToken(_originalContractAddress, tokenOwner, _token, _buyer);\n        // Emit the transaction to log\n        emit LogBuyToken(_buyer, tokenOwner, _token, _price);\n        // Returns true\n        return true;\n    }\n\n    // Check if trade market is already approved to operate all user tokens.\n    function isAlreadyApproved(\n        address _originalContractAddress,\n        address _ownerAddess\n    ) internal view returns (bool status) {\n        bytes memory data =\n            abi.encodeWithSignature(\n                \"isApprovedForAll(address,address)\",\n                _ownerAddess,\n                address(this)\n            );\n        // Delegate Call and get the result\n        bytes memory result =\n            AddressUtils.functionStaticCall(_originalContractAddress, data);\n        bool decoded = abi.decode(result, (bool));\n        return decoded;\n    }\n\n    // Check the owner of the token\n    function ownerOfToken(address _originalContractAddress, uint256 _tokenId)\n        internal\n        view\n        returns (address owner)\n    {\n        bytes memory data =\n            abi.encodeWithSignature(\"ownerOf(uint256)\", _tokenId);\n        // Delegate Call and get the result\n        bytes memory result =\n            AddressUtils.functionStaticCall(_originalContractAddress, data);\n        address decoded = abi.decode(result, (address));\n        return decoded;\n    }\n\n    // Safe transfer from\n    function transferToken(\n        address _originalContractAddress,\n        address seller,\n        uint256 _tokenId,\n        address receiver\n    ) internal {\n        bytes memory data =\n            abi.encodeWithSignature(\n                \"safeTransferFrom(address,address,uint256)\",\n                seller,\n                receiver,\n                _tokenId\n            );\n        // Delegate Call and get the result\n        AddressUtils.functionCall(_originalContractAddress, data);\n    }\n}\n",
  "sourcePath": "/Users/fahmi/Downloads/Fahmi Learn/Blockchain/ScratchNFT/Belajar-NFT-Part-1/contracts/TradeMarket.sol",
  "compiler": {
    "name": "solc",
    "version": "0.8.0+commit.c7dfd78e.Emscripten.clang"
  },
  "schemaVersion": "3.3.4",
  "updatedAt": "2021-03-30T09:31:52.476Z",
  "devdoc": {
    "events": {
      "LogBuyToken(address,address,uint256,uint256)": {
        "params": {
          "buyer": "token buyer",
          "owner": "token owner",
          "price": "The token price.",
          "token": "The token id."
        }
      }
    },
    "kind": "dev",
    "methods": {
      "buyToken(address,address,uint256,uint256,address)": {
        "details": "Throws error unless the token is valid, token is on sale, and ethers sent is more than or equal item sale price.",
        "params": {
          "_buyer": "buyer address.",
          "_token": "The token id."
        }
      },
      "transferOwnership(address)": {
        "details": "Allows the current owner to transfer control of the contract to a newOwner.",
        "params": {
          "_newOwner": "The address to transfer ownership to."
        }
      }
    },
    "version": 1
  },
  "userdoc": {
    "events": {
      "LogBuyToken(address,address,uint256,uint256)": {
        "notice": "Log for a user that buys a token."
      }
    },
    "kind": "user",
    "methods": {
      "buyToken(address,address,uint256,uint256,address)": {
        "notice": "Buy a token from marketplace."
      }
    },
    "version": 1
  }
}