{
  "contractName": "UserContract",
  "abi": [
    {
      "inputs": [
        {
          "internalType": "string",
          "name": "contractName",
          "type": "string"
        },
        {
          "internalType": "string",
          "name": "contractSymbol",
          "type": "string"
        }
      ],
      "stateMutability": "nonpayable",
      "type": "constructor"
    },
    {
      "anonymous": false,
      "inputs": [
        {
          "indexed": true,
          "internalType": "address",
          "name": "_owner",
          "type": "address"
        },
        {
          "indexed": true,
          "internalType": "address",
          "name": "_approved",
          "type": "address"
        },
        {
          "indexed": true,
          "internalType": "uint256",
          "name": "_tokenId",
          "type": "uint256"
        }
      ],
      "name": "Approval",
      "type": "event"
    },
    {
      "anonymous": false,
      "inputs": [
        {
          "indexed": true,
          "internalType": "address",
          "name": "_owner",
          "type": "address"
        },
        {
          "indexed": true,
          "internalType": "address",
          "name": "_operator",
          "type": "address"
        },
        {
          "indexed": false,
          "internalType": "bool",
          "name": "_approved",
          "type": "bool"
        }
      ],
      "name": "ApprovalForAll",
      "type": "event"
    },
    {
      "anonymous": false,
      "inputs": [
        {
          "indexed": true,
          "internalType": "address",
          "name": "previousOwner",
          "type": "address"
        },
        {
          "indexed": true,
          "internalType": "address",
          "name": "newOwner",
          "type": "address"
        }
      ],
      "name": "OwnershipTransferred",
      "type": "event"
    },
    {
      "anonymous": false,
      "inputs": [
        {
          "indexed": true,
          "internalType": "address",
          "name": "_from",
          "type": "address"
        },
        {
          "indexed": true,
          "internalType": "address",
          "name": "_to",
          "type": "address"
        },
        {
          "indexed": true,
          "internalType": "uint256",
          "name": "_tokenId",
          "type": "uint256"
        }
      ],
      "name": "Transfer",
      "type": "event"
    },
    {
      "inputs": [],
      "name": "CANNOT_TRANSFER_TO_ZERO_ADDRESS",
      "outputs": [
        {
          "internalType": "string",
          "name": "",
          "type": "string"
        }
      ],
      "stateMutability": "view",
      "type": "function"
    },
    {
      "inputs": [],
      "name": "NOT_CURRENT_OWNER",
      "outputs": [
        {
          "internalType": "string",
          "name": "",
          "type": "string"
        }
      ],
      "stateMutability": "view",
      "type": "function"
    },
    {
      "inputs": [
        {
          "internalType": "address",
          "name": "_approved",
          "type": "address"
        },
        {
          "internalType": "uint256",
          "name": "_tokenId",
          "type": "uint256"
        }
      ],
      "name": "approve",
      "outputs": [],
      "stateMutability": "nonpayable",
      "type": "function"
    },
    {
      "inputs": [
        {
          "internalType": "address",
          "name": "_owner",
          "type": "address"
        }
      ],
      "name": "balanceOf",
      "outputs": [
        {
          "internalType": "uint256",
          "name": "",
          "type": "uint256"
        }
      ],
      "stateMutability": "view",
      "type": "function"
    },
    {
      "inputs": [
        {
          "internalType": "uint256",
          "name": "_tokenId",
          "type": "uint256"
        }
      ],
      "name": "getApproved",
      "outputs": [
        {
          "internalType": "address",
          "name": "",
          "type": "address"
        }
      ],
      "stateMutability": "view",
      "type": "function"
    },
    {
      "inputs": [
        {
          "internalType": "address",
          "name": "_owner",
          "type": "address"
        },
        {
          "internalType": "address",
          "name": "_operator",
          "type": "address"
        }
      ],
      "name": "isApprovedForAll",
      "outputs": [
        {
          "internalType": "bool",
          "name": "",
          "type": "bool"
        }
      ],
      "stateMutability": "view",
      "type": "function"
    },
    {
      "inputs": [],
      "name": "name",
      "outputs": [
        {
          "internalType": "string",
          "name": "_name",
          "type": "string"
        }
      ],
      "stateMutability": "view",
      "type": "function"
    },
    {
      "inputs": [],
      "name": "owner",
      "outputs": [
        {
          "internalType": "address",
          "name": "",
          "type": "address"
        }
      ],
      "stateMutability": "view",
      "type": "function"
    },
    {
      "inputs": [
        {
          "internalType": "uint256",
          "name": "_tokenId",
          "type": "uint256"
        }
      ],
      "name": "ownerOf",
      "outputs": [
        {
          "internalType": "address",
          "name": "_owner",
          "type": "address"
        }
      ],
      "stateMutability": "view",
      "type": "function"
    },
    {
      "inputs": [
        {
          "internalType": "address",
          "name": "_from",
          "type": "address"
        },
        {
          "internalType": "address",
          "name": "_to",
          "type": "address"
        },
        {
          "internalType": "uint256",
          "name": "_tokenId",
          "type": "uint256"
        }
      ],
      "name": "safeTransferFrom",
      "outputs": [],
      "stateMutability": "nonpayable",
      "type": "function"
    },
    {
      "inputs": [
        {
          "internalType": "address",
          "name": "_from",
          "type": "address"
        },
        {
          "internalType": "address",
          "name": "_to",
          "type": "address"
        },
        {
          "internalType": "uint256",
          "name": "_tokenId",
          "type": "uint256"
        },
        {
          "internalType": "bytes",
          "name": "_data",
          "type": "bytes"
        }
      ],
      "name": "safeTransferFrom",
      "outputs": [],
      "stateMutability": "nonpayable",
      "type": "function"
    },
    {
      "inputs": [
        {
          "internalType": "address",
          "name": "_operator",
          "type": "address"
        },
        {
          "internalType": "bool",
          "name": "_approved",
          "type": "bool"
        }
      ],
      "name": "setApprovalForAll",
      "outputs": [],
      "stateMutability": "nonpayable",
      "type": "function"
    },
    {
      "inputs": [
        {
          "internalType": "bytes4",
          "name": "_interfaceID",
          "type": "bytes4"
        }
      ],
      "name": "supportsInterface",
      "outputs": [
        {
          "internalType": "bool",
          "name": "",
          "type": "bool"
        }
      ],
      "stateMutability": "view",
      "type": "function"
    },
    {
      "inputs": [],
      "name": "symbol",
      "outputs": [
        {
          "internalType": "string",
          "name": "_symbol",
          "type": "string"
        }
      ],
      "stateMutability": "view",
      "type": "function"
    },
    {
      "inputs": [
        {
          "internalType": "uint256",
          "name": "_tokenId",
          "type": "uint256"
        }
      ],
      "name": "tokenURI",
      "outputs": [
        {
          "internalType": "string",
          "name": "",
          "type": "string"
        }
      ],
      "stateMutability": "view",
      "type": "function"
    },
    {
      "inputs": [],
      "name": "totalToken",
      "outputs": [
        {
          "internalType": "uint256",
          "name": "",
          "type": "uint256"
        }
      ],
      "stateMutability": "view",
      "type": "function"
    },
    {
      "inputs": [
        {
          "internalType": "address",
          "name": "_from",
          "type": "address"
        },
        {
          "internalType": "address",
          "name": "_to",
          "type": "address"
        },
        {
          "internalType": "uint256",
          "name": "_tokenId",
          "type": "uint256"
        }
      ],
      "name": "transferFrom",
      "outputs": [],
      "stateMutability": "nonpayable",
      "type": "function"
    },
    {
      "inputs": [
        {
          "internalType": "address",
          "name": "_newOwner",
          "type": "address"
        }
      ],
      "name": "transferOwnership",
      "outputs": [],
      "stateMutability": "nonpayable",
      "type": "function"
    },
    {
      "inputs": [
        {
          "internalType": "address",
          "name": "_to",
          "type": "address"
        },
        {
          "internalType": "uint256",
          "name": "_tokenId",
          "type": "uint256"
        },
        {
          "internalType": "string",
          "name": "_uri",
          "type": "string"
        }
      ],
      "name": "mint",
      "outputs": [],
      "stateMutability": "nonpayable",
      "type": "function"
    },
    {
      "inputs": [
        {
          "internalType": "uint256",
          "name": "_tokenId",
          "type": "uint256"
        }
      ],
      "name": "burn",
      "outputs": [],
      "stateMutability": "nonpayable",
      "type": "function"
    }
  ],
  "bytecode": "0x60806040523480156200001157600080fd5b50604051620036a8380380620036a88339818101604052810190620000379190620002c7565b60016000806301ffc9a760e01b7bffffffffffffffffffffffffffffffffffffffffffffffffffffffff1916815260200190815260200160002060006101000a81548160ff02191690831515021790555060016000806380ac58cd60e01b7bffffffffffffffffffffffffffffffffffffffffffffffffffffffff1916815260200190815260200160002060006101000a81548160ff0219169083151502179055506001600080635b5e139f60e01b7bffffffffffffffffffffffffffffffffffffffffffffffffffffffff1916815260200190815260200160002060006101000a81548160ff02191690831515021790555033600960006101000a81548173ffffffffffffffffffffffffffffffffffffffff021916908373ffffffffffffffffffffffffffffffffffffffff160217905550816005908051906020019062000183929190620001a5565b5080600690805190602001906200019c929190620001a5565b5050506200046b565b828054620001b390620003d7565b90600052602060002090601f016020900481019282620001d7576000855562000223565b82601f10620001f257805160ff191683800117855562000223565b8280016001018555821562000223579182015b828111156200022257825182559160200191906001019062000205565b5b50905062000232919062000236565b5090565b5b808211156200025157600081600090555060010162000237565b5090565b60006200026c62000266846200036e565b6200033a565b9050828152602081018484840111156200028557600080fd5b62000292848285620003a1565b509392505050565b600082601f830112620002ac57600080fd5b8151620002be84826020860162000255565b91505092915050565b60008060408385031215620002db57600080fd5b600083015167ffffffffffffffff811115620002f657600080fd5b62000304858286016200029a565b925050602083015167ffffffffffffffff8111156200032257600080fd5b62000330858286016200029a565b9150509250929050565b6000604051905081810181811067ffffffffffffffff821117156200036457620003636200043c565b5b8060405250919050565b600067ffffffffffffffff8211156200038c576200038b6200043c565b5b601f19601f8301169050602081019050919050565b60005b83811015620003c1578082015181840152602081019050620003a4565b83811115620003d1576000848401525b50505050565b60006002820490506001821680620003f057607f821691505b602082108114156200040757620004066200040d565b5b50919050565b7f4e487b7100000000000000000000000000000000000000000000000000000000600052602260045260246000fd5b7f4e487b7100000000000000000000000000000000000000000000000000000000600052604160045260246000fd5b61322d806200047b6000396000f3fe608060405234801561001057600080fd5b506004361061012c5760003560e01c8063860d248a116100ad578063c87b56dd11610071578063c87b56dd1461032f578063d3fc98641461035f578063e985e9c51461037b578063f2fde38b146103ab578063f3fe3bc3146103c75761012c565b8063860d248a1461029d5780638da5cb5b146102bb57806395d89b41146102d9578063a22cb465146102f7578063b88d4fde146103135761012c565b806342842e0e116100f457806342842e0e146101e757806342966c6814610203578063626be5671461021f5780636352211e1461023d57806370a082311461026d5761012c565b806301ffc9a71461013157806306fdde0314610161578063081812fc1461017f578063095ea7b3146101af57806323b872dd146101cb575b600080fd5b61014b60048036038101906101469190612db8565b6103e5565b6040516101589190612f39565b60405180910390f35b61016961044c565b6040516101769190612f54565b60405180910390f35b61019960048036038101906101949190612e0a565b6104de565b6040516101a69190612ed2565b60405180910390f35b6101c960048036038101906101c49190612d10565b6105f9565b005b6101e560048036038101906101e09190612c05565b6109dc565b005b61020160048036038101906101fc9190612c05565b610e2e565b005b61021d60048036038101906102189190612e0a565b610e4e565b005b610227610f23565b6040516102349190612f76565b60405180910390f35b61025760048036038101906102529190612e0a565b610f30565b6040516102649190612ed2565b60405180910390f35b61028760048036038101906102829190612ba0565b611016565b6040516102949190612f76565b60405180910390f35b6102a56110d0565b6040516102b29190612f54565b60405180910390f35b6102c3611109565b6040516102d09190612ed2565b60405180910390f35b6102e161112f565b6040516102ee9190612f54565b60405180910390f35b610311600480360381019061030c9190612cd4565b6111c1565b005b61032d60048036038101906103289190612c54565b6112be565b005b61034960048036038101906103449190612e0a565b611315565b6040516103569190612f54565b60405180910390f35b61037960048036038101906103749190612d4c565b611498565b005b61039560048036038101906103909190612bc9565b6115c8565b6040516103a29190612f39565b60405180910390f35b6103c560048036038101906103c09190612ba0565b61165c565b005b6103cf61188e565b6040516103dc9190612f54565b60405180910390f35b6000806000837bffffffffffffffffffffffffffffffffffffffffffffffffffffffff19167bffffffffffffffffffffffffffffffffffffffffffffffffffffffff1916815260200190815260200160002060009054906101000a900460ff169050919050565b60606005805461045b906130fa565b80601f0160208091040260200160405190810160405280929190818152602001828054610487906130fa565b80156104d45780601f106104a9576101008083540402835291602001916104d4565b820191906000526020600020905b8154815290600101906020018083116104b757829003601f168201915b5050505050905090565b600081600073ffffffffffffffffffffffffffffffffffffffff166001600083815260200190815260200160002060009054906101000a900473ffffffffffffffffffffffffffffffffffffffff1673ffffffffffffffffffffffffffffffffffffffff1614156040518060400160405280600681526020017f3030333030320000000000000000000000000000000000000000000000000000815250906105bc576040517f08c379a00000000000000000000000000000000000000000000000000000000081526004016105b39190612f54565b60405180910390fd5b506002600084815260200190815260200160002060009054906101000a900473ffffffffffffffffffffffffffffffffffffffff16915050919050565b8060006001600083815260200190815260200160002060009054906101000a900473ffffffffffffffffffffffffffffffffffffffff1690503373ffffffffffffffffffffffffffffffffffffffff168173ffffffffffffffffffffffffffffffffffffffff1614806106f25750600460008273ffffffffffffffffffffffffffffffffffffffff1673ffffffffffffffffffffffffffffffffffffffff16815260200190815260200160002060003373ffffffffffffffffffffffffffffffffffffffff1673ffffffffffffffffffffffffffffffffffffffff16815260200190815260200160002060009054906101000a900460ff165b6040518060400160405280600681526020017f303033303033000000000000000000000000000000000000000000000000000081525090610769576040517f08c379a00000000000000000000000000000000000000000000000000000000081526004016107609190612f54565b60405180910390fd5b5082600073ffffffffffffffffffffffffffffffffffffffff166001600083815260200190815260200160002060009054906101000a900473ffffffffffffffffffffffffffffffffffffffff1673ffffffffffffffffffffffffffffffffffffffff1614156040518060400160405280600681526020017f303033303032000000000000000000000000000000000000000000000000000081525090610846576040517f08c379a000000000000000000000000000000000000000000000000000000000815260040161083d9190612f54565b60405180910390fd5b5060006001600086815260200190815260200160002060009054906101000a900473ffffffffffffffffffffffffffffffffffffffff1690508073ffffffffffffffffffffffffffffffffffffffff168673ffffffffffffffffffffffffffffffffffffffff1614156040518060400160405280600681526020017f303033303038000000000000000000000000000000000000000000000000000081525090610926576040517f08c379a000000000000000000000000000000000000000000000000000000000815260040161091d9190612f54565b60405180910390fd5b50856002600087815260200190815260200160002060006101000a81548173ffffffffffffffffffffffffffffffffffffffff021916908373ffffffffffffffffffffffffffffffffffffffff160217905550848673ffffffffffffffffffffffffffffffffffffffff168273ffffffffffffffffffffffffffffffffffffffff167f8c5be1e5ebec7d5bd14f71427d1e84f3dd0314c0f7b2291e5b200ac8c7c3b92560405160405180910390a4505050505050565b8060006001600083815260200190815260200160002060009054906101000a900473ffffffffffffffffffffffffffffffffffffffff1690503373ffffffffffffffffffffffffffffffffffffffff168173ffffffffffffffffffffffffffffffffffffffff161480610aad57503373ffffffffffffffffffffffffffffffffffffffff166002600084815260200190815260200160002060009054906101000a900473ffffffffffffffffffffffffffffffffffffffff1673ffffffffffffffffffffffffffffffffffffffff16145b80610b3e5750600460008273ffffffffffffffffffffffffffffffffffffffff1673ffffffffffffffffffffffffffffffffffffffff16815260200190815260200160002060003373ffffffffffffffffffffffffffffffffffffffff1673ffffffffffffffffffffffffffffffffffffffff16815260200190815260200160002060009054906101000a900460ff165b6040518060400160405280600681526020017f303033303034000000000000000000000000000000000000000000000000000081525090610bb5576040517f08c379a0000000000000000000000000000000000000000000000000000000008152600401610bac9190612f54565b60405180910390fd5b5082600073ffffffffffffffffffffffffffffffffffffffff166001600083815260200190815260200160002060009054906101000a900473ffffffffffffffffffffffffffffffffffffffff1673ffffffffffffffffffffffffffffffffffffffff1614156040518060400160405280600681526020017f303033303032000000000000000000000000000000000000000000000000000081525090610c92576040517f08c379a0000000000000000000000000000000000000000000000000000000008152600401610c899190612f54565b60405180910390fd5b5060006001600086815260200190815260200160002060009054906101000a900473ffffffffffffffffffffffffffffffffffffffff1690508673ffffffffffffffffffffffffffffffffffffffff168173ffffffffffffffffffffffffffffffffffffffff16146040518060400160405280600681526020017f303033303037000000000000000000000000000000000000000000000000000081525090610d71576040517f08c379a0000000000000000000000000000000000000000000000000000000008152600401610d689190612f54565b60405180910390fd5b50600073ffffffffffffffffffffffffffffffffffffffff168673ffffffffffffffffffffffffffffffffffffffff1614156040518060400160405280600681526020017f303033303031000000000000000000000000000000000000000000000000000081525090610e1a576040517f08c379a0000000000000000000000000000000000000000000000000000000008152600401610e119190612f54565b60405180910390fd5b50610e2586866118c7565b50505050505050565b610e498383836040518060200160405280600081525061197c565b505050565b600960009054906101000a900473ffffffffffffffffffffffffffffffffffffffff1673ffffffffffffffffffffffffffffffffffffffff163373ffffffffffffffffffffffffffffffffffffffff16146040518060400160405280600681526020017f303138303031000000000000000000000000000000000000000000000000000081525090610f16576040517f08c379a0000000000000000000000000000000000000000000000000000000008152600401610f0d9190612f54565b60405180910390fd5b50610f2081611f4a565b50565b6000600880549050905090565b60006001600083815260200190815260200160002060009054906101000a900473ffffffffffffffffffffffffffffffffffffffff169050600073ffffffffffffffffffffffffffffffffffffffff168173ffffffffffffffffffffffffffffffffffffffff1614156040518060400160405280600681526020017f303033303032000000000000000000000000000000000000000000000000000081525090611010576040517f08c379a00000000000000000000000000000000000000000000000000000000081526004016110079190612f54565b60405180910390fd5b50919050565b60008073ffffffffffffffffffffffffffffffffffffffff168273ffffffffffffffffffffffffffffffffffffffff1614156040518060400160405280600681526020017f3030333030310000000000000000000000000000000000000000000000000000815250906110bf576040517f08c379a00000000000000000000000000000000000000000000000000000000081526004016110b69190612f54565b60405180910390fd5b506110c982611f9d565b9050919050565b6040518060400160405280600681526020017f303138303032000000000000000000000000000000000000000000000000000081525081565b600960009054906101000a900473ffffffffffffffffffffffffffffffffffffffff1681565b60606006805461113e906130fa565b80601f016020809104026020016040519081016040528092919081815260200182805461116a906130fa565b80156111b75780601f1061118c576101008083540402835291602001916111b7565b820191906000526020600020905b81548152906001019060200180831161119a57829003601f168201915b5050505050905090565b80600460003373ffffffffffffffffffffffffffffffffffffffff1673ffffffffffffffffffffffffffffffffffffffff16815260200190815260200160002060008473ffffffffffffffffffffffffffffffffffffffff1673ffffffffffffffffffffffffffffffffffffffff16815260200190815260200160002060006101000a81548160ff0219169083151502179055508173ffffffffffffffffffffffffffffffffffffffff163373ffffffffffffffffffffffffffffffffffffffff167f17307eab39ab6107e8899845ad3d59bd9653f200f220920489ca2b5937696c31836040516112b29190612f39565b60405180910390a35050565b61130e85858585858080601f016020809104026020016040519081016040528093929190818152602001838380828437600081840152601f19601f8201169050808301925050505050505061197c565b5050505050565b606081600073ffffffffffffffffffffffffffffffffffffffff166001600083815260200190815260200160002060009054906101000a900473ffffffffffffffffffffffffffffffffffffffff1673ffffffffffffffffffffffffffffffffffffffff1614156040518060400160405280600681526020017f3030333030320000000000000000000000000000000000000000000000000000815250906113f3576040517f08c379a00000000000000000000000000000000000000000000000000000000081526004016113ea9190612f54565b60405180910390fd5b50600760008481526020019081526020016000208054611412906130fa565b80601f016020809104026020016040519081016040528092919081815260200182805461143e906130fa565b801561148b5780601f106114605761010080835404028352916020019161148b565b820191906000526020600020905b81548152906001019060200180831161146e57829003601f168201915b5050505050915050919050565b600960009054906101000a900473ffffffffffffffffffffffffffffffffffffffff1673ffffffffffffffffffffffffffffffffffffffff163373ffffffffffffffffffffffffffffffffffffffff16146040518060400160405280600681526020017f303138303031000000000000000000000000000000000000000000000000000081525090611560576040517f08c379a00000000000000000000000000000000000000000000000000000000081526004016115579190612f54565b60405180910390fd5b5061156b8484611fe6565b6115b98383838080601f016020809104026020016040519081016040528093929190818152602001838380828437600081840152601f19601f820116905080830192505050505050506121d4565b6115c2836122de565b50505050565b6000600460008473ffffffffffffffffffffffffffffffffffffffff1673ffffffffffffffffffffffffffffffffffffffff16815260200190815260200160002060008373ffffffffffffffffffffffffffffffffffffffff1673ffffffffffffffffffffffffffffffffffffffff16815260200190815260200160002060009054906101000a900460ff16905092915050565b600960009054906101000a900473ffffffffffffffffffffffffffffffffffffffff1673ffffffffffffffffffffffffffffffffffffffff163373ffffffffffffffffffffffffffffffffffffffff16146040518060400160405280600681526020017f303138303031000000000000000000000000000000000000000000000000000081525090611724576040517f08c379a000000000000000000000000000000000000000000000000000000000815260040161171b9190612f54565b60405180910390fd5b50600073ffffffffffffffffffffffffffffffffffffffff168173ffffffffffffffffffffffffffffffffffffffff1614156040518060400160405280600681526020017f3031383030320000000000000000000000000000000000000000000000000000815250906117cd576040517f08c379a00000000000000000000000000000000000000000000000000000000081526004016117c49190612f54565b60405180910390fd5b508073ffffffffffffffffffffffffffffffffffffffff16600960009054906101000a900473ffffffffffffffffffffffffffffffffffffffff1673ffffffffffffffffffffffffffffffffffffffff167f8be0079c531659141344cd1fd0a4f28419497f9722a3daafe3b4186f6b6457e060405160405180910390a380600960006101000a81548173ffffffffffffffffffffffffffffffffffffffff021916908373ffffffffffffffffffffffffffffffffffffffff16021790555050565b6040518060400160405280600681526020017f303138303031000000000000000000000000000000000000000000000000000081525081565b60006001600083815260200190815260200160002060009054906101000a900473ffffffffffffffffffffffffffffffffffffffff169050611908826123e8565b6119128183612489565b61191c838361262c565b818373ffffffffffffffffffffffffffffffffffffffff168273ffffffffffffffffffffffffffffffffffffffff167fddf252ad1be2c89b69c2b068fc378daa952ba7f163c4a11628f55a4df523b3ef60405160405180910390a4505050565b8160006001600083815260200190815260200160002060009054906101000a900473ffffffffffffffffffffffffffffffffffffffff1690503373ffffffffffffffffffffffffffffffffffffffff168173ffffffffffffffffffffffffffffffffffffffff161480611a4d57503373ffffffffffffffffffffffffffffffffffffffff166002600084815260200190815260200160002060009054906101000a900473ffffffffffffffffffffffffffffffffffffffff1673ffffffffffffffffffffffffffffffffffffffff16145b80611ade5750600460008273ffffffffffffffffffffffffffffffffffffffff1673ffffffffffffffffffffffffffffffffffffffff16815260200190815260200160002060003373ffffffffffffffffffffffffffffffffffffffff1673ffffffffffffffffffffffffffffffffffffffff16815260200190815260200160002060009054906101000a900460ff165b6040518060400160405280600681526020017f303033303034000000000000000000000000000000000000000000000000000081525090611b55576040517f08c379a0000000000000000000000000000000000000000000000000000000008152600401611b4c9190612f54565b60405180910390fd5b5083600073ffffffffffffffffffffffffffffffffffffffff166001600083815260200190815260200160002060009054906101000a900473ffffffffffffffffffffffffffffffffffffffff1673ffffffffffffffffffffffffffffffffffffffff1614156040518060400160405280600681526020017f303033303032000000000000000000000000000000000000000000000000000081525090611c32576040517f08c379a0000000000000000000000000000000000000000000000000000000008152600401611c299190612f54565b60405180910390fd5b5060006001600087815260200190815260200160002060009054906101000a900473ffffffffffffffffffffffffffffffffffffffff1690508773ffffffffffffffffffffffffffffffffffffffff168173ffffffffffffffffffffffffffffffffffffffff16146040518060400160405280600681526020017f303033303037000000000000000000000000000000000000000000000000000081525090611d11576040517f08c379a0000000000000000000000000000000000000000000000000000000008152600401611d089190612f54565b60405180910390fd5b50600073ffffffffffffffffffffffffffffffffffffffff168773ffffffffffffffffffffffffffffffffffffffff1614156040518060400160405280600681526020017f303033303031000000000000000000000000000000000000000000000000000081525090611dba576040517f08c379a0000000000000000000000000000000000000000000000000000000008152600401611db19190612f54565b60405180910390fd5b50611dc587876118c7565b611de48773ffffffffffffffffffffffffffffffffffffffff166127ec565b15611f405760008773ffffffffffffffffffffffffffffffffffffffff1663150b7a02338b8a8a6040518563ffffffff1660e01b8152600401611e2a9493929190612eed565b602060405180830381600087803b158015611e4457600080fd5b505af1158015611e58573d6000803e3d6000fd5b505050506040513d601f19601f82011682018060405250810190611e7c9190612de1565b905063150b7a0260e01b7bffffffffffffffffffffffffffffffffffffffffffffffffffffffff1916817bffffffffffffffffffffffffffffffffffffffffffffffffffffffff1916146040518060400160405280600681526020017f303033303035000000000000000000000000000000000000000000000000000081525090611f3d576040517f08c379a0000000000000000000000000000000000000000000000000000000008152600401611f349190612f54565b60405180910390fd5b50505b5050505050505050565b611f5381612837565b6000600760008381526020019081526020016000208054611f73906130fa565b905014611f9a57600760008281526020019081526020016000206000611f9991906129c0565b5b50565b6000600360008373ffffffffffffffffffffffffffffffffffffffff1673ffffffffffffffffffffffffffffffffffffffff168152602001908152602001600020549050919050565b600073ffffffffffffffffffffffffffffffffffffffff168273ffffffffffffffffffffffffffffffffffffffff1614156040518060400160405280600681526020017f30303330303100000000000000000000000000000000000000000000000000008152509061208e576040517f08c379a00000000000000000000000000000000000000000000000000000000081526004016120859190612f54565b60405180910390fd5b50600073ffffffffffffffffffffffffffffffffffffffff166001600083815260200190815260200160002060009054906101000a900473ffffffffffffffffffffffffffffffffffffffff1673ffffffffffffffffffffffffffffffffffffffff16146040518060400160405280600681526020017f303033303036000000000000000000000000000000000000000000000000000081525090612169576040517f08c379a00000000000000000000000000000000000000000000000000000000081526004016121609190612f54565b60405180910390fd5b50612174828261262c565b808273ffffffffffffffffffffffffffffffffffffffff16600073ffffffffffffffffffffffffffffffffffffffff167fddf252ad1be2c89b69c2b068fc378daa952ba7f163c4a11628f55a4df523b3ef60405160405180910390a45050565b81600073ffffffffffffffffffffffffffffffffffffffff166001600083815260200190815260200160002060009054906101000a900473ffffffffffffffffffffffffffffffffffffffff1673ffffffffffffffffffffffffffffffffffffffff1614156040518060400160405280600681526020017f3030333030320000000000000000000000000000000000000000000000000000815250906122b0576040517f08c379a00000000000000000000000000000000000000000000000000000000081526004016122a79190612f54565b60405180910390fd5b50816007600085815260200190815260200160002090805190602001906122d8929190612a00565b50505050565b80600073ffffffffffffffffffffffffffffffffffffffff166001600083815260200190815260200160002060009054906101000a900473ffffffffffffffffffffffffffffffffffffffff1673ffffffffffffffffffffffffffffffffffffffff1614156040518060400160405280600681526020017f3030333030320000000000000000000000000000000000000000000000000000815250906123ba576040517f08c379a00000000000000000000000000000000000000000000000000000000081526004016123b19190612f54565b60405180910390fd5b5060088290806001815401808255809150506001900390600052602060002001600090919091909150555050565b600073ffffffffffffffffffffffffffffffffffffffff166002600083815260200190815260200160002060009054906101000a900473ffffffffffffffffffffffffffffffffffffffff1673ffffffffffffffffffffffffffffffffffffffff1614612486576002600082815260200190815260200160002060006101000a81549073ffffffffffffffffffffffffffffffffffffffff02191690555b50565b8173ffffffffffffffffffffffffffffffffffffffff166001600083815260200190815260200160002060009054906101000a900473ffffffffffffffffffffffffffffffffffffffff1673ffffffffffffffffffffffffffffffffffffffff16146040518060400160405280600681526020017f303033303037000000000000000000000000000000000000000000000000000081525090612562576040517f08c379a00000000000000000000000000000000000000000000000000000000081526004016125599190612f54565b60405180910390fd5b506001600360008473ffffffffffffffffffffffffffffffffffffffff1673ffffffffffffffffffffffffffffffffffffffff168152602001908152602001600020546125af919061301f565b600360008473ffffffffffffffffffffffffffffffffffffffff1673ffffffffffffffffffffffffffffffffffffffff168152602001908152602001600020819055506001600082815260200190815260200160002060006101000a81549073ffffffffffffffffffffffffffffffffffffffff02191690555050565b600073ffffffffffffffffffffffffffffffffffffffff166001600083815260200190815260200160002060009054906101000a900473ffffffffffffffffffffffffffffffffffffffff1673ffffffffffffffffffffffffffffffffffffffff16146040518060400160405280600681526020017f303033303036000000000000000000000000000000000000000000000000000081525090612706576040517f08c379a00000000000000000000000000000000000000000000000000000000081526004016126fd9190612f54565b60405180910390fd5b50816001600083815260200190815260200160002060006101000a81548173ffffffffffffffffffffffffffffffffffffffff021916908373ffffffffffffffffffffffffffffffffffffffff1602179055506001600360008473ffffffffffffffffffffffffffffffffffffffff1673ffffffffffffffffffffffffffffffffffffffff168152602001908152602001600020546127a59190612fc9565b600360008473ffffffffffffffffffffffffffffffffffffffff1673ffffffffffffffffffffffffffffffffffffffff168152602001908152602001600020819055505050565b60008060007fc5d2460186f7233c927e7db2dcc703c0e500b653ca82273b7bfad8045d85a47060001b9050833f91506000801b821415801561282e5750808214155b92505050919050565b80600073ffffffffffffffffffffffffffffffffffffffff166001600083815260200190815260200160002060009054906101000a900473ffffffffffffffffffffffffffffffffffffffff1673ffffffffffffffffffffffffffffffffffffffff1614156040518060400160405280600681526020017f303033303032000000000000000000000000000000000000000000000000000081525090612913576040517f08c379a000000000000000000000000000000000000000000000000000000000815260040161290a9190612f54565b60405180910390fd5b5060006001600084815260200190815260200160002060009054906101000a900473ffffffffffffffffffffffffffffffffffffffff169050612955836123e8565b61295f8184612489565b82600073ffffffffffffffffffffffffffffffffffffffff168273ffffffffffffffffffffffffffffffffffffffff167fddf252ad1be2c89b69c2b068fc378daa952ba7f163c4a11628f55a4df523b3ef60405160405180910390a4505050565b5080546129cc906130fa565b6000825580601f106129de57506129fd565b601f0160209004906000526020600020908101906129fc9190612a86565b5b50565b828054612a0c906130fa565b90600052602060002090601f016020900481019282612a2e5760008555612a75565b82601f10612a4757805160ff1916838001178555612a75565b82800160010185558215612a75579182015b82811115612a74578251825591602001919060010190612a59565b5b509050612a829190612a86565b5090565b5b80821115612a9f576000816000905550600101612a87565b5090565b600081359050612ab28161319b565b92915050565b600081359050612ac7816131b2565b92915050565b600081359050612adc816131c9565b92915050565b600081519050612af1816131c9565b92915050565b60008083601f840112612b0957600080fd5b8235905067ffffffffffffffff811115612b2257600080fd5b602083019150836001820283011115612b3a57600080fd5b9250929050565b60008083601f840112612b5357600080fd5b8235905067ffffffffffffffff811115612b6c57600080fd5b602083019150836001820283011115612b8457600080fd5b9250929050565b600081359050612b9a816131e0565b92915050565b600060208284031215612bb257600080fd5b6000612bc084828501612aa3565b91505092915050565b60008060408385031215612bdc57600080fd5b6000612bea85828601612aa3565b9250506020612bfb85828601612aa3565b9150509250929050565b600080600060608486031215612c1a57600080fd5b6000612c2886828701612aa3565b9350506020612c3986828701612aa3565b9250506040612c4a86828701612b8b565b9150509250925092565b600080600080600060808688031215612c6c57600080fd5b6000612c7a88828901612aa3565b9550506020612c8b88828901612aa3565b9450506040612c9c88828901612b8b565b935050606086013567ffffffffffffffff811115612cb957600080fd5b612cc588828901612af7565b92509250509295509295909350565b60008060408385031215612ce757600080fd5b6000612cf585828601612aa3565b9250506020612d0685828601612ab8565b9150509250929050565b60008060408385031215612d2357600080fd5b6000612d3185828601612aa3565b9250506020612d4285828601612b8b565b9150509250929050565b60008060008060608587031215612d6257600080fd5b6000612d7087828801612aa3565b9450506020612d8187828801612b8b565b935050604085013567ffffffffffffffff811115612d9e57600080fd5b612daa87828801612b41565b925092505092959194509250565b600060208284031215612dca57600080fd5b6000612dd884828501612acd565b91505092915050565b600060208284031215612df357600080fd5b6000612e0184828501612ae2565b91505092915050565b600060208284031215612e1c57600080fd5b6000612e2a84828501612b8b565b91505092915050565b612e3c81613053565b82525050565b612e4b81613065565b82525050565b6000612e5c82612f91565b612e668185612fa7565b9350612e768185602086016130c7565b612e7f8161318a565b840191505092915050565b6000612e9582612f9c565b612e9f8185612fb8565b9350612eaf8185602086016130c7565b612eb88161318a565b840191505092915050565b612ecc816130bd565b82525050565b6000602082019050612ee76000830184612e33565b92915050565b6000608082019050612f026000830187612e33565b612f0f6020830186612e33565b612f1c6040830185612ec3565b8181036060830152612f2e8184612e51565b905095945050505050565b6000602082019050612f4e6000830184612e42565b92915050565b60006020820190508181036000830152612f6e8184612e8a565b905092915050565b6000602082019050612f8b6000830184612ec3565b92915050565b600081519050919050565b600081519050919050565b600082825260208201905092915050565b600082825260208201905092915050565b6000612fd4826130bd565b9150612fdf836130bd565b9250827fffffffffffffffffffffffffffffffffffffffffffffffffffffffffffffffff038211156130145761301361312c565b5b828201905092915050565b600061302a826130bd565b9150613035836130bd565b9250828210156130485761304761312c565b5b828203905092915050565b600061305e8261309d565b9050919050565b60008115159050919050565b60007fffffffff0000000000000000000000000000000000000000000000000000000082169050919050565b600073ffffffffffffffffffffffffffffffffffffffff82169050919050565b6000819050919050565b60005b838110156130e55780820151818401526020810190506130ca565b838111156130f4576000848401525b50505050565b6000600282049050600182168061311257607f821691505b602082108114156131265761312561315b565b5b50919050565b7f4e487b7100000000000000000000000000000000000000000000000000000000600052601160045260246000fd5b7f4e487b7100000000000000000000000000000000000000000000000000000000600052602260045260246000fd5b6000601f19601f8301169050919050565b6131a481613053565b81146131af57600080fd5b50565b6131bb81613065565b81146131c657600080fd5b50565b6131d281613071565b81146131dd57600080fd5b50565b6131e9816130bd565b81146131f457600080fd5b5056fea2646970667358221220c534d91588454e3c0e358197a95cffee1324c5a434833e3b32be130e1231d82f64736f6c63430008000033",
  "immutableReferences": {},
  "source": "// File: contracts/tokens/erc721.sol\n\n// SPDX-License-Identifier: MIT\npragma solidity >=0.4.22 <0.9.0;\n\n/**\n * @dev ERC-721 non-fungible token standard.\n * See https://github.com/ethereum/EIPs/blob/master/EIPS/eip-721.md.\n */\ninterface ERC721 {\n    /**\n     * @dev Emits when ownership of any NFT changes by any mechanism. This event emits when NFTs are\n     * created (`from` == 0) and destroyed (`to` == 0). Exception: during contract creation, any\n     * number of NFTs may be created and assigned without emitting Transfer. At the time of any\n     * transfer, the approved address for that NFT (if any) is reset to none.\n     */\n    event Transfer(\n        address indexed _from,\n        address indexed _to,\n        uint256 indexed _tokenId\n    );\n\n    /**\n     * @dev This emits when the approved address for an NFT is changed or reaffirmed. The zero\n     * address indicates there is no approved address. When a Transfer event emits, this also\n     * indicates that the approved address for that NFT (if any) is reset to none.\n     */\n    event Approval(\n        address indexed _owner,\n        address indexed _approved,\n        uint256 indexed _tokenId\n    );\n\n    /**\n     * @dev This emits when an operator is enabled or disabled for an owner. The operator can manage\n     * all NFTs of the owner.\n     */\n    event ApprovalForAll(\n        address indexed _owner,\n        address indexed _operator,\n        bool _approved\n    );\n\n    /**\n     * @dev Transfers the ownership of an NFT from one address to another address.\n     * @notice Throws unless `msg.sender` is the current owner, an authorized operator, or the\n     * approved address for this NFT. Throws if `_from` is not the current owner. Throws if `_to` is\n     * the zero address. Throws if `_tokenId` is not a valid NFT. When transfer is complete, this\n     * function checks if `_to` is a smart contract (code size > 0). If so, it calls\n     * `onERC721Received` on `_to` and throws if the return value is not\n     * `bytes4(keccak256(\"onERC721Received(address,uint256,bytes)\"))`.\n     * @param _from The current owner of the NFT.\n     * @param _to The new owner.\n     * @param _tokenId The NFT to transfer.\n     * @param _data Additional data with no specified format, sent in call to `_to`.\n     */\n    function safeTransferFrom(\n        address _from,\n        address _to,\n        uint256 _tokenId,\n        bytes calldata _data\n    ) external;\n\n    /**\n     * @dev Transfers the ownership of an NFT from one address to another address.\n     * @notice This works identically to the other function with an extra data parameter, except this\n     * function just sets data to \"\"\n     * @param _from The current owner of the NFT.\n     * @param _to The new owner.\n     * @param _tokenId The NFT to transfer.\n     */\n    function safeTransferFrom(\n        address _from,\n        address _to,\n        uint256 _tokenId\n    ) external;\n\n    /**\n     * @dev Throws unless `msg.sender` is the current owner, an authorized operator, or the approved\n     * address for this NFT. Throws if `_from` is not the current owner. Throws if `_to` is the zero\n     * address. Throws if `_tokenId` is not a valid NFT.\n     * @notice The caller is responsible to confirm that `_to` is capable of receiving NFTs or else\n     * they mayb be permanently lost.\n     * @param _from The current owner of the NFT.\n     * @param _to The new owner.\n     * @param _tokenId The NFT to transfer.\n     */\n    function transferFrom(\n        address _from,\n        address _to,\n        uint256 _tokenId\n    ) external;\n\n    /**\n     * @dev Set or reaffirm the approved address for an NFT.\n     * @notice The zero address indicates there is no approved address. Throws unless `msg.sender` is\n     * the current NFT owner, or an authorized operator of the current owner.\n     * @param _approved The new approved NFT controller.\n     * @param _tokenId The NFT to approve.\n     */\n    function approve(address _approved, uint256 _tokenId) external;\n\n    /**\n     * @dev Enables or disables approval for a third party (\"operator\") to manage all of\n     * `msg.sender`'s assets. It also emits the ApprovalForAll event.\n     * @notice The contract MUST allow multiple operators per owner.\n     * @param _operator Address to add to the set of authorized operators.\n     * @param _approved True if the operators is approved, false to revoke approval.\n     */\n    function setApprovalForAll(address _operator, bool _approved) external;\n\n    /**\n     * @dev Returns the number of NFTs owned by `_owner`. NFTs assigned to the zero address are\n     * considered invalid, and this function throws for queries about the zero address.\n     * @param _owner Address for whom to query the balance.\n     * @return Balance of _owner.\n     */\n    function balanceOf(address _owner) external view returns (uint256);\n\n    /**\n     * @dev Returns the address of the owner of the NFT. NFTs assigned to zero address are considered\n     * invalid, and queries about them do throw.\n     * @param _tokenId The identifier for an NFT.\n     * @return Address of _tokenId owner.\n     */\n    function ownerOf(uint256 _tokenId) external view returns (address);\n\n    /**\n     * @dev Get the approved address for a single NFT.\n     * @notice Throws if `_tokenId` is not a valid NFT.\n     * @param _tokenId The NFT to find the approved address for.\n     * @return Address that _tokenId is approved for.\n     */\n    function getApproved(uint256 _tokenId) external view returns (address);\n\n    /**\n     * @dev Returns true if `_operator` is an approved operator for `_owner`, false otherwise.\n     * @param _owner The address that owns the NFTs.\n     * @param _operator The address that acts on behalf of the owner.\n     * @return True if approved for all, false otherwise.\n     */\n    function isApprovedForAll(address _owner, address _operator)\n        external\n        view\n        returns (bool);\n}\n\n// File: contracts/tokens/erc721-token-receiver.sol\n\npragma solidity >=0.4.22 <0.9.0;\n\n/**\n * @dev ERC-721 interface for accepting safe transfers.\n * See https://github.com/ethereum/EIPs/blob/master/EIPS/eip-721.md.\n */\ninterface ERC721TokenReceiver {\n    /**\n     * @dev Handle the receipt of a NFT. The ERC721 smart contract calls this function on the\n     * recipient after a `transfer`. This function MAY throw to revert and reject the transfer. Return\n     * of other than the magic value MUST result in the transaction being reverted.\n     * Returns `bytes4(keccak256(\"onERC721Received(address,address,uint256,bytes)\"))` unless throwing.\n     * @notice The contract address is always the message sender. A wallet/broker/auction application\n     * MUST implement the wallet interface if it will accept safe transfers.\n     * @param _operator The address which called `safeTransferFrom` function.\n     * @param _from The address which previously owned the token.\n     * @param _tokenId The NFT identifier which is being transferred.\n     * @param _data Additional data with no specified format.\n     * @return Returns `bytes4(keccak256(\"onERC721Received(address,address,uint256,bytes)\"))`.\n     */\n    function onERC721Received(\n        address _operator,\n        address _from,\n        uint256 _tokenId,\n        bytes calldata _data\n    ) external returns (bytes4);\n}\n\n// File: contracts/utils/erc165.sol\n\npragma solidity >=0.4.22 <0.9.0;\n\n/**\n * @dev A standard for detecting smart contract interfaces.\n * See: https://eips.ethereum.org/EIPS/eip-165.\n */\ninterface ERC165 {\n    /**\n     * @dev Checks if the smart contract includes a specific interface.\n     * This function uses less than 30,000 gas.\n     * @param _interfaceID The interface identifier, as specified in ERC-165.\n     * @return True if _interfaceID is supported, false otherwise.\n     */\n    function supportsInterface(bytes4 _interfaceID)\n        external\n        view\n        returns (bool);\n}\n\n// File: contracts/utils/supports-interface.sol\n\npragma solidity >=0.4.22 <0.9.0;\n\n/**\n * @dev Implementation of standard for detect smart contract interfaces.\n */\ncontract SupportsInterface is ERC165 {\n    /**\n     * @dev Mapping of supported intefraces. You must not set element 0xffffffff to true.\n     */\n    mapping(bytes4 => bool) internal supportedInterfaces;\n\n    /**\n     * @dev Contract constructor.\n     */\n    constructor() {\n        supportedInterfaces[0x01ffc9a7] = true; // ERC165\n    }\n\n    /**\n     * @dev Function to check which interfaces are suported by this contract.\n     * @param _interfaceID Id of the interface.\n     * @return True if _interfaceID is supported, false otherwise.\n     */\n    function supportsInterface(bytes4 _interfaceID)\n        external\n        view\n        override\n        returns (bool)\n    {\n        return supportedInterfaces[_interfaceID];\n    }\n}\n\n// File: contracts/utils/address-utils.sol\n\npragma solidity >=0.4.22 <0.9.0;\n\n/**\n * @dev Utility library of inline functions on addresses.\n * @notice Based on:\n * https://github.com/OpenZeppelin/openzeppelin-contracts/blob/master/contracts/utils/Address.sol\n * Requires EIP-1052.\n */\nlibrary AddressUtils {\n    /**\n     * @dev Returns whether the target address is a contract.\n     * @param _addr Address to check.\n     * @return addressCheck True if _addr is a contract, false if not.\n     */\n    function isContract(address _addr)\n        internal\n        view\n        returns (bool addressCheck)\n    {\n        // This method relies in extcodesize, which returns 0 for contracts in\n        // construction, since the code is only stored at the end of the\n        // constructor execution.\n\n        // According to EIP-1052, 0x0 is the value returned for not-yet created accounts\n        // and 0xc5d2460186f7233c927e7db2dcc703c0e500b653ca82273b7bfad8045d85a470 is returned\n        // for accounts without code, i.e. `keccak256('')`\n        bytes32 codehash;\n        bytes32 accountHash =\n            0xc5d2460186f7233c927e7db2dcc703c0e500b653ca82273b7bfad8045d85a470;\n        assembly {\n            codehash := extcodehash(_addr)\n        } // solhint-disable-line\n        addressCheck = (codehash != 0x0 && codehash != accountHash);\n    }\n}\n\n// File: contracts/tokens/nf-token.sol\n\npragma solidity >=0.4.22 <0.9.0;\n\n/**\n * @dev Implementation of ERC-721 non-fungible token standard.\n */\ncontract NFToken is ERC721, SupportsInterface {\n    using AddressUtils for address;\n\n    /**\n     * @dev List of revert message codes. Implementing dApp should handle showing the correct message.\n     * Based on 0xcert framework error codes.\n     */\n    string constant ZERO_ADDRESS = \"003001\";\n    string constant NOT_VALID_NFT = \"003002\";\n    string constant NOT_OWNER_OR_OPERATOR = \"003003\";\n    string constant NOT_OWNER_APPROVED_OR_OPERATOR = \"003004\";\n    string constant NOT_ABLE_TO_RECEIVE_NFT = \"003005\";\n    string constant NFT_ALREADY_EXISTS = \"003006\";\n    string constant NOT_OWNER = \"003007\";\n    string constant IS_OWNER = \"003008\";\n\n    /**\n     * @dev Magic value of a smart contract that can recieve NFT.\n     * Equal to: bytes4(keccak256(\"onERC721Received(address,address,uint256,bytes)\")).\n     */\n    bytes4 internal constant MAGIC_ON_ERC721_RECEIVED = 0x150b7a02;\n\n    /**\n     * @dev A mapping from NFT ID to the address that owns it.\n     */\n    mapping(uint256 => address) internal idToOwner;\n\n    /**\n     * @dev Mapping from NFT ID to approved address.\n     */\n    mapping(uint256 => address) internal idToApproval;\n\n    /**\n     * @dev Mapping from owner address to count of his tokens.\n     */\n    mapping(address => uint256) private ownerToNFTokenCount;\n\n    /**\n     * @dev Mapping from owner address to mapping of operator addresses.\n     */\n    mapping(address => mapping(address => bool)) internal ownerToOperators;\n\n    /**\n     * @dev Guarantees that the msg.sender is an owner or operator of the given NFT.\n     * @param _tokenId ID of the NFT to validate.\n     */\n    modifier canOperate(uint256 _tokenId) {\n        address tokenOwner = idToOwner[_tokenId];\n        require(\n            tokenOwner == msg.sender ||\n                ownerToOperators[tokenOwner][msg.sender],\n            NOT_OWNER_OR_OPERATOR\n        );\n        _;\n    }\n\n    /**\n     * @dev Guarantees that the msg.sender is allowed to transfer NFT.\n     * @param _tokenId ID of the NFT to transfer.\n     */\n    modifier canTransfer(uint256 _tokenId) {\n        address tokenOwner = idToOwner[_tokenId];\n        require(\n            tokenOwner == msg.sender ||\n                idToApproval[_tokenId] == msg.sender ||\n                ownerToOperators[tokenOwner][msg.sender],\n            NOT_OWNER_APPROVED_OR_OPERATOR\n        );\n        _;\n    }\n\n    /**\n     * @dev Guarantees that _tokenId is a valid Token.\n     * @param _tokenId ID of the NFT to validate.\n     */\n    modifier validNFToken(uint256 _tokenId) {\n        require(idToOwner[_tokenId] != address(0), NOT_VALID_NFT);\n        _;\n    }\n\n    /**\n     * @dev Contract constructor.\n     */\n    constructor() {\n        supportedInterfaces[0x80ac58cd] = true; // ERC721\n    }\n\n    /**\n     * @dev Transfers the ownership of an NFT from one address to another address. This function can\n     * be changed to payable.\n     * @notice Throws unless `msg.sender` is the current owner, an authorized operator, or the\n     * approved address for this NFT. Throws if `_from` is not the current owner. Throws if `_to` is\n     * the zero address. Throws if `_tokenId` is not a valid NFT. When transfer is complete, this\n     * function checks if `_to` is a smart contract (code size > 0). If so, it calls\n     * `onERC721Received` on `_to` and throws if the return value is not\n     * `bytes4(keccak256(\"onERC721Received(address,uint256,bytes)\"))`.\n     * @param _from The current owner of the NFT.\n     * @param _to The new owner.\n     * @param _tokenId The NFT to transfer.\n     * @param _data Additional data with no specified format, sent in call to `_to`.\n     */\n    function safeTransferFrom(\n        address _from,\n        address _to,\n        uint256 _tokenId,\n        bytes calldata _data\n    ) external override {\n        _safeTransferFrom(_from, _to, _tokenId, _data);\n    }\n\n    /**\n     * @dev Transfers the ownership of an NFT from one address to another address. This function can\n     * be changed to payable.\n     * @notice This works identically to the other function with an extra data parameter, except this\n     * function just sets data to \"\"\n     * @param _from The current owner of the NFT.\n     * @param _to The new owner.\n     * @param _tokenId The NFT to transfer.\n     */\n    function safeTransferFrom(\n        address _from,\n        address _to,\n        uint256 _tokenId\n    ) external override {\n        _safeTransferFrom(_from, _to, _tokenId, \"\");\n    }\n\n    /**\n     * @dev Throws unless `msg.sender` is the current owner, an authorized operator, or the approved\n     * address for this NFT. Throws if `_from` is not the current owner. Throws if `_to` is the zero\n     * address. Throws if `_tokenId` is not a valid NFT. This function can be changed to payable.\n     * @notice The caller is responsible to confirm that `_to` is capable of receiving NFTs or else\n     * they maybe be permanently lost.\n     * @param _from The current owner of the NFT.\n     * @param _to The new owner.\n     * @param _tokenId The NFT to transfer.\n     */\n    function transferFrom(\n        address _from,\n        address _to,\n        uint256 _tokenId\n    ) external override canTransfer(_tokenId) validNFToken(_tokenId) {\n        address tokenOwner = idToOwner[_tokenId];\n        require(tokenOwner == _from, NOT_OWNER);\n        require(_to != address(0), ZERO_ADDRESS);\n\n        _transfer(_to, _tokenId);\n    }\n\n    /**\n     * @dev Set or reaffirm the approved address for an NFT. This function can be changed to payable.\n     * @notice The zero address indicates there is no approved address. Throws unless `msg.sender` is\n     * the current NFT owner, or an authorized operator of the current owner.\n     * @param _approved Address to be approved for the given NFT ID.\n     * @param _tokenId ID of the token to be approved.\n     */\n    function approve(address _approved, uint256 _tokenId)\n        external\n        override\n        canOperate(_tokenId)\n        validNFToken(_tokenId)\n    {\n        address tokenOwner = idToOwner[_tokenId];\n        require(_approved != tokenOwner, IS_OWNER);\n\n        idToApproval[_tokenId] = _approved;\n        emit Approval(tokenOwner, _approved, _tokenId);\n    }\n\n    /**\n     * @dev Enables or disables approval for a third party (\"operator\") to manage all of\n     * `msg.sender`'s assets. It also emits the ApprovalForAll event.\n     * @notice This works even if sender doesn't own any tokens at the time.\n     * @param _operator Address to add to the set of authorized operators.\n     * @param _approved True if the operators is approved, false to revoke approval.\n     */\n    function setApprovalForAll(address _operator, bool _approved)\n        external\n        override\n    {\n        ownerToOperators[msg.sender][_operator] = _approved;\n        emit ApprovalForAll(msg.sender, _operator, _approved);\n    }\n\n    /**\n     * @dev Returns the number of NFTs owned by `_owner`. NFTs assigned to the zero address are\n     * considered invalid, and this function throws for queries about the zero address.\n     * @param _owner Address for whom to query the balance.\n     * @return Balance of _owner.\n     */\n    function balanceOf(address _owner)\n        external\n        view\n        override\n        returns (uint256)\n    {\n        require(_owner != address(0), ZERO_ADDRESS);\n        return _getOwnerNFTCount(_owner);\n    }\n\n    /**\n     * @dev Returns the address of the owner of the NFT. NFTs assigned to zero address are considered\n     * invalid, and queries about them do throw.\n     * @param _tokenId The identifier for an NFT.\n     * @return _owner Address of _tokenId owner.\n     */\n    function ownerOf(uint256 _tokenId)\n        external\n        view\n        override\n        returns (address _owner)\n    {\n        _owner = idToOwner[_tokenId];\n        require(_owner != address(0), NOT_VALID_NFT);\n    }\n\n    /**\n     * @dev Get the approved address for a single NFT.\n     * @notice Throws if `_tokenId` is not a valid NFT.\n     * @param _tokenId ID of the NFT to query the approval of.\n     * @return Address that _tokenId is approved for.\n     */\n    function getApproved(uint256 _tokenId)\n        external\n        view\n        override\n        validNFToken(_tokenId)\n        returns (address)\n    {\n        return idToApproval[_tokenId];\n    }\n\n    /**\n     * @dev Checks if `_operator` is an approved operator for `_owner`.\n     * @param _owner The address that owns the NFTs.\n     * @param _operator The address that acts on behalf of the owner.\n     * @return True if approved for all, false otherwise.\n     */\n    function isApprovedForAll(address _owner, address _operator)\n        external\n        view\n        override\n        returns (bool)\n    {\n        return ownerToOperators[_owner][_operator];\n    }\n\n    /**\n     * @dev Actually preforms the transfer.\n     * @notice Does NO checks.\n     * @param _to Address of a new owner.\n     * @param _tokenId The NFT that is being transferred.\n     */\n    function _transfer(address _to, uint256 _tokenId) internal {\n        address from = idToOwner[_tokenId];\n        _clearApproval(_tokenId);\n\n        _removeNFToken(from, _tokenId);\n        _addNFToken(_to, _tokenId);\n\n        emit Transfer(from, _to, _tokenId);\n    }\n\n    /**\n     * @dev Mints a new NFT.\n     * @notice This is an internal function which should be called from user-implemented external\n     * mint function. Its purpose is to show and properly initialize data structures when using this\n     * implementation.\n     * @param _to The address that will own the minted NFT.\n     * @param _tokenId of the NFT to be minted by the msg.sender.\n     */\n    function _mint(address _to, uint256 _tokenId) internal virtual {\n        require(_to != address(0), ZERO_ADDRESS);\n        require(idToOwner[_tokenId] == address(0), NFT_ALREADY_EXISTS);\n\n        _addNFToken(_to, _tokenId);\n\n        emit Transfer(address(0), _to, _tokenId);\n    }\n\n    /**\n     * @dev Burns a NFT.\n     * @notice This is an internal function which should be called from user-implemented external burn\n     * function. Its purpose is to show and properly initialize data structures when using this\n     * implementation. Also, note that this burn implementation allows the minter to re-mint a burned\n     * NFT.\n     * @param _tokenId ID of the NFT to be burned.\n     */\n    function _burn(uint256 _tokenId) internal virtual validNFToken(_tokenId) {\n        address tokenOwner = idToOwner[_tokenId];\n        _clearApproval(_tokenId);\n        _removeNFToken(tokenOwner, _tokenId);\n        emit Transfer(tokenOwner, address(0), _tokenId);\n    }\n\n    /**\n     * @dev Removes a NFT from owner.\n     * @notice Use and override this function with caution. Wrong usage can have serious consequences.\n     * @param _from Address from wich we want to remove the NFT.\n     * @param _tokenId Which NFT we want to remove.\n     */\n    function _removeNFToken(address _from, uint256 _tokenId) internal virtual {\n        require(idToOwner[_tokenId] == _from, NOT_OWNER);\n        ownerToNFTokenCount[_from] = ownerToNFTokenCount[_from] - 1;\n        delete idToOwner[_tokenId];\n    }\n\n    /**\n     * @dev Assignes a new NFT to owner.\n     * @notice Use and override this function with caution. Wrong usage can have serious consequences.\n     * @param _to Address to wich we want to add the NFT.\n     * @param _tokenId Which NFT we want to add.\n     */\n    function _addNFToken(address _to, uint256 _tokenId) internal virtual {\n        require(idToOwner[_tokenId] == address(0), NFT_ALREADY_EXISTS);\n\n        idToOwner[_tokenId] = _to;\n        ownerToNFTokenCount[_to] = ownerToNFTokenCount[_to] + 1;\n    }\n\n    /**\n     *@dev Helper function that gets NFT count of owner. This is needed for overriding in enumerable\n     * extension to remove double storage (gas optimization) of owner nft count.\n     * @param _owner Address for whom to query the count.\n     * @return Number of _owner NFTs.\n     */\n    function _getOwnerNFTCount(address _owner)\n        internal\n        view\n        virtual\n        returns (uint256)\n    {\n        return ownerToNFTokenCount[_owner];\n    }\n\n    /**\n     * @dev Actually perform the safeTransferFrom.\n     * @param _from The current owner of the NFT.\n     * @param _to The new owner.\n     * @param _tokenId The NFT to transfer.\n     * @param _data Additional data with no specified format, sent in call to `_to`.\n     */\n    function _safeTransferFrom(\n        address _from,\n        address _to,\n        uint256 _tokenId,\n        bytes memory _data\n    ) private canTransfer(_tokenId) validNFToken(_tokenId) {\n        address tokenOwner = idToOwner[_tokenId];\n        require(tokenOwner == _from, NOT_OWNER);\n        require(_to != address(0), ZERO_ADDRESS);\n\n        _transfer(_to, _tokenId);\n\n        if (_to.isContract()) {\n            bytes4 retval =\n                ERC721TokenReceiver(_to).onERC721Received(\n                    msg.sender,\n                    _from,\n                    _tokenId,\n                    _data\n                );\n            require(\n                retval == MAGIC_ON_ERC721_RECEIVED,\n                NOT_ABLE_TO_RECEIVE_NFT\n            );\n        }\n    }\n\n    /**\n     * @dev Clears the current approval of a given NFT ID.\n     * @param _tokenId ID of the NFT to be transferred.\n     */\n    function _clearApproval(uint256 _tokenId) private {\n        if (idToApproval[_tokenId] != address(0)) {\n            delete idToApproval[_tokenId];\n        }\n    }\n}\n\n// File: contracts/tokens/erc721-metadata.sol\n\npragma solidity >=0.4.22 <0.9.0;\n\n/**\n * @dev Optional metadata extension for ERC-721 non-fungible token standard.\n * See https://github.com/ethereum/EIPs/blob/master/EIPS/eip-721.md.\n */\ninterface ERC721Metadata {\n    /**\n     * @dev Returns a descriptive name for a collection of NFTs in this contract.\n     * @return _name Representing name.\n     */\n    function name() external view returns (string memory _name);\n\n    /**\n     * @dev Returns a abbreviated name for a collection of NFTs in this contract.\n     * @return _symbol Representing symbol.\n     */\n    function symbol() external view returns (string memory _symbol);\n\n    /**\n     * @dev Returns a distinct Uniform Resource Identifier (URI) for a given asset. It Throws if\n     * `_tokenId` is not a valid NFT. URIs are defined in RFC3986. The URI may point to a JSON file\n     * that conforms to the \"ERC721 Metadata JSON Schema\".\n     * @return URI of _tokenId.\n     */\n    function tokenURI(uint256 _tokenId) external view returns (string memory);\n}\n\n// File: contracts/tokens/nf-token-metadata.sol\n\npragma solidity >=0.4.22 <0.9.0;\n\n/**\n * @dev Optional metadata implementation for ERC-721 non-fungible token standard.\n */\ncontract NFTokenMetadata is NFToken, ERC721Metadata {\n    /**\n     * @dev A descriptive name for a collection of NFTs.\n     */\n    string internal nftName;\n\n    /**\n     * @dev An abbreviated name for NFTokens.\n     */\n    string internal nftSymbol;\n\n    /**\n     * @dev Mapping from NFT ID to metadata uri.\n     */\n    mapping(uint256 => string) internal idToUri;\n\n    /**\n     * @dev Array of all NFT IDs.\n     */\n    uint256[] internal mintedTokens;\n\n    /**\n     * @dev Contract constructor.\n     * @notice When implementing this contract don't forget to set nftName and nftSymbol.\n     */\n    constructor() {\n        supportedInterfaces[0x5b5e139f] = true; // ERC721Metadata\n    }\n\n    /**\n     * @dev Returns a descriptive name for a collection of NFTokens.\n     * @return _name Representing name.\n     */\n    function name() external view override returns (string memory _name) {\n        _name = nftName;\n    }\n\n    /**\n     * @dev Returns an abbreviated name for NFTokens.\n     * @return _symbol Representing symbol.\n     */\n    function symbol() external view override returns (string memory _symbol) {\n        _symbol = nftSymbol;\n    }\n\n    /**\n     * @dev Returns the count of all existing NFTokens.\n     * @return Total supply of NFTs.\n     */\n    function totalToken() external view returns (uint256) {\n        return mintedTokens.length;\n    }\n\n    /**\n     * @dev Push NFT token to array.\n     * @param _tokenId Id for which we want to push.\n     */\n    function _push(uint256 _tokenId) internal validNFToken(_tokenId) {\n        mintedTokens.push(_tokenId);\n    }\n\n    /**\n     * @dev A distinct URI (RFC 3986) for a given NFT.\n     * @param _tokenId Id for which we want uri.\n     * @return URI of _tokenId.\n     */\n    function tokenURI(uint256 _tokenId)\n        external\n        view\n        override\n        validNFToken(_tokenId)\n        returns (string memory)\n    {\n        return idToUri[_tokenId];\n    }\n\n    /**\n     * @dev Burns a NFT.\n     * @notice This is an internal function which should be called from user-implemented external\n     * burn function. Its purpose is to show and properly initialize data structures when using this\n     * implementation. Also, note that this burn implementation allows the minter to re-mint a burned\n     * NFT.\n     * @param _tokenId ID of the NFT to be burned.\n     */\n    function _burn(uint256 _tokenId) internal virtual override {\n        super._burn(_tokenId);\n\n        if (bytes(idToUri[_tokenId]).length != 0) {\n            delete idToUri[_tokenId];\n        }\n    }\n\n    /**\n     * @dev Set a distinct URI (RFC 3986) for a given NFT ID.\n     * @notice This is an internal function which should be called from user-implemented external\n     * function. Its purpose is to show and properly initialize data structures when using this\n     * implementation.\n     * @param _tokenId Id for which we want URI.\n     * @param _uri String representing RFC 3986 URI.\n     */\n    function _setTokenUri(uint256 _tokenId, string memory _uri)\n        internal\n        validNFToken(_tokenId)\n    {\n        idToUri[_tokenId] = _uri;\n    }\n}\n\n// File: contracts/ownership/ownable.sol\n\npragma solidity >=0.4.22 <0.9.0;\n\n/**\n * @dev The contract has an owner address, and provides basic authorization control whitch\n * simplifies the implementation of user permissions. This contract is based on the source code at:\n * https://github.com/OpenZeppelin/openzeppelin-solidity/blob/master/contracts/ownership/Ownable.sol\n */\ncontract Ownable {\n    /**\n     * @dev Error constants.\n     */\n    string public constant NOT_CURRENT_OWNER = \"018001\";\n    string public constant CANNOT_TRANSFER_TO_ZERO_ADDRESS = \"018002\";\n\n    /**\n     * @dev Current owner address.\n     */\n    address public owner;\n\n    /**\n     * @dev An event which is triggered when the owner is changed.\n     * @param previousOwner The address of the previous owner.\n     * @param newOwner The address of the new owner.\n     */\n    event OwnershipTransferred(\n        address indexed previousOwner,\n        address indexed newOwner\n    );\n\n    /**\n     * @dev The constructor sets the original `owner` of the contract to the sender account.\n     */\n    constructor() {\n        owner = msg.sender;\n    }\n\n    /**\n     * @dev Throws if called by any account other than the owner.\n     */\n    modifier onlyOwner() {\n        require(msg.sender == owner, NOT_CURRENT_OWNER);\n        _;\n    }\n\n    /**\n     * @dev Allows the current owner to transfer control of the contract to a newOwner.\n     * @param _newOwner The address to transfer ownership to.\n     */\n    function transferOwnership(address _newOwner) public onlyOwner {\n        require(_newOwner != address(0), CANNOT_TRANSFER_TO_ZERO_ADDRESS);\n        emit OwnershipTransferred(owner, _newOwner);\n        owner = _newOwner;\n    }\n}\n\n// File: contracts/UserContract.sol\n\npragma solidity >=0.4.22 <0.9.0;\n\n/**\n * @dev This is an example contract implementation of NFToken with metadata extension.\n */\ncontract UserContract is NFTokenMetadata, Ownable {\n    /**\n     * @dev Contract constructor. Sets metadata extension `name` and `symbol`.\n     */\n    constructor(string memory contractName, string memory contractSymbol) {\n        nftName = contractName;\n        nftSymbol = contractSymbol;\n    }\n\n    /**\n     * @dev Mints a new NFT.\n     * @param _to The address that will own the minted NFT.\n     * @param _tokenId of the NFT to be minted by the msg.sender.\n     * @param _uri String representing RFC 3986 URI.\n     */\n    function mint(\n        address _to,\n        uint256 _tokenId,\n        string calldata _uri\n    ) external onlyOwner {\n        super._mint(_to, _tokenId);\n        super._setTokenUri(_tokenId, _uri);\n        super._push(_tokenId);\n    }\n\n    /**\n     * @dev Burn an NFT.\n     * @param _tokenId of the NFT to be burned by the msg.sender.\n     */\n    function burn(uint256 _tokenId) external onlyOwner {\n        super._burn(_tokenId);\n    }\n}\n",
  "sourcePath": "/Users/fahmi/Downloads/Fahmi Learn/Blockchain/ScratchNFT/Belajar-NFT-Part-1/contracts/UserContractFlattened.sol",
  "compiler": {
    "name": "solc",
    "version": "0.8.0+commit.c7dfd78e.Emscripten.clang"
  },
  "schemaVersion": "3.3.4",
  "updatedAt": "2021-03-31T06:00:56.445Z",
  "networkType": "ethereum",
  "devdoc": {
    "details": "This is an example contract implementation of NFToken with metadata extension.",
    "kind": "dev",
    "methods": {
      "approve(address,uint256)": {
        "details": "Set or reaffirm the approved address for an NFT. This function can be changed to payable.",
        "params": {
          "_approved": "Address to be approved for the given NFT ID.",
          "_tokenId": "ID of the token to be approved."
        }
      },
      "balanceOf(address)": {
        "details": "Returns the number of NFTs owned by `_owner`. NFTs assigned to the zero address are considered invalid, and this function throws for queries about the zero address.",
        "params": {
          "_owner": "Address for whom to query the balance."
        },
        "returns": {
          "_0": "Balance of _owner."
        }
      },
      "burn(uint256)": {
        "details": "Burn an NFT.",
        "params": {
          "_tokenId": "of the NFT to be burned by the msg.sender."
        }
      },
      "constructor": {
        "details": "Contract constructor. Sets metadata extension `name` and `symbol`."
      },
      "getApproved(uint256)": {
        "details": "Get the approved address for a single NFT.",
        "params": {
          "_tokenId": "ID of the NFT to query the approval of."
        },
        "returns": {
          "_0": "Address that _tokenId is approved for."
        }
      },
      "isApprovedForAll(address,address)": {
        "details": "Checks if `_operator` is an approved operator for `_owner`.",
        "params": {
          "_operator": "The address that acts on behalf of the owner.",
          "_owner": "The address that owns the NFTs."
        },
        "returns": {
          "_0": "True if approved for all, false otherwise."
        }
      },
      "mint(address,uint256,string)": {
        "details": "Mints a new NFT.",
        "params": {
          "_to": "The address that will own the minted NFT.",
          "_tokenId": "of the NFT to be minted by the msg.sender.",
          "_uri": "String representing RFC 3986 URI."
        }
      },
      "name()": {
        "details": "Returns a descriptive name for a collection of NFTokens.",
        "returns": {
          "_name": "Representing name."
        }
      },
      "ownerOf(uint256)": {
        "details": "Returns the address of the owner of the NFT. NFTs assigned to zero address are considered invalid, and queries about them do throw.",
        "params": {
          "_tokenId": "The identifier for an NFT."
        },
        "returns": {
          "_owner": "Address of _tokenId owner."
        }
      },
      "safeTransferFrom(address,address,uint256)": {
        "details": "Transfers the ownership of an NFT from one address to another address. This function can be changed to payable.",
        "params": {
          "_from": "The current owner of the NFT.",
          "_to": "The new owner.",
          "_tokenId": "The NFT to transfer."
        }
      },
      "safeTransferFrom(address,address,uint256,bytes)": {
        "details": "Transfers the ownership of an NFT from one address to another address. This function can be changed to payable.",
        "params": {
          "_data": "Additional data with no specified format, sent in call to `_to`.",
          "_from": "The current owner of the NFT.",
          "_to": "The new owner.",
          "_tokenId": "The NFT to transfer."
        }
      },
      "setApprovalForAll(address,bool)": {
        "details": "Enables or disables approval for a third party (\"operator\") to manage all of `msg.sender`'s assets. It also emits the ApprovalForAll event.",
        "params": {
          "_approved": "True if the operators is approved, false to revoke approval.",
          "_operator": "Address to add to the set of authorized operators."
        }
      },
      "supportsInterface(bytes4)": {
        "details": "Function to check which interfaces are suported by this contract.",
        "params": {
          "_interfaceID": "Id of the interface."
        },
        "returns": {
          "_0": "True if _interfaceID is supported, false otherwise."
        }
      },
      "symbol()": {
        "details": "Returns an abbreviated name for NFTokens.",
        "returns": {
          "_symbol": "Representing symbol."
        }
      },
      "tokenURI(uint256)": {
        "details": "A distinct URI (RFC 3986) for a given NFT.",
        "params": {
          "_tokenId": "Id for which we want uri."
        },
        "returns": {
          "_0": "URI of _tokenId."
        }
      },
      "totalToken()": {
        "details": "Returns the count of all existing NFTokens.",
        "returns": {
          "_0": "Total supply of NFTs."
        }
      },
      "transferFrom(address,address,uint256)": {
        "details": "Throws unless `msg.sender` is the current owner, an authorized operator, or the approved address for this NFT. Throws if `_from` is not the current owner. Throws if `_to` is the zero address. Throws if `_tokenId` is not a valid NFT. This function can be changed to payable.",
        "params": {
          "_from": "The current owner of the NFT.",
          "_to": "The new owner.",
          "_tokenId": "The NFT to transfer."
        }
      },
      "transferOwnership(address)": {
        "details": "Allows the current owner to transfer control of the contract to a newOwner.",
        "params": {
          "_newOwner": "The address to transfer ownership to."
        }
      }
    },
    "version": 1
  },
  "userdoc": {
    "kind": "user",
    "methods": {
      "approve(address,uint256)": {
        "notice": "The zero address indicates there is no approved address. Throws unless `msg.sender` is the current NFT owner, or an authorized operator of the current owner."
      },
      "getApproved(uint256)": {
        "notice": "Throws if `_tokenId` is not a valid NFT."
      },
      "safeTransferFrom(address,address,uint256)": {
        "notice": "This works identically to the other function with an extra data parameter, except this function just sets data to \"\""
      },
      "safeTransferFrom(address,address,uint256,bytes)": {
        "notice": "Throws unless `msg.sender` is the current owner, an authorized operator, or the approved address for this NFT. Throws if `_from` is not the current owner. Throws if `_to` is the zero address. Throws if `_tokenId` is not a valid NFT. When transfer is complete, this function checks if `_to` is a smart contract (code size > 0). If so, it calls `onERC721Received` on `_to` and throws if the return value is not `bytes4(keccak256(\"onERC721Received(address,uint256,bytes)\"))`."
      },
      "setApprovalForAll(address,bool)": {
        "notice": "This works even if sender doesn't own any tokens at the time."
      },
      "transferFrom(address,address,uint256)": {
        "notice": "The caller is responsible to confirm that `_to` is capable of receiving NFTs or else they maybe be permanently lost."
      }
    },
    "version": 1
  }
}