{
  "contractName": "UserContract",
  "abi": [
    {
      "inputs": [
        {
          "internalType": "string",
          "name": "contractName",
          "type": "string"
        },
        {
          "internalType": "string",
          "name": "contractSymbol",
          "type": "string"
        }
      ],
      "stateMutability": "nonpayable",
      "type": "constructor"
    },
    {
      "anonymous": false,
      "inputs": [
        {
          "indexed": true,
          "internalType": "address",
          "name": "_owner",
          "type": "address"
        },
        {
          "indexed": true,
          "internalType": "address",
          "name": "_approved",
          "type": "address"
        },
        {
          "indexed": true,
          "internalType": "uint256",
          "name": "_tokenId",
          "type": "uint256"
        }
      ],
      "name": "Approval",
      "type": "event"
    },
    {
      "anonymous": false,
      "inputs": [
        {
          "indexed": true,
          "internalType": "address",
          "name": "_owner",
          "type": "address"
        },
        {
          "indexed": true,
          "internalType": "address",
          "name": "_operator",
          "type": "address"
        },
        {
          "indexed": false,
          "internalType": "bool",
          "name": "_approved",
          "type": "bool"
        }
      ],
      "name": "ApprovalForAll",
      "type": "event"
    },
    {
      "anonymous": false,
      "inputs": [
        {
          "indexed": false,
          "internalType": "address",
          "name": "sender",
          "type": "address"
        },
        {
          "indexed": false,
          "internalType": "uint256",
          "name": "amount",
          "type": "uint256"
        }
      ],
      "name": "LogDeposit",
      "type": "event"
    },
    {
      "anonymous": false,
      "inputs": [
        {
          "indexed": false,
          "internalType": "address",
          "name": "owner",
          "type": "address"
        },
        {
          "indexed": false,
          "internalType": "uint256",
          "name": "token",
          "type": "uint256"
        },
        {
          "indexed": false,
          "internalType": "uint256",
          "name": "price",
          "type": "uint256"
        }
      ],
      "name": "LogPutItemOnSale",
      "type": "event"
    },
    {
      "anonymous": false,
      "inputs": [
        {
          "indexed": false,
          "internalType": "address",
          "name": "owner",
          "type": "address"
        },
        {
          "indexed": false,
          "internalType": "uint256",
          "name": "token",
          "type": "uint256"
        }
      ],
      "name": "LogTakeOutTokenFromSale",
      "type": "event"
    },
    {
      "anonymous": false,
      "inputs": [
        {
          "indexed": false,
          "internalType": "address",
          "name": "sender",
          "type": "address"
        },
        {
          "indexed": false,
          "internalType": "address",
          "name": "to",
          "type": "address"
        },
        {
          "indexed": false,
          "internalType": "uint256",
          "name": "amount",
          "type": "uint256"
        }
      ],
      "name": "LogTransfer",
      "type": "event"
    },
    {
      "anonymous": false,
      "inputs": [
        {
          "indexed": false,
          "internalType": "address",
          "name": "to",
          "type": "address"
        },
        {
          "indexed": false,
          "internalType": "uint256",
          "name": "amount",
          "type": "uint256"
        }
      ],
      "name": "LogWithdraw",
      "type": "event"
    },
    {
      "anonymous": false,
      "inputs": [
        {
          "indexed": true,
          "internalType": "address",
          "name": "previousOwner",
          "type": "address"
        },
        {
          "indexed": true,
          "internalType": "address",
          "name": "newOwner",
          "type": "address"
        }
      ],
      "name": "OwnershipTransferred",
      "type": "event"
    },
    {
      "anonymous": false,
      "inputs": [
        {
          "indexed": true,
          "internalType": "address",
          "name": "_from",
          "type": "address"
        },
        {
          "indexed": true,
          "internalType": "address",
          "name": "_to",
          "type": "address"
        },
        {
          "indexed": true,
          "internalType": "uint256",
          "name": "_tokenId",
          "type": "uint256"
        }
      ],
      "name": "Transfer",
      "type": "event"
    },
    {
      "inputs": [],
      "name": "CANNOT_TRANSFER_TO_ZERO_ADDRESS",
      "outputs": [
        {
          "internalType": "string",
          "name": "",
          "type": "string"
        }
      ],
      "stateMutability": "view",
      "type": "function"
    },
    {
      "inputs": [],
      "name": "NOT_CURRENT_OWNER",
      "outputs": [
        {
          "internalType": "string",
          "name": "",
          "type": "string"
        }
      ],
      "stateMutability": "view",
      "type": "function"
    },
    {
      "inputs": [
        {
          "internalType": "address",
          "name": "_approved",
          "type": "address"
        },
        {
          "internalType": "uint256",
          "name": "_tokenId",
          "type": "uint256"
        }
      ],
      "name": "approve",
      "outputs": [],
      "stateMutability": "nonpayable",
      "type": "function"
    },
    {
      "inputs": [
        {
          "internalType": "address",
          "name": "_owner",
          "type": "address"
        }
      ],
      "name": "balanceOf",
      "outputs": [
        {
          "internalType": "uint256",
          "name": "",
          "type": "uint256"
        }
      ],
      "stateMutability": "view",
      "type": "function"
    },
    {
      "inputs": [
        {
          "internalType": "address",
          "name": "_buyer",
          "type": "address"
        },
        {
          "internalType": "uint256",
          "name": "_token",
          "type": "uint256"
        }
      ],
      "name": "buyToken",
      "outputs": [
        {
          "internalType": "bool",
          "name": "success",
          "type": "bool"
        }
      ],
      "stateMutability": "payable",
      "type": "function"
    },
    {
      "inputs": [
        {
          "internalType": "uint256",
          "name": "_tokenId",
          "type": "uint256"
        }
      ],
      "name": "getApproved",
      "outputs": [
        {
          "internalType": "address",
          "name": "",
          "type": "address"
        }
      ],
      "stateMutability": "view",
      "type": "function"
    },
    {
      "inputs": [
        {
          "internalType": "address",
          "name": "_owner",
          "type": "address"
        }
      ],
      "name": "getBalance",
      "outputs": [
        {
          "internalType": "uint256",
          "name": "",
          "type": "uint256"
        }
      ],
      "stateMutability": "view",
      "type": "function"
    },
    {
      "inputs": [
        {
          "internalType": "address",
          "name": "_owner",
          "type": "address"
        },
        {
          "internalType": "address",
          "name": "_operator",
          "type": "address"
        }
      ],
      "name": "isApprovedForAll",
      "outputs": [
        {
          "internalType": "bool",
          "name": "",
          "type": "bool"
        }
      ],
      "stateMutability": "view",
      "type": "function"
    },
    {
      "inputs": [
        {
          "internalType": "uint256",
          "name": "_tokenId",
          "type": "uint256"
        }
      ],
      "name": "isTokenOnSale",
      "outputs": [
        {
          "internalType": "bool",
          "name": "status",
          "type": "bool"
        }
      ],
      "stateMutability": "view",
      "type": "function"
    },
    {
      "inputs": [],
      "name": "name",
      "outputs": [
        {
          "internalType": "string",
          "name": "_name",
          "type": "string"
        }
      ],
      "stateMutability": "view",
      "type": "function"
    },
    {
      "inputs": [],
      "name": "owner",
      "outputs": [
        {
          "internalType": "address",
          "name": "",
          "type": "address"
        }
      ],
      "stateMutability": "view",
      "type": "function"
    },
    {
      "inputs": [
        {
          "internalType": "uint256",
          "name": "_tokenId",
          "type": "uint256"
        }
      ],
      "name": "ownerOf",
      "outputs": [
        {
          "internalType": "address",
          "name": "_owner",
          "type": "address"
        }
      ],
      "stateMutability": "view",
      "type": "function"
    },
    {
      "inputs": [
        {
          "internalType": "address",
          "name": "owner",
          "type": "address"
        },
        {
          "internalType": "uint256",
          "name": "token",
          "type": "uint256"
        },
        {
          "internalType": "uint256",
          "name": "price",
          "type": "uint256"
        }
      ],
      "name": "putItemOnSale",
      "outputs": [
        {
          "internalType": "bool",
          "name": "success",
          "type": "bool"
        }
      ],
      "stateMutability": "nonpayable",
      "type": "function"
    },
    {
      "inputs": [
        {
          "internalType": "address",
          "name": "_from",
          "type": "address"
        },
        {
          "internalType": "address",
          "name": "_to",
          "type": "address"
        },
        {
          "internalType": "uint256",
          "name": "_tokenId",
          "type": "uint256"
        }
      ],
      "name": "safeTransferFrom",
      "outputs": [],
      "stateMutability": "nonpayable",
      "type": "function"
    },
    {
      "inputs": [
        {
          "internalType": "address",
          "name": "_from",
          "type": "address"
        },
        {
          "internalType": "address",
          "name": "_to",
          "type": "address"
        },
        {
          "internalType": "uint256",
          "name": "_tokenId",
          "type": "uint256"
        },
        {
          "internalType": "bytes",
          "name": "_data",
          "type": "bytes"
        }
      ],
      "name": "safeTransferFrom",
      "outputs": [],
      "stateMutability": "nonpayable",
      "type": "function"
    },
    {
      "inputs": [
        {
          "internalType": "address",
          "name": "_operator",
          "type": "address"
        },
        {
          "internalType": "bool",
          "name": "_approved",
          "type": "bool"
        }
      ],
      "name": "setApprovalForAll",
      "outputs": [],
      "stateMutability": "nonpayable",
      "type": "function"
    },
    {
      "inputs": [
        {
          "internalType": "bytes4",
          "name": "_interfaceID",
          "type": "bytes4"
        }
      ],
      "name": "supportsInterface",
      "outputs": [
        {
          "internalType": "bool",
          "name": "",
          "type": "bool"
        }
      ],
      "stateMutability": "view",
      "type": "function"
    },
    {
      "inputs": [],
      "name": "symbol",
      "outputs": [
        {
          "internalType": "string",
          "name": "_symbol",
          "type": "string"
        }
      ],
      "stateMutability": "view",
      "type": "function"
    },
    {
      "inputs": [
        {
          "internalType": "address",
          "name": "owner",
          "type": "address"
        },
        {
          "internalType": "uint256",
          "name": "token",
          "type": "uint256"
        }
      ],
      "name": "takeOutTokenFromSale",
      "outputs": [
        {
          "internalType": "bool",
          "name": "success",
          "type": "bool"
        }
      ],
      "stateMutability": "nonpayable",
      "type": "function"
    },
    {
      "inputs": [
        {
          "internalType": "uint256",
          "name": "_tokenId",
          "type": "uint256"
        }
      ],
      "name": "tokenURI",
      "outputs": [
        {
          "internalType": "string",
          "name": "",
          "type": "string"
        }
      ],
      "stateMutability": "view",
      "type": "function"
    },
    {
      "inputs": [],
      "name": "totalToken",
      "outputs": [
        {
          "internalType": "uint256",
          "name": "",
          "type": "uint256"
        }
      ],
      "stateMutability": "view",
      "type": "function"
    },
    {
      "inputs": [
        {
          "internalType": "address",
          "name": "_from",
          "type": "address"
        },
        {
          "internalType": "address",
          "name": "_to",
          "type": "address"
        },
        {
          "internalType": "uint256",
          "name": "_tokenId",
          "type": "uint256"
        }
      ],
      "name": "transferFrom",
      "outputs": [],
      "stateMutability": "nonpayable",
      "type": "function"
    },
    {
      "inputs": [
        {
          "internalType": "address",
          "name": "_newOwner",
          "type": "address"
        }
      ],
      "name": "transferOwnership",
      "outputs": [],
      "stateMutability": "nonpayable",
      "type": "function"
    },
    {
      "inputs": [
        {
          "internalType": "address payable",
          "name": "to",
          "type": "address"
        }
      ],
      "name": "withdrawAll",
      "outputs": [
        {
          "internalType": "bool",
          "name": "success",
          "type": "bool"
        }
      ],
      "stateMutability": "nonpayable",
      "type": "function"
    },
    {
      "inputs": [
        {
          "internalType": "address",
          "name": "_to",
          "type": "address"
        },
        {
          "internalType": "uint256",
          "name": "_tokenId",
          "type": "uint256"
        },
        {
          "internalType": "string",
          "name": "_uri",
          "type": "string"
        }
      ],
      "name": "mint",
      "outputs": [],
      "stateMutability": "nonpayable",
      "type": "function"
    },
    {
      "inputs": [
        {
          "internalType": "uint256",
          "name": "_tokenId",
          "type": "uint256"
        }
      ],
      "name": "burn",
      "outputs": [],
      "stateMutability": "nonpayable",
      "type": "function"
    }
  ],
  "bytecode": "0x60806040523480156200001157600080fd5b5060405162004b7238038062004b728339818101604052810190620000379190620002c7565b60018060006301ffc9a760e01b7bffffffffffffffffffffffffffffffffffffffffffffffffffffffff1916815260200190815260200160002060006101000a81548160ff02191690831515021790555060018060006380ac58cd60e01b7bffffffffffffffffffffffffffffffffffffffffffffffffffffffff1916815260200190815260200160002060006101000a81548160ff0219169083151502179055506001806000635b5e139f60e01b7bffffffffffffffffffffffffffffffffffffffffffffffffffffffff1916815260200190815260200160002060006101000a81548160ff02191690831515021790555033600a60006101000a81548173ffffffffffffffffffffffffffffffffffffffff021916908373ffffffffffffffffffffffffffffffffffffffff160217905550816006908051906020019062000183929190620001a5565b5080600790805190602001906200019c929190620001a5565b5050506200046b565b828054620001b390620003d7565b90600052602060002090601f016020900481019282620001d7576000855562000223565b82601f10620001f257805160ff191683800117855562000223565b8280016001018555821562000223579182015b828111156200022257825182559160200191906001019062000205565b5b50905062000232919062000236565b5090565b5b808211156200025157600081600090555060010162000237565b5090565b60006200026c62000266846200036e565b6200033a565b9050828152602081018484840111156200028557600080fd5b62000292848285620003a1565b509392505050565b600082601f830112620002ac57600080fd5b8151620002be84826020860162000255565b91505092915050565b60008060408385031215620002db57600080fd5b600083015167ffffffffffffffff811115620002f657600080fd5b62000304858286016200029a565b925050602083015167ffffffffffffffff8111156200032257600080fd5b62000330858286016200029a565b9150509250929050565b6000604051905081810181811067ffffffffffffffff821117156200036457620003636200043c565b5b8060405250919050565b600067ffffffffffffffff8211156200038c576200038b6200043c565b5b601f19601f8301169050602081019050919050565b60005b83811015620003c1578082015181840152602081019050620003a4565b83811115620003d1576000848401525b50505050565b60006002820490506001821680620003f057607f821691505b602082108114156200040757620004066200040d565b5b50919050565b7f4e487b7100000000000000000000000000000000000000000000000000000000600052602260045260246000fd5b7f4e487b7100000000000000000000000000000000000000000000000000000000600052604160045260246000fd5b6146f7806200047b6000396000f3fe6080604052600436106101815760003560e01c80638ccab7c2116100d1578063c87b56dd1161008a578063f2fde38b11610064578063f2fde38b146105d1578063f3fe3bc3146105fa578063f8b2cb4f14610625578063fa09e6301461066257610181565b8063c87b56dd1461052e578063d3fc98641461056b578063e985e9c51461059457610181565b80638ccab7c21461040c5780638da5cb5b14610449578063951fbdf01461047457806395d89b41146104b1578063a22cb465146104dc578063b88d4fde1461050557610181565b806342842e0e1161013e5780636352211e116101185780636352211e1461033757806368f8fc101461037457806370a08231146103a4578063860d248a146103e157610181565b806342842e0e146102ba57806342966c68146102e3578063626be5671461030c57610181565b806301ffc9a71461018657806306fdde03146101c3578063081812fc146101ee578063095ea7b31461022b57806323b872dd146102545780632926b79e1461027d575b600080fd5b34801561019257600080fd5b506101ad60048036038101906101a891906140fa565b61069f565b6040516101ba919061434a565b60405180910390f35b3480156101cf57600080fd5b506101d8610707565b6040516101e59190614365565b60405180910390f35b3480156101fa57600080fd5b506102156004803603810190610210919061414c565b610799565b6040516102229190614223565b60405180910390f35b34801561023757600080fd5b50610252600480360381019061024d9190614003565b6108b4565b005b34801561026057600080fd5b5061027b60048036038101906102769190613ef8565b610c97565b005b34801561028957600080fd5b506102a4600480360381019061029f91906140ab565b6110e9565b6040516102b1919061434a565b60405180910390f35b3480156102c657600080fd5b506102e160048036038101906102dc9190613ef8565b61154f565b005b3480156102ef57600080fd5b5061030a6004803603810190610305919061414c565b61156f565b005b34801561031857600080fd5b50610321611644565b60405161032e9190614387565b60405180910390f35b34801561034357600080fd5b5061035e6004803603810190610359919061414c565b611651565b60405161036b9190614223565b60405180910390f35b61038e60048036038101906103899190614003565b611737565b60405161039b919061434a565b60405180910390f35b3480156103b057600080fd5b506103cb60048036038101906103c69190613e6a565b611abe565b6040516103d89190614387565b60405180910390f35b3480156103ed57600080fd5b506103f6611b78565b6040516104039190614365565b60405180910390f35b34801561041857600080fd5b50610433600480360381019061042e9190614003565b611bb1565b604051610440919061434a565b60405180910390f35b34801561045557600080fd5b5061045e611f2a565b60405161046b9190614223565b60405180910390f35b34801561048057600080fd5b5061049b6004803603810190610496919061414c565b611f50565b6040516104a8919061434a565b60405180910390f35b3480156104bd57600080fd5b506104c6612058565b6040516104d39190614365565b60405180910390f35b3480156104e857600080fd5b5061050360048036038101906104fe9190613fc7565b6120ea565b005b34801561051157600080fd5b5061052c60048036038101906105279190613f47565b6121e7565b005b34801561053a57600080fd5b506105556004803603810190610550919061414c565b61223e565b6040516105629190614365565b60405180910390f35b34801561057757600080fd5b50610592600480360381019061058d919061403f565b6123c1565b005b3480156105a057600080fd5b506105bb60048036038101906105b69190613ebc565b6124f1565b6040516105c8919061434a565b60405180910390f35b3480156105dd57600080fd5b506105f860048036038101906105f39190613e6a565b612585565b005b34801561060657600080fd5b5061060f6127b7565b60405161061c9190614365565b60405180910390f35b34801561063157600080fd5b5061064c60048036038101906106479190613e6a565b6127f0565b6040516106599190614387565b60405180910390f35b34801561066e57600080fd5b5061068960048036038101906106849190613e93565b612838565b604051610696919061434a565b60405180910390f35b600060016000837bffffffffffffffffffffffffffffffffffffffffffffffffffffffff19167bffffffffffffffffffffffffffffffffffffffffffffffffffffffff1916815260200190815260200160002060009054906101000a900460ff169050919050565b606060068054610716906145ad565b80601f0160208091040260200160405190810160405280929190818152602001828054610742906145ad565b801561078f5780601f106107645761010080835404028352916020019161078f565b820191906000526020600020905b81548152906001019060200180831161077257829003601f168201915b5050505050905090565b600081600073ffffffffffffffffffffffffffffffffffffffff166002600083815260200190815260200160002060009054906101000a900473ffffffffffffffffffffffffffffffffffffffff1673ffffffffffffffffffffffffffffffffffffffff1614156040518060400160405280600681526020017f303033303032000000000000000000000000000000000000000000000000000081525090610877576040517f08c379a000000000000000000000000000000000000000000000000000000000815260040161086e9190614365565b60405180910390fd5b506003600084815260200190815260200160002060009054906101000a900473ffffffffffffffffffffffffffffffffffffffff16915050919050565b8060006002600083815260200190815260200160002060009054906101000a900473ffffffffffffffffffffffffffffffffffffffff1690503373ffffffffffffffffffffffffffffffffffffffff168173ffffffffffffffffffffffffffffffffffffffff1614806109ad5750600560008273ffffffffffffffffffffffffffffffffffffffff1673ffffffffffffffffffffffffffffffffffffffff16815260200190815260200160002060003373ffffffffffffffffffffffffffffffffffffffff1673ffffffffffffffffffffffffffffffffffffffff16815260200190815260200160002060009054906101000a900460ff165b6040518060400160405280600681526020017f303033303033000000000000000000000000000000000000000000000000000081525090610a24576040517f08c379a0000000000000000000000000000000000000000000000000000000008152600401610a1b9190614365565b60405180910390fd5b5082600073ffffffffffffffffffffffffffffffffffffffff166002600083815260200190815260200160002060009054906101000a900473ffffffffffffffffffffffffffffffffffffffff1673ffffffffffffffffffffffffffffffffffffffff1614156040518060400160405280600681526020017f303033303032000000000000000000000000000000000000000000000000000081525090610b01576040517f08c379a0000000000000000000000000000000000000000000000000000000008152600401610af89190614365565b60405180910390fd5b5060006002600086815260200190815260200160002060009054906101000a900473ffffffffffffffffffffffffffffffffffffffff1690508073ffffffffffffffffffffffffffffffffffffffff168673ffffffffffffffffffffffffffffffffffffffff1614156040518060400160405280600681526020017f303033303038000000000000000000000000000000000000000000000000000081525090610be1576040517f08c379a0000000000000000000000000000000000000000000000000000000008152600401610bd89190614365565b60405180910390fd5b50856003600087815260200190815260200160002060006101000a81548173ffffffffffffffffffffffffffffffffffffffff021916908373ffffffffffffffffffffffffffffffffffffffff160217905550848673ffffffffffffffffffffffffffffffffffffffff168273ffffffffffffffffffffffffffffffffffffffff167f8c5be1e5ebec7d5bd14f71427d1e84f3dd0314c0f7b2291e5b200ac8c7c3b92560405160405180910390a4505050505050565b8060006002600083815260200190815260200160002060009054906101000a900473ffffffffffffffffffffffffffffffffffffffff1690503373ffffffffffffffffffffffffffffffffffffffff168173ffffffffffffffffffffffffffffffffffffffff161480610d6857503373ffffffffffffffffffffffffffffffffffffffff166003600084815260200190815260200160002060009054906101000a900473ffffffffffffffffffffffffffffffffffffffff1673ffffffffffffffffffffffffffffffffffffffff16145b80610df95750600560008273ffffffffffffffffffffffffffffffffffffffff1673ffffffffffffffffffffffffffffffffffffffff16815260200190815260200160002060003373ffffffffffffffffffffffffffffffffffffffff1673ffffffffffffffffffffffffffffffffffffffff16815260200190815260200160002060009054906101000a900460ff165b6040518060400160405280600681526020017f303033303034000000000000000000000000000000000000000000000000000081525090610e70576040517f08c379a0000000000000000000000000000000000000000000000000000000008152600401610e679190614365565b60405180910390fd5b5082600073ffffffffffffffffffffffffffffffffffffffff166002600083815260200190815260200160002060009054906101000a900473ffffffffffffffffffffffffffffffffffffffff1673ffffffffffffffffffffffffffffffffffffffff1614156040518060400160405280600681526020017f303033303032000000000000000000000000000000000000000000000000000081525090610f4d576040517f08c379a0000000000000000000000000000000000000000000000000000000008152600401610f449190614365565b60405180910390fd5b5060006002600086815260200190815260200160002060009054906101000a900473ffffffffffffffffffffffffffffffffffffffff1690508673ffffffffffffffffffffffffffffffffffffffff168173ffffffffffffffffffffffffffffffffffffffff16146040518060400160405280600681526020017f30303330303700000000000000000000000000000000000000000000000000008152509061102c576040517f08c379a00000000000000000000000000000000000000000000000000000000081526004016110239190614365565b60405180910390fd5b50600073ffffffffffffffffffffffffffffffffffffffff168673ffffffffffffffffffffffffffffffffffffffff1614156040518060400160405280600681526020017f3030333030310000000000000000000000000000000000000000000000000000815250906110d5576040517f08c379a00000000000000000000000000000000000000000000000000000000081526004016110cc9190614365565b60405180910390fd5b506110e08686612a3d565b50505050505050565b600082600073ffffffffffffffffffffffffffffffffffffffff166002600083815260200190815260200160002060009054906101000a900473ffffffffffffffffffffffffffffffffffffffff1673ffffffffffffffffffffffffffffffffffffffff1614156040518060400160405280600681526020017f3030333030320000000000000000000000000000000000000000000000000000815250906111c7576040517f08c379a00000000000000000000000000000000000000000000000000000000081526004016111be9190614365565b60405180910390fd5b508360006002600083815260200190815260200160002060009054906101000a900473ffffffffffffffffffffffffffffffffffffffff1690503373ffffffffffffffffffffffffffffffffffffffff168173ffffffffffffffffffffffffffffffffffffffff1614806112c15750600560008273ffffffffffffffffffffffffffffffffffffffff1673ffffffffffffffffffffffffffffffffffffffff16815260200190815260200160002060003373ffffffffffffffffffffffffffffffffffffffff1673ffffffffffffffffffffffffffffffffffffffff16815260200190815260200160002060009054906101000a900460ff165b6040518060400160405280600681526020017f303033303033000000000000000000000000000000000000000000000000000081525090611338576040517f08c379a000000000000000000000000000000000000000000000000000000000815260040161132f9190614365565b60405180910390fd5b50600073ffffffffffffffffffffffffffffffffffffffff168773ffffffffffffffffffffffffffffffffffffffff1614156040518060400160405280600681526020017f3030333030310000000000000000000000000000000000000000000000000000815250906113e1576040517f08c379a00000000000000000000000000000000000000000000000000000000081526004016113d89190614365565b60405180910390fd5b50600085116040518060400160405280600681526020017f30303330313000000000000000000000000000000000000000000000000000008152509061145d576040517f08c379a00000000000000000000000000000000000000000000000000000000081526004016114549190614365565b60405180910390fd5b50600060018661146d9190614430565b90506001600b600089815260200190815260200160002060006101000a81548160ff02191690831515021790555080600c60008981526020019081526020016000208190555087600d600089815260200190815260200160002060006101000a81548173ffffffffffffffffffffffffffffffffffffffff021916908373ffffffffffffffffffffffffffffffffffffffff1602179055507f5b97b9773ca90b6593466c3dbc3d2b923ddee03dc025fbac4c2b1b908cc9714588888360405161153893929190614313565b60405180910390a160019450505050509392505050565b61156a83838360405180602001604052806000815250612af2565b505050565b600a60009054906101000a900473ffffffffffffffffffffffffffffffffffffffff1673ffffffffffffffffffffffffffffffffffffffff163373ffffffffffffffffffffffffffffffffffffffff16146040518060400160405280600681526020017f303138303031000000000000000000000000000000000000000000000000000081525090611637576040517f08c379a000000000000000000000000000000000000000000000000000000000815260040161162e9190614365565b60405180910390fd5b50611641816130c0565b50565b6000600980549050905090565b60006002600083815260200190815260200160002060009054906101000a900473ffffffffffffffffffffffffffffffffffffffff169050600073ffffffffffffffffffffffffffffffffffffffff168173ffffffffffffffffffffffffffffffffffffffff1614156040518060400160405280600681526020017f303033303032000000000000000000000000000000000000000000000000000081525090611731576040517f08c379a00000000000000000000000000000000000000000000000000000000081526004016117289190614365565b60405180910390fd5b50919050565b600081600073ffffffffffffffffffffffffffffffffffffffff166002600083815260200190815260200160002060009054906101000a900473ffffffffffffffffffffffffffffffffffffffff1673ffffffffffffffffffffffffffffffffffffffff1614156040518060400160405280600681526020017f303033303032000000000000000000000000000000000000000000000000000081525090611815576040517f08c379a000000000000000000000000000000000000000000000000000000000815260040161180c9190614365565b60405180910390fd5b50600073ffffffffffffffffffffffffffffffffffffffff168473ffffffffffffffffffffffffffffffffffffffff1614156040518060400160405280600681526020017f3030333030310000000000000000000000000000000000000000000000000000815250906118be576040517f08c379a00000000000000000000000000000000000000000000000000000000081526004016118b59190614365565b60405180910390fd5b50600b600084815260200190815260200160002060009054906101000a900460ff166040518060400160405280600681526020017f303033303131000000000000000000000000000000000000000000000000000081525090611957576040517f08c379a000000000000000000000000000000000000000000000000000000000815260040161194e9190614365565b60405180910390fd5b50600c6000848152602001908152602001600020543410156040518060400160405280600681526020017f3030333031320000000000000000000000000000000000000000000000000000815250906119e6576040517f08c379a00000000000000000000000000000000000000000000000000000000081526004016119dd9190614365565b60405180910390fd5b506000600c60008581526020019081526020016000205434611a08919061448a565b9050611a5b85600d600087815260200190815260200160002060009054906101000a900473ffffffffffffffffffffffffffffffffffffffff16600c600088815260200190815260200160002054613113565b60008114611a6e57611a6c816131a8565b505b600b600085815260200190815260200160002060006101000a81549060ff0219169055600c600085815260200190815260200160002060009055611ab28585612a3d565b60019250505092915050565b60008073ffffffffffffffffffffffffffffffffffffffff168273ffffffffffffffffffffffffffffffffffffffff1614156040518060400160405280600681526020017f303033303031000000000000000000000000000000000000000000000000000081525090611b67576040517f08c379a0000000000000000000000000000000000000000000000000000000008152600401611b5e9190614365565b60405180910390fd5b50611b7182613252565b9050919050565b6040518060400160405280600681526020017f303138303032000000000000000000000000000000000000000000000000000081525081565b600081600073ffffffffffffffffffffffffffffffffffffffff166002600083815260200190815260200160002060009054906101000a900473ffffffffffffffffffffffffffffffffffffffff1673ffffffffffffffffffffffffffffffffffffffff1614156040518060400160405280600681526020017f303033303032000000000000000000000000000000000000000000000000000081525090611c8f576040517f08c379a0000000000000000000000000000000000000000000000000000000008152600401611c869190614365565b60405180910390fd5b508260006002600083815260200190815260200160002060009054906101000a900473ffffffffffffffffffffffffffffffffffffffff1690503373ffffffffffffffffffffffffffffffffffffffff168173ffffffffffffffffffffffffffffffffffffffff161480611d895750600560008273ffffffffffffffffffffffffffffffffffffffff1673ffffffffffffffffffffffffffffffffffffffff16815260200190815260200160002060003373ffffffffffffffffffffffffffffffffffffffff1673ffffffffffffffffffffffffffffffffffffffff16815260200190815260200160002060009054906101000a900460ff165b6040518060400160405280600681526020017f303033303033000000000000000000000000000000000000000000000000000081525090611e00576040517f08c379a0000000000000000000000000000000000000000000000000000000008152600401611df79190614365565b60405180910390fd5b50600073ffffffffffffffffffffffffffffffffffffffff168673ffffffffffffffffffffffffffffffffffffffff1614156040518060400160405280600681526020017f303033303031000000000000000000000000000000000000000000000000000081525090611ea9576040517f08c379a0000000000000000000000000000000000000000000000000000000008152600401611ea09190614365565b60405180910390fd5b50600b600086815260200190815260200160002060006101000a81549060ff0219169055600c6000868152602001908152602001600020600090557ffb9cc4c5a76e83be8e9836c80321c20798485702cc82f35ac6c4721d8c99da208686604051611f159291906142ea565b60405180910390a16001935050505092915050565b600a60009054906101000a900473ffffffffffffffffffffffffffffffffffffffff1681565b600081600073ffffffffffffffffffffffffffffffffffffffff166002600083815260200190815260200160002060009054906101000a900473ffffffffffffffffffffffffffffffffffffffff1673ffffffffffffffffffffffffffffffffffffffff1614156040518060400160405280600681526020017f30303330303200000000000000000000000000000000000000000000000000008152509061202e576040517f08c379a00000000000000000000000000000000000000000000000000000000081526004016120259190614365565b60405180910390fd5b50600b600084815260200190815260200160002060009054906101000a900460ff16915050919050565b606060078054612067906145ad565b80601f0160208091040260200160405190810160405280929190818152602001828054612093906145ad565b80156120e05780601f106120b5576101008083540402835291602001916120e0565b820191906000526020600020905b8154815290600101906020018083116120c357829003601f168201915b5050505050905090565b80600560003373ffffffffffffffffffffffffffffffffffffffff1673ffffffffffffffffffffffffffffffffffffffff16815260200190815260200160002060008473ffffffffffffffffffffffffffffffffffffffff1673ffffffffffffffffffffffffffffffffffffffff16815260200190815260200160002060006101000a81548160ff0219169083151502179055508173ffffffffffffffffffffffffffffffffffffffff163373ffffffffffffffffffffffffffffffffffffffff167f17307eab39ab6107e8899845ad3d59bd9653f200f220920489ca2b5937696c31836040516121db919061434a565b60405180910390a35050565b61223785858585858080601f016020809104026020016040519081016040528093929190818152602001838380828437600081840152601f19601f82011690508083019250505050505050612af2565b5050505050565b606081600073ffffffffffffffffffffffffffffffffffffffff166002600083815260200190815260200160002060009054906101000a900473ffffffffffffffffffffffffffffffffffffffff1673ffffffffffffffffffffffffffffffffffffffff1614156040518060400160405280600681526020017f30303330303200000000000000000000000000000000000000000000000000008152509061231c576040517f08c379a00000000000000000000000000000000000000000000000000000000081526004016123139190614365565b60405180910390fd5b5060086000848152602001908152602001600020805461233b906145ad565b80601f0160208091040260200160405190810160405280929190818152602001828054612367906145ad565b80156123b45780601f10612389576101008083540402835291602001916123b4565b820191906000526020600020905b81548152906001019060200180831161239757829003601f168201915b5050505050915050919050565b600a60009054906101000a900473ffffffffffffffffffffffffffffffffffffffff1673ffffffffffffffffffffffffffffffffffffffff163373ffffffffffffffffffffffffffffffffffffffff16146040518060400160405280600681526020017f303138303031000000000000000000000000000000000000000000000000000081525090612489576040517f08c379a00000000000000000000000000000000000000000000000000000000081526004016124809190614365565b60405180910390fd5b50612494848461329b565b6124e28383838080601f016020809104026020016040519081016040528093929190818152602001838380828437600081840152601f19601f82011690508083019250505050505050613489565b6124eb83613593565b50505050565b6000600560008473ffffffffffffffffffffffffffffffffffffffff1673ffffffffffffffffffffffffffffffffffffffff16815260200190815260200160002060008373ffffffffffffffffffffffffffffffffffffffff1673ffffffffffffffffffffffffffffffffffffffff16815260200190815260200160002060009054906101000a900460ff16905092915050565b600a60009054906101000a900473ffffffffffffffffffffffffffffffffffffffff1673ffffffffffffffffffffffffffffffffffffffff163373ffffffffffffffffffffffffffffffffffffffff16146040518060400160405280600681526020017f30313830303100000000000000000000000000000000000000000000000000008152509061264d576040517f08c379a00000000000000000000000000000000000000000000000000000000081526004016126449190614365565b60405180910390fd5b50600073ffffffffffffffffffffffffffffffffffffffff168173ffffffffffffffffffffffffffffffffffffffff1614156040518060400160405280600681526020017f3031383030320000000000000000000000000000000000000000000000000000815250906126f6576040517f08c379a00000000000000000000000000000000000000000000000000000000081526004016126ed9190614365565b60405180910390fd5b508073ffffffffffffffffffffffffffffffffffffffff16600a60009054906101000a900473ffffffffffffffffffffffffffffffffffffffff1673ffffffffffffffffffffffffffffffffffffffff167f8be0079c531659141344cd1fd0a4f28419497f9722a3daafe3b4186f6b6457e060405160405180910390a380600a60006101000a81548173ffffffffffffffffffffffffffffffffffffffff021916908373ffffffffffffffffffffffffffffffffffffffff16021790555050565b6040518060400160405280600681526020017f303138303031000000000000000000000000000000000000000000000000000081525081565b60008060008373ffffffffffffffffffffffffffffffffffffffff1673ffffffffffffffffffffffffffffffffffffffff168152602001908152602001600020549050919050565b6000806000808473ffffffffffffffffffffffffffffffffffffffff1673ffffffffffffffffffffffffffffffffffffffff1681526020019081526020016000205414156040518060400160405280600681526020017f3030333030390000000000000000000000000000000000000000000000000000815250906128f3576040517f08c379a00000000000000000000000000000000000000000000000000000000081526004016128ea9190614365565b60405180910390fd5b508173ffffffffffffffffffffffffffffffffffffffff166108fc6000808573ffffffffffffffffffffffffffffffffffffffff1673ffffffffffffffffffffffffffffffffffffffff168152602001908152602001600020549081150290604051600060405180830381858888f19350505050158015612978573d6000803e3d6000fd5b507f4ce7033d118120e254016dccf195288400b28fc8936425acd5f17ce2df3ab708826000808573ffffffffffffffffffffffffffffffffffffffff1673ffffffffffffffffffffffffffffffffffffffff168152602001908152602001600020546040516129e892919061423e565b60405180910390a160008060008473ffffffffffffffffffffffffffffffffffffffff1673ffffffffffffffffffffffffffffffffffffffff1681526020019081526020016000208190555060019050919050565b60006002600083815260200190815260200160002060009054906101000a900473ffffffffffffffffffffffffffffffffffffffff169050612a7e8261369d565b612a88818361373e565b612a9283836138e1565b818373ffffffffffffffffffffffffffffffffffffffff168273ffffffffffffffffffffffffffffffffffffffff167fddf252ad1be2c89b69c2b068fc378daa952ba7f163c4a11628f55a4df523b3ef60405160405180910390a4505050565b8160006002600083815260200190815260200160002060009054906101000a900473ffffffffffffffffffffffffffffffffffffffff1690503373ffffffffffffffffffffffffffffffffffffffff168173ffffffffffffffffffffffffffffffffffffffff161480612bc357503373ffffffffffffffffffffffffffffffffffffffff166003600084815260200190815260200160002060009054906101000a900473ffffffffffffffffffffffffffffffffffffffff1673ffffffffffffffffffffffffffffffffffffffff16145b80612c545750600560008273ffffffffffffffffffffffffffffffffffffffff1673ffffffffffffffffffffffffffffffffffffffff16815260200190815260200160002060003373ffffffffffffffffffffffffffffffffffffffff1673ffffffffffffffffffffffffffffffffffffffff16815260200190815260200160002060009054906101000a900460ff165b6040518060400160405280600681526020017f303033303034000000000000000000000000000000000000000000000000000081525090612ccb576040517f08c379a0000000000000000000000000000000000000000000000000000000008152600401612cc29190614365565b60405180910390fd5b5083600073ffffffffffffffffffffffffffffffffffffffff166002600083815260200190815260200160002060009054906101000a900473ffffffffffffffffffffffffffffffffffffffff1673ffffffffffffffffffffffffffffffffffffffff1614156040518060400160405280600681526020017f303033303032000000000000000000000000000000000000000000000000000081525090612da8576040517f08c379a0000000000000000000000000000000000000000000000000000000008152600401612d9f9190614365565b60405180910390fd5b5060006002600087815260200190815260200160002060009054906101000a900473ffffffffffffffffffffffffffffffffffffffff1690508773ffffffffffffffffffffffffffffffffffffffff168173ffffffffffffffffffffffffffffffffffffffff16146040518060400160405280600681526020017f303033303037000000000000000000000000000000000000000000000000000081525090612e87576040517f08c379a0000000000000000000000000000000000000000000000000000000008152600401612e7e9190614365565b60405180910390fd5b50600073ffffffffffffffffffffffffffffffffffffffff168773ffffffffffffffffffffffffffffffffffffffff1614156040518060400160405280600681526020017f303033303031000000000000000000000000000000000000000000000000000081525090612f30576040517f08c379a0000000000000000000000000000000000000000000000000000000008152600401612f279190614365565b60405180910390fd5b50612f3b8787612a3d565b612f5a8773ffffffffffffffffffffffffffffffffffffffff16613aa1565b156130b65760008773ffffffffffffffffffffffffffffffffffffffff1663150b7a02338b8a8a6040518563ffffffff1660e01b8152600401612fa0949392919061429e565b602060405180830381600087803b158015612fba57600080fd5b505af1158015612fce573d6000803e3d6000fd5b505050506040513d601f19601f82011682018060405250810190612ff29190614123565b905063150b7a0260e01b7bffffffffffffffffffffffffffffffffffffffffffffffffffffffff1916817bffffffffffffffffffffffffffffffffffffffffffffffffffffffff1916146040518060400160405280600681526020017f3030333030350000000000000000000000000000000000000000000000000000815250906130b3576040517f08c379a00000000000000000000000000000000000000000000000000000000081526004016130aa9190614365565b60405180910390fd5b50505b5050505050505050565b6130c981613aec565b60006008600083815260200190815260200160002080546130e9906145ad565b9050146131105760086000828152602001908152602001600020600061310f9190613c75565b5b50565b806000808473ffffffffffffffffffffffffffffffffffffffff1673ffffffffffffffffffffffffffffffffffffffff168152602001908152602001600020600082825461316191906143da565b925050819055507f0a85107a334eae0d22d21cdf13af0f8e8125039ec60baaa843d2c4c5b068017483838360405161319b93929190614267565b60405180910390a1505050565b6000806001836131b89190614430565b9050806000803373ffffffffffffffffffffffffffffffffffffffff1673ffffffffffffffffffffffffffffffffffffffff168152602001908152602001600020600082825461320891906143da565b925050819055507f1b851e1031ef35a238e6c67d0c7991162390df915f70eaf9098dbf0b175a619833826040516132409291906142ea565b60405180910390a16001915050919050565b6000600460008373ffffffffffffffffffffffffffffffffffffffff1673ffffffffffffffffffffffffffffffffffffffff168152602001908152602001600020549050919050565b600073ffffffffffffffffffffffffffffffffffffffff168273ffffffffffffffffffffffffffffffffffffffff1614156040518060400160405280600681526020017f303033303031000000000000000000000000000000000000000000000000000081525090613343576040517f08c379a000000000000000000000000000000000000000000000000000000000815260040161333a9190614365565b60405180910390fd5b50600073ffffffffffffffffffffffffffffffffffffffff166002600083815260200190815260200160002060009054906101000a900473ffffffffffffffffffffffffffffffffffffffff1673ffffffffffffffffffffffffffffffffffffffff16146040518060400160405280600681526020017f30303330303600000000000000000000000000000000000000000000000000008152509061341e576040517f08c379a00000000000000000000000000000000000000000000000000000000081526004016134159190614365565b60405180910390fd5b5061342982826138e1565b808273ffffffffffffffffffffffffffffffffffffffff16600073ffffffffffffffffffffffffffffffffffffffff167fddf252ad1be2c89b69c2b068fc378daa952ba7f163c4a11628f55a4df523b3ef60405160405180910390a45050565b81600073ffffffffffffffffffffffffffffffffffffffff166002600083815260200190815260200160002060009054906101000a900473ffffffffffffffffffffffffffffffffffffffff1673ffffffffffffffffffffffffffffffffffffffff1614156040518060400160405280600681526020017f303033303032000000000000000000000000000000000000000000000000000081525090613565576040517f08c379a000000000000000000000000000000000000000000000000000000000815260040161355c9190614365565b60405180910390fd5b508160086000858152602001908152602001600020908051906020019061358d929190613cb5565b50505050565b80600073ffffffffffffffffffffffffffffffffffffffff166002600083815260200190815260200160002060009054906101000a900473ffffffffffffffffffffffffffffffffffffffff1673ffffffffffffffffffffffffffffffffffffffff1614156040518060400160405280600681526020017f30303330303200000000000000000000000000000000000000000000000000008152509061366f576040517f08c379a00000000000000000000000000000000000000000000000000000000081526004016136669190614365565b60405180910390fd5b5060098290806001815401808255809150506001900390600052602060002001600090919091909150555050565b600073ffffffffffffffffffffffffffffffffffffffff166003600083815260200190815260200160002060009054906101000a900473ffffffffffffffffffffffffffffffffffffffff1673ffffffffffffffffffffffffffffffffffffffff161461373b576003600082815260200190815260200160002060006101000a81549073ffffffffffffffffffffffffffffffffffffffff02191690555b50565b8173ffffffffffffffffffffffffffffffffffffffff166002600083815260200190815260200160002060009054906101000a900473ffffffffffffffffffffffffffffffffffffffff1673ffffffffffffffffffffffffffffffffffffffff16146040518060400160405280600681526020017f303033303037000000000000000000000000000000000000000000000000000081525090613817576040517f08c379a000000000000000000000000000000000000000000000000000000000815260040161380e9190614365565b60405180910390fd5b506001600460008473ffffffffffffffffffffffffffffffffffffffff1673ffffffffffffffffffffffffffffffffffffffff16815260200190815260200160002054613864919061448a565b600460008473ffffffffffffffffffffffffffffffffffffffff1673ffffffffffffffffffffffffffffffffffffffff168152602001908152602001600020819055506002600082815260200190815260200160002060006101000a81549073ffffffffffffffffffffffffffffffffffffffff02191690555050565b600073ffffffffffffffffffffffffffffffffffffffff166002600083815260200190815260200160002060009054906101000a900473ffffffffffffffffffffffffffffffffffffffff1673ffffffffffffffffffffffffffffffffffffffff16146040518060400160405280600681526020017f3030333030360000000000000000000000000000000000000000000000000000815250906139bb576040517f08c379a00000000000000000000000000000000000000000000000000000000081526004016139b29190614365565b60405180910390fd5b50816002600083815260200190815260200160002060006101000a81548173ffffffffffffffffffffffffffffffffffffffff021916908373ffffffffffffffffffffffffffffffffffffffff1602179055506001600460008473ffffffffffffffffffffffffffffffffffffffff1673ffffffffffffffffffffffffffffffffffffffff16815260200190815260200160002054613a5a91906143da565b600460008473ffffffffffffffffffffffffffffffffffffffff1673ffffffffffffffffffffffffffffffffffffffff168152602001908152602001600020819055505050565b60008060007fc5d2460186f7233c927e7db2dcc703c0e500b653ca82273b7bfad8045d85a47060001b9050833f91506000801b8214158015613ae35750808214155b92505050919050565b80600073ffffffffffffffffffffffffffffffffffffffff166002600083815260200190815260200160002060009054906101000a900473ffffffffffffffffffffffffffffffffffffffff1673ffffffffffffffffffffffffffffffffffffffff1614156040518060400160405280600681526020017f303033303032000000000000000000000000000000000000000000000000000081525090613bc8576040517f08c379a0000000000000000000000000000000000000000000000000000000008152600401613bbf9190614365565b60405180910390fd5b5060006002600084815260200190815260200160002060009054906101000a900473ffffffffffffffffffffffffffffffffffffffff169050613c0a8361369d565b613c14818461373e565b82600073ffffffffffffffffffffffffffffffffffffffff168273ffffffffffffffffffffffffffffffffffffffff167fddf252ad1be2c89b69c2b068fc378daa952ba7f163c4a11628f55a4df523b3ef60405160405180910390a4505050565b508054613c81906145ad565b6000825580601f10613c935750613cb2565b601f016020900490600052602060002090810190613cb19190613d3b565b5b50565b828054613cc1906145ad565b90600052602060002090601f016020900481019282613ce35760008555613d2a565b82601f10613cfc57805160ff1916838001178555613d2a565b82800160010185558215613d2a579182015b82811115613d29578251825591602001919060010190613d0e565b5b509050613d379190613d3b565b5090565b5b80821115613d54576000816000905550600101613d3c565b5090565b600081359050613d678161464e565b92915050565b600081359050613d7c81614665565b92915050565b600081359050613d918161467c565b92915050565b600081359050613da681614693565b92915050565b600081519050613dbb81614693565b92915050565b60008083601f840112613dd357600080fd5b8235905067ffffffffffffffff811115613dec57600080fd5b602083019150836001820283011115613e0457600080fd5b9250929050565b60008083601f840112613e1d57600080fd5b8235905067ffffffffffffffff811115613e3657600080fd5b602083019150836001820283011115613e4e57600080fd5b9250929050565b600081359050613e64816146aa565b92915050565b600060208284031215613e7c57600080fd5b6000613e8a84828501613d58565b91505092915050565b600060208284031215613ea557600080fd5b6000613eb384828501613d6d565b91505092915050565b60008060408385031215613ecf57600080fd5b6000613edd85828601613d58565b9250506020613eee85828601613d58565b9150509250929050565b600080600060608486031215613f0d57600080fd5b6000613f1b86828701613d58565b9350506020613f2c86828701613d58565b9250506040613f3d86828701613e55565b9150509250925092565b600080600080600060808688031215613f5f57600080fd5b6000613f6d88828901613d58565b9550506020613f7e88828901613d58565b9450506040613f8f88828901613e55565b935050606086013567ffffffffffffffff811115613fac57600080fd5b613fb888828901613dc1565b92509250509295509295909350565b60008060408385031215613fda57600080fd5b6000613fe885828601613d58565b9250506020613ff985828601613d82565b9150509250929050565b6000806040838503121561401657600080fd5b600061402485828601613d58565b925050602061403585828601613e55565b9150509250929050565b6000806000806060858703121561405557600080fd5b600061406387828801613d58565b945050602061407487828801613e55565b935050604085013567ffffffffffffffff81111561409157600080fd5b61409d87828801613e0b565b925092505092959194509250565b6000806000606084860312156140c057600080fd5b60006140ce86828701613d58565b93505060206140df86828701613e55565b92505060406140f086828701613e55565b9150509250925092565b60006020828403121561410c57600080fd5b600061411a84828501613d97565b91505092915050565b60006020828403121561413557600080fd5b600061414384828501613dac565b91505092915050565b60006020828403121561415e57600080fd5b600061416c84828501613e55565b91505092915050565b61417e81614544565b82525050565b61418d816144be565b82525050565b61419c816144e2565b82525050565b60006141ad826143a2565b6141b781856143b8565b93506141c781856020860161457a565b6141d08161463d565b840191505092915050565b60006141e6826143ad565b6141f081856143c9565b935061420081856020860161457a565b6142098161463d565b840191505092915050565b61421d8161453a565b82525050565b60006020820190506142386000830184614184565b92915050565b60006040820190506142536000830185614175565b6142606020830184614214565b9392505050565b600060608201905061427c6000830186614184565b6142896020830185614184565b6142966040830184614214565b949350505050565b60006080820190506142b36000830187614184565b6142c06020830186614184565b6142cd6040830185614214565b81810360608301526142df81846141a2565b905095945050505050565b60006040820190506142ff6000830185614184565b61430c6020830184614214565b9392505050565b60006060820190506143286000830186614184565b6143356020830185614214565b6143426040830184614214565b949350505050565b600060208201905061435f6000830184614193565b92915050565b6000602082019050818103600083015261437f81846141db565b905092915050565b600060208201905061439c6000830184614214565b92915050565b600081519050919050565b600081519050919050565b600082825260208201905092915050565b600082825260208201905092915050565b60006143e58261453a565b91506143f08361453a565b9250827fffffffffffffffffffffffffffffffffffffffffffffffffffffffffffffffff03821115614425576144246145df565b5b828201905092915050565b600061443b8261453a565b91506144468361453a565b9250817fffffffffffffffffffffffffffffffffffffffffffffffffffffffffffffffff048311821515161561447f5761447e6145df565b5b828202905092915050565b60006144958261453a565b91506144a08361453a565b9250828210156144b3576144b26145df565b5b828203905092915050565b60006144c98261451a565b9050919050565b60006144db8261451a565b9050919050565b60008115159050919050565b60007fffffffff0000000000000000000000000000000000000000000000000000000082169050919050565b600073ffffffffffffffffffffffffffffffffffffffff82169050919050565b6000819050919050565b600061454f82614556565b9050919050565b600061456182614568565b9050919050565b60006145738261451a565b9050919050565b60005b8381101561459857808201518184015260208101905061457d565b838111156145a7576000848401525b50505050565b600060028204905060018216806145c557607f821691505b602082108114156145d9576145d861460e565b5b50919050565b7f4e487b7100000000000000000000000000000000000000000000000000000000600052601160045260246000fd5b7f4e487b7100000000000000000000000000000000000000000000000000000000600052602260045260246000fd5b6000601f19601f8301169050919050565b614657816144be565b811461466257600080fd5b50565b61466e816144d0565b811461467957600080fd5b50565b614685816144e2565b811461469057600080fd5b50565b61469c816144ee565b81146146a757600080fd5b50565b6146b38161453a565b81146146be57600080fd5b5056fea26469706673582212200ef46fca1f2d0b51544e49962213199d0578f5f4df5c6b505b951a98c503256664736f6c63430008000033",
  "immutableReferences": {},
  "source": "// SPDX-License-Identifier: MIT\npragma solidity >=0.4.22 <0.9.0;\n\nimport \"./tokens/nf-token-metadata.sol\";\nimport \"./ownership/ownable.sol\";\nimport \"./store/store.sol\";\n\n/**\n * @dev This is an example contract implementation of NFToken with metadata extension.\n */\ncontract UserContract is NFTokenMetadata, Ownable, Store {\n    /**\n     * @dev Contract constructor. Sets metadata extension `name` and `symbol`.\n     */\n    constructor(string memory contractName, string memory contractSymbol) {\n        nftName = contractName;\n        nftSymbol = contractSymbol;\n    }\n\n    /**\n     * @dev Mints a new NFT.\n     * @param _to The address that will own the minted NFT.\n     * @param _tokenId of the NFT to be minted by the msg.sender.\n     * @param _uri String representing RFC 3986 URI.\n     */\n    function mint(\n        address _to,\n        uint256 _tokenId,\n        string calldata _uri\n    ) external onlyOwner {\n        super._mint(_to, _tokenId);\n        super._setTokenUri(_tokenId, _uri);\n        super._push(_tokenId);\n    }\n\n    /**\n     * @dev Burn an NFT.\n     * @param _tokenId of the NFT to be burned by the msg.sender.\n     */\n    function burn(uint256 _tokenId) external onlyOwner {\n        super._burn(_tokenId);\n    }\n}\n",
  "sourcePath": "/Users/fahmi/Downloads/Fahmi Learn/Blockchain/ScratchNFT/Belajar-NFT-Part-1/contracts/UserContract.sol",
  "compiler": {
    "name": "solc",
    "version": "0.8.0+commit.c7dfd78e.Emscripten.clang"
  },
  "schemaVersion": "3.3.4",
  "updatedAt": "2021-03-24T08:17:49.670Z",
  "devdoc": {
    "details": "This is an example contract implementation of NFToken with metadata extension.",
    "kind": "dev",
    "methods": {
      "approve(address,uint256)": {
        "details": "Set or reaffirm the approved address for an NFT. This function can be changed to payable.",
        "params": {
          "_approved": "Address to be approved for the given NFT ID.",
          "_tokenId": "ID of the token to be approved."
        }
      },
      "balanceOf(address)": {
        "details": "Returns the number of NFTs owned by `_owner`. NFTs assigned to the zero address are considered invalid, and this function throws for queries about the zero address.",
        "params": {
          "_owner": "Address for whom to query the balance."
        },
        "returns": {
          "_0": "Balance of _owner."
        }
      },
      "burn(uint256)": {
        "details": "Burn an NFT.",
        "params": {
          "_tokenId": "of the NFT to be burned by the msg.sender."
        }
      },
      "buyToken(address,uint256)": {
        "details": "Throws error unless the token is valid, token is on sale, and ethers sent is more than or equal item sale price.",
        "params": {
          "_buyer": "buyer address.",
          "_token": "The token id."
        }
      },
      "constructor": {
        "details": "Contract constructor. Sets metadata extension `name` and `symbol`."
      },
      "getApproved(uint256)": {
        "details": "Get the approved address for a single NFT.",
        "params": {
          "_tokenId": "ID of the NFT to query the approval of."
        },
        "returns": {
          "_0": "Address that _tokenId is approved for."
        }
      },
      "isApprovedForAll(address,address)": {
        "details": "Checks if `_operator` is an approved operator for `_owner`.",
        "params": {
          "_operator": "The address that acts on behalf of the owner.",
          "_owner": "The address that owns the NFTs."
        },
        "returns": {
          "_0": "True if approved for all, false otherwise."
        }
      },
      "isTokenOnSale(uint256)": {
        "details": "Throws error unless the token is valid.",
        "params": {
          "_tokenId": "token id"
        }
      },
      "mint(address,uint256,string)": {
        "details": "Mints a new NFT.",
        "params": {
          "_to": "The address that will own the minted NFT.",
          "_tokenId": "of the NFT to be minted by the msg.sender.",
          "_uri": "String representing RFC 3986 URI."
        }
      },
      "name()": {
        "details": "Returns a descriptive name for a collection of NFTokens.",
        "returns": {
          "_name": "Representing name."
        }
      },
      "ownerOf(uint256)": {
        "details": "Returns the address of the owner of the NFT. NFTs assigned to zero address are considered invalid, and queries about them do throw.",
        "params": {
          "_tokenId": "The identifier for an NFT."
        },
        "returns": {
          "_owner": "Address of _tokenId owner."
        }
      },
      "putItemOnSale(address,uint256,uint256)": {
        "details": "Throws error unless sender is the owner of the token or operator, the token is valid, and price is not 0 ethers",
        "params": {
          "owner": "token owner",
          "price": "The token price in wei.",
          "token": "The token id."
        }
      },
      "safeTransferFrom(address,address,uint256)": {
        "details": "Transfers the ownership of an NFT from one address to another address. This function can be changed to payable.",
        "params": {
          "_from": "The current owner of the NFT.",
          "_to": "The new owner.",
          "_tokenId": "The NFT to transfer."
        }
      },
      "safeTransferFrom(address,address,uint256,bytes)": {
        "details": "Transfers the ownership of an NFT from one address to another address. This function can be changed to payable.",
        "params": {
          "_data": "Additional data with no specified format, sent in call to `_to`.",
          "_from": "The current owner of the NFT.",
          "_to": "The new owner.",
          "_tokenId": "The NFT to transfer."
        }
      },
      "setApprovalForAll(address,bool)": {
        "details": "Enables or disables approval for a third party (\"operator\") to manage all of `msg.sender`'s assets. It also emits the ApprovalForAll event.",
        "params": {
          "_approved": "True if the operators is approved, false to revoke approval.",
          "_operator": "Address to add to the set of authorized operators."
        }
      },
      "supportsInterface(bytes4)": {
        "details": "Function to check which interfaces are suported by this contract.",
        "params": {
          "_interfaceID": "Id of the interface."
        },
        "returns": {
          "_0": "True if _interfaceID is supported, false otherwise."
        }
      },
      "symbol()": {
        "details": "Returns an abbreviated name for NFTokens.",
        "returns": {
          "_symbol": "Representing symbol."
        }
      },
      "takeOutTokenFromSale(address,uint256)": {
        "details": "Throws error unless sender is the owner of the token or operator, the token is valid, and price is not 0 ethers",
        "params": {
          "owner": "token owner",
          "token": "The token id."
        }
      },
      "tokenURI(uint256)": {
        "details": "A distinct URI (RFC 3986) for a given NFT.",
        "params": {
          "_tokenId": "Id for which we want uri."
        },
        "returns": {
          "_0": "URI of _tokenId."
        }
      },
      "totalToken()": {
        "details": "Returns the count of all existing NFTokens.",
        "returns": {
          "_0": "Total supply of NFTs."
        }
      },
      "transferFrom(address,address,uint256)": {
        "details": "Throws unless `msg.sender` is the current owner, an authorized operator, or the approved address for this NFT. Throws if `_from` is not the current owner. Throws if `_to` is the zero address. Throws if `_tokenId` is not a valid NFT. This function can be changed to payable.",
        "params": {
          "_from": "The current owner of the NFT.",
          "_to": "The new owner.",
          "_tokenId": "The NFT to transfer."
        }
      },
      "transferOwnership(address)": {
        "details": "Allows the current owner to transfer control of the contract to a newOwner.",
        "params": {
          "_newOwner": "The address to transfer ownership to."
        }
      }
    },
    "version": 1
  },
  "userdoc": {
    "events": {
      "LogPutItemOnSale(address,uint256,uint256)": {
        "notice": "Log for a user that put a token on sale."
      },
      "LogTakeOutTokenFromSale(address,uint256)": {
        "notice": "Log for a user that put a token out from sale."
      }
    },
    "kind": "user",
    "methods": {
      "approve(address,uint256)": {
        "notice": "The zero address indicates there is no approved address. Throws unless `msg.sender` is the current NFT owner, or an authorized operator of the current owner."
      },
      "buyToken(address,uint256)": {
        "notice": "Buy a token from marketplace."
      },
      "getApproved(uint256)": {
        "notice": "Throws if `_tokenId` is not a valid NFT."
      },
      "isTokenOnSale(uint256)": {
        "notice": "Check if token is on sale."
      },
      "putItemOnSale(address,uint256,uint256)": {
        "notice": "Put a token on sale."
      },
      "safeTransferFrom(address,address,uint256)": {
        "notice": "This works identically to the other function with an extra data parameter, except this function just sets data to \"\""
      },
      "safeTransferFrom(address,address,uint256,bytes)": {
        "notice": "Throws unless `msg.sender` is the current owner, an authorized operator, or the approved address for this NFT. Throws if `_from` is not the current owner. Throws if `_to` is the zero address. Throws if `_tokenId` is not a valid NFT. When transfer is complete, this function checks if `_to` is a smart contract (code size > 0). If so, it calls `onERC721Received` on `_to` and throws if the return value is not `bytes4(keccak256(\"onERC721Received(address,uint256,bytes)\"))`."
      },
      "setApprovalForAll(address,bool)": {
        "notice": "This works even if sender doesn't own any tokens at the time."
      },
      "takeOutTokenFromSale(address,uint256)": {
        "notice": "Take out a token from sale."
      },
      "transferFrom(address,address,uint256)": {
        "notice": "The caller is responsible to confirm that `_to` is capable of receiving NFTs or else they maybe be permanently lost."
      }
    },
    "version": 1
  }
}